:020000040800F2
:10000000005000201DDD000805DD000807DD0008A8
:1000100009DD00080BDD00080DDD00080000000010
:100020000000000000000000000000000FDD0008DC
:1000300011DD00080000000013DD000815DD0008D8
:1000400065DD000865DD000865DD000865DD000888
:1000500065DD000865DD000865DD000865DD000878
:1000600065DD000865DD000865DD000865DD000868
:1000700065DD000865DD000865DD000865DD000858
:10008000353400084134000865DD000865DD0008EE
:1000900065DD000865DD000865DD000865DD000838
:1000A00065DD000865DD000865DD000865DD000828
:1000B00065DD0008B14B000865DD00081D3400084F
:1000C0002934000865DD000865DD000865DD0008ED
:1000D00065DD00086D300008BD610008DD8B00089B
:1000E00045C6000865DD000865DD00080000000069
:1000F0000000000000000000000000000000000000
:0C01000000000000000000005FF808F1A3
:10010C0010B5054C237833B9044B13B10448AFF345
:10011C0000800123237010BDB000002000000000FF
:10012C00C423010808B5034B1BB103490348AFF3C3
:10013C00008008BD00000000B4000020C4230108AA
:10014C0010F8012B11F8013B012A28BF9A42F7D075
:10015C00D01A7047034613F8012B002AFBD1181A4A
:10016C000138704780F0004002E000BF81F0004190
:10017C0042001FBF5FEA410392EA030F7FEA226C41
:10018C007FEA236C6AD04FEA1262D2EB1363C1BFD1
:10019C00D218414048404140B8BF5B42192B88BF40
:1001AC00704710F0004F40F4000020F07F4018BF63
:1001BC00404211F0004F41F4000121F07F4118BF83
:1001CC00494292EA030F3FD0A2F1010241FA03FC2B
:1001DC0010EB0C00C3F1200301FA03F100F0004313
:1001EC0002D5494260EB4000B0F5000F13D3B0F1DB
:1001FC00807F06D340084FEA310102F10102FE2A4A
:10020C0051D2B1F1004F40EBC25008BF20F00100B9
:10021C0040EA03007047490040EB0000013A28BF58
:10022C00B0F5000FEDD2B0FA80FCACF1080CB2EBDB
:10023C000C0200FA0CF0AABF00EBC2505242184359
:10024C00BCBFD0401843704792F0000F81F40001FE
:10025C0006BF80F400000132013BB5E74FEA4103D1
:10026C007FEA226C18BF7FEA236C21D092EA030F3D
:10027C0004D092F0000F08BF0846704790EA010FB7
:10028C001CBF0020704712F07F4F04D1400028BFE4
:10029C0040F00040704712F100723CBF00F50000C6
:1002AC00704700F0004343F0FE4040F400007047FC
:1002BC007FEA226216BF08467FEA236301464202A8
:1002CC0006BF5FEA412390EA010F40F480007047BB
:1002DC004FF0000304E000BF10F0004348BF404261
:1002EC005FEA000C08BF704743F0964301464FF09D
:1002FC0000001CE050EA010208BF70474FF00003F9
:10030C000AE000BF50EA010208BF704711F0004339
:10031C0002D5404261EB41015FEA010C02BF844609
:10032C000146002043F0B64308BFA3F18053A3F568
:10033C000003BCFA8CF2083AA3EBC25310DB01FAAF
:10034C0002FC634400FA02FCC2F12002BCF1004F33
:10035C0020FA02F243EB020008BF20F001007047C4
:10036C0002F1200201FA02FCC2F1200250EA4C0018
:10037C0021FA02F243EB020008BF20EADC7070475E
:10038C004FF0FF0C1CEAD0521EBF1CEAD15392EA6C
:10039C000C0F93EA0C0F6FD01A4480EA010C400248
:1003AC0018BF5FEA41211ED04FF0006343EA5010A2
:1003BC0043EA5111A0FB01310CF00040B1F5000FE4
:1003CC003EBF490041EAD3715B0040EA010062F193
:1003DC007F02FD2A1DD8B3F1004F40EBC25008BF7D
:1003EC0020F00100704790F0000F0CF0004C08BF9B
:1003FC0049024CEA502040EA51207F3AC2BFD2F168
:10040C00FF0340EAC250704740F400004FF0000375
:10041C00013A5DDC12F1190FDCBF00F000407047AF
:10042C00C2F10002410021FA02F1C2F1200200FAED
:10043C0002FC5FEA310040F1000053EA4C0308BFB4
:10044C0020EADC70704792F0000F00F0004C02BF05
:10045C00400010F4000F013AF9D040EA0C0093F080
:10046C00000F01F0004C02BF490011F4000F013BDA
:10047C00F9D041EA0C018FE70CEAD15392EA0C0F48
:10048C0018BF93EA0C0F0AD030F0004C18BF31F0B3
:10049C00004CD8D180EA010000F00040704790F089
:1004AC00000F17BF90F0004F084691F0000F91F02D
:1004BC00004F14D092EA0C0F01D142020FD193EAF3
:1004CC000C0F03D14B0218BF084608D180EA01007B
:1004DC0000F0004040F0FE4040F40000704740F057
:1004EC00FE4040F4400070474FF0FF0C1CEAD05225
:1004FC001EBF1CEAD15392EA0C0F93EA0C0F69D081
:10050C00A2EB030280EA010C49024FEA402037D0EB
:10051C004FF0805343EA111143EA10130CF00040E2
:10052C008B4238BF5B0042F17D024FF4000C8B42D2
:10053C0024BF5B1A40EA0C00B3EB510F24BFA3EBB2
:10054C00510340EA5C00B3EB910F24BFA3EB910382
:10055C0040EA9C00B3EBD10F24BFA3EBD10340EADC
:10056C00DC001B0118BF5FEA1C1CE0D1FD2A3FF622
:10057C0050AF8B4240EBC25008BF20F001007047D7
:10058C000CF0004C4CEA50207F32C2BFD2F1FF037A
:10059C0040EAC250704740F400004FF00003013AAB
:1005AC0037E792F0000F00F0004C02BF400010F44F
:1005BC00000F013AF9D040EA0C0093F0000F01F063
:1005CC00004C02BF490011F4000F013BF9D041EA85
:1005DC000C0195E70CEAD15392EA0C0F08D14202B8
:1005EC007FF47DAF93EA0C0F7FF470AF084676E78B
:1005FC0093EA0C0F04D14B023FF44CAF08466EE764
:10060C0030F0004C18BF31F0004CCAD130F0004231
:10061C007FF45CAF31F000437FF43CAF5FE700BF89
:10062C004FF0FF3C06E000BF4FF0010C02E000BFB2
:10063C004FF0010C4DF804CD4FEA40024FEA410354
:10064C007FEA226C18BF7FEA236C11D001B052EA0A
:10065C00530C18BF90EA010F58BFB2EB030088BFD0
:10066C00C81738BF6FEAE17018BF40F0010070473F
:10067C007FEA226C02D15FEA402C05D17FEA236C21
:10068C00E4D15FEA412CE1D05DF8040B704700BF68
:10069C00844608466146FFE70FB5FFF7C9FF0028FF
:1006AC0048BF10F1000F0FBD4DF808EDFFF7F4FF38
:1006BC000CBF012000205DF808FB00BF4DF808EDD1
:1006CC00FFF7EAFF34BF012000205DF808FB00BFF4
:1006DC004DF808EDFFF7E0FF94BF012000205DF816
:1006EC0008FB00BF4DF808EDFFF7D2FF94BF0120C7
:1006FC0000205DF808FB00BF4DF808EDFFF7C8FFC0
:10070C0034BF012000205DF808FB00BF4FEA400217
:10071C004FEA41037FEA226C02D15FEA402C08D1F8
:10072C007FEA236C02D15FEA412C02D14FF000002A
:10073C0070474FF0010070474FEA4002B2F1FE4F94
:10074C000FD34FF09E03B3EB12620DD94FEA002387
:10075C0043F0004310F0004F23FA02F018BF404260
:10076C0070474FF00000704712F1610F01D1420247
:10077C0005D110F0004008BF6FF0004070474FF0FB
:10078C000000704742000ED2B2F1FE4F0BD34FF077
:10079C009E03B3EB126209D44FEA002343F00043EB
:1007AC0023FA02F070474FF00000704712F1610F0E
:1007BC0001D1420202D14FF0FF3070474FF00000E0
:1007CC00704700BF0022427082700122C270022268
:1007DC00B1FA81F10271032249090170427170472B
:1007EC0043788B421FD0012941700AD0022910D0C6
:1007FC00C1B90123C37002238170037103234371B8
:10080C007047037843B1012383700223C370002324
:10081C00F3E70378002BF6D0022383700023C37018
:10082C000123EAE7FEE770470B8882B0ADF8003091
:10083C004B880239ADF80230CB88ADF804300B8907
:10084C00ADF80630831C063013F8012B0DF1080CA3
:10085C000CEB420232F8082C834221F8022FF3D120
:10086C0002B070477F2807D0002807DA10F1800FFC
:10087C0006D04042C0B2704700207047012070473C
:10088C007F20704710B1404240B270477F207047C4
:10089C007F280FD010F1310F0EDA10F1780F0DDB2D
:1008AC0000F17803FE20584346232330B0FBF3F0CD
:1008BC00C0B27047FF207047FE2070470020704781
:1008CC00012805DD40F2FE73984203DC80B27047CC
:1008DC000120704740F2FF70704740F2AE73A0F5F4
:1008EC007870C0EBC02090FBF3F000F58060FFF750
:1008FC00E7BFFFF7F2BF032812DD0C2812DD0F282B
:10090C0012DD122812DD162812DD192812DD1C2822
:10091C0012DD1F2812DD2128CCBFFF2006207047D6
:10092C000020704701207047022070470820704754
:10093C00032070470720704704207047052070473C
:10094C00022807D0012807D040B1032814BFFF208C
:10095C006F207047132070471F207047012070478D
:10096C0002280AD0012805D030B1032814BFFF207B
:10097C000B20704703207047052070477F2808BF65
:10098C000020C0B270470000A0F16103192B0FD9F1
:10099C005F280DD02338C3B2162B97BF0548012012
:1009AC00D840C04398BF00F0010080F001007047B0
:1009BC000120704701EC7F00F8B5024600245F2748
:1009CC00451E461D15F8010FFF2804BF0134E4B283
:1009DC00FFF7DAFF00B92F70AE42F3D1062C04D129
:1009EC0019B10B6813608B88938000239371F8BD49
:1009FC002DE9F0470124002500274FF02809DFF8E6
:100A0C0034A000F1FF38461D18F8011F094811F0F9
:100A1C0012FC10B1A0EB0A00C0B2A0FB042309FB2E
:100A2C0005F3A4FB0945BF18B0451D44ECD138466D
:100A3C00BDE8F0871824010810B54179A1F1300008
:100A4C00C3B2092B07D80523B0FBF3F303EB8303E5
:100A5C00C01AC0B210BD044C204611F0ECFB0028AB
:100A6C00F1D0001BC0B2EEE71824010870B50446A3
:100A7C00FFF770FB002382B2561E98B2B04204EB13
:100A8C00000103DA255C0133302DF6D0121A013245
:100A9C002046BDE8704011F09DBB00002DE9F04FE1
:100AAC000C4699B0154600211A461E46074611F011
:100ABC00ABFB00212A2201A8009111F0A5FBDFF865
:100ACC00C480DFF8C490DFF8C4A004EB4505A54250
:100ADC0048D047F6FF7334F9020B984242D00028F5
:100AEC0012DC51460CA811F0B3FB6846FFF732FB41
:100AFC0083460CA8FFF72EFB83445E45E7D368467C
:100B0C000CA911F089FBE2E7B0F57A7F0BDA0CA99E
:100B1C0080B20FF0A0FD0CA8FFF7A8FF49460CA867
:100B2C0011F07AFBE1E764233230B0FBF3F00CA94F
:100B3C0080B20FF090FD0CA8FFF798FF0CA8FFF700
:100B4C0009FB18AA431E134413F8302C18A90844A7
:100B5C0000F8302C2E2203F8302C0023414600F8EC
:100B6C002F3CDCE76846FFF7F5FA20B118AB1844C8
:100B7C00002300F8613C6946384611F069FB19B056
:100B8C00BDE8F08F142401080F2401080A24010881
:100B9C0030B5002489B00231E5B2AA4205D931F84A
:100BAC0024502DF814500134F6E76946FFF776FF10
:100BBC0009B030BD42F21073B0FBF3F103FB11002E
:100BCC006423B0FBF3F203FB120000EB013000EBEB
:100BDC00821080B2704742F2107100F03F02030B9A
:100BEC0001FB03236422C0F3851002FB0030704725
:100BFC002DE9F04142F21075B1FBF5F6642705FBC7
:100C0C00161588B01A49044611F022FB6946304685
:100C1C000FF02FFD6846FFF729FFB5FBF7F6DFF85D
:100C2C0054806946204611F0F7FA4146204611F0EF
:100C3C00F3FA694630460FF01CFD6846FFF716FFC5
:100C4C006946204611F0E8FA4146204611F0E4FAD4
:100C5C00694607FB16500FF00CFD6846FFF706FFC0
:100C6C006946204611F0D8FA08B0BDE8F08100BF03
:100C7C0064320108B92D010870B50D4600210446F7
:100C8C00164611F0C1FA00239AB2964204D9EA5CD6
:100C9C0012B1E2540133F7E770BD70B50E4614463D
:100CAC0000210132054611F0AFFA00239AB29442AA
:100CBC0004D9F25C12B1EA540133F7E770BD30B5D8
:100CCC000023044698B290420ED2E55CC85C1DB974
:100CDC00B0FA80F0400930BD0028FCD0854203F109
:100CEC000103EFD00020F6E70120F4E77D234380D9
:100CFC0043F23903C360002309B201808180C380B1
:100D0C000372704703680449044A01FB032323F070
:100D1C0000430360180C7047FD430300C39E26007C
:100D2C00F0B5002397B004466A46562501608380CF
:100D3C00013D15F0FF0502F8013BF9D10126627D5A
:100D4C00AA424BD92046FFF7DDFFE779EC467B1B27
:100D5C0090FBF3F202FB130000221146C0B2CBB29F
:100D6C009F420AD91CF801EBBEF1000F03D182425D
:100D7C0004D00132D2B20131F1E700230022114636
:100D8C00277BD0B2874206D92069805C0132984219
:100D9C0008BF0121F5E70029D1D1A2796119033AE5
:100DAC00012A05D925B191F9152082B9012BC6D993
:100DBC008B75A26852F8231005F10E0244F822102C
:100DCC0016AA1344013503F8586CEDB2B7E7501E60
:100DDC008342EDDB01329342EADCB0E70023802151
:100DEC002375B834D8B2824203D904F8011B0133FD
:100DFC00F8E717B0F0BD2DE9F04796B001604371EC
:100E0C0004460271694656230020013B13F0FF0390
:100E1C0001F8010BF9D1013AD5B2022D98BF4FF070
:100E2C0003094FF0000794F807808ABF1D46B8FBF2
:100E3C00F9F84FF001093E464FF0010A627DB242CB
:100E4C004ED92046FFF75EFFA8EB060390FBF3F2AA
:100E5C0002FB13000022EC461146C0B2CBB29845FF
:100E6C000AD91CF801EBBEF1000F03D1824203D06A
:100E7C000132D2B20131F1E70020434528BF43468D
:100E8C00844609FB035194F80CE0C9B2C2B29645F2
:100E9C0007D92269125C01308A4208BF4FF0010C5D
:100EAC00F4E7BCF1000FC9D116B197B9012BC5D924
:100EBC00A2199175A2681F4652F8211006F10E0274
:100ECC0044F8221016AA1A44013602F858ACF6B2AD
:100EDC00B4E77A1E9342EBDB7A1C9342E8DCADE775
:100EEC00002380212375B834D8B2824203D904F888
:100EFC00011B0133F8E716B0BDE8F0870023C0E909
:100F0C00013370470A2310B50446838004F058F867
:100F1C002368E0809B6820469847A06010BD8368DA
:100F2C0070B5002B04461ADD838843B1013B9BB29C
:100F3C008380A3B903681B68BDE870401847036839
:100F4C009B689847054604F03BF8E388C01A281ABA
:100F5C000028A06003DD236820465B68ECE770BDC9
:100F6C00C0F17F0080B27F281CD8C1F13F0189B24B
:100F7C003F2917D830B40125CC080B4B00EBC4101B
:100F8C0080B21844DD8301F0070190F8283005FA8F
:100F9C0001F1D2074CBF194323EA010180F8281054
:100FAC0030BC7047704700BF003300207F2819D831
:100FBC003F2917D830B40125CC080B4B00EBC410DB
:100FCC0080B21844DD8301F0070190F8283005FA4F
:100FDC0001F1D2074CBF194323EA010180F8281014
:100FEC0030BC7047704700BF0033002030B47F29FD
:100FFC0082B001911BD8C0F13F0080B23F2816D8B7
:10100C000B460125C4080B4903EBC4139BB20B44DC
:10101C0012F0010F00F0070093F8282005FA00F0F9
:10102C0014BF104322EA0000CD8383F8280002B0DD
:10103C0030BC704700330020C1F17F0189B27F2999
:10104C0019D83F2817D830B40125C4080A4B01EB36
:10105C00C41189B21944DD8300F0070091F82830DF
:10106C0005FA00F0D2074CBF184323EA000081F8C0
:10107C00280030BC704770470033002010B5124C6C
:10108C0082B0E38B4BB123884BB100236188A288DB
:10109C00E3846384E3832184A28402B010BD0B49F2
:1010AC00062203C90090ADF804101846694602F0F8
:1010BC00CDF94FF48062402004F1280102F0DCF9F4
:1010CC000028E2D0E9E700BF00330020DC23010850
:1010DC0008B502F0E3F9023818BF012008BD00BFC3
:1010EC00144B10B4D880032816D8DFE800F0152074
:1010FC000218114A9A6040248020104AC3F802203A
:10110C00002118849C844FF480620D4810BCD98453
:10111C005984D98311F078B80A4A9A60EBE70A4AE5
:10112C009A600A4A80244020C3F80220E8E7084A63
:10113C009A60F6E7003300206D0F00088000400035
:10114C0028330020B90F0008F90F00084000800078
:10115C0045100008144B10B4B3F92000598800282E
:10116C00C8BF002001F1FF31C8BF1884B3F92400B7
:10117C0009B28842C8BF9984B3F92210012400290E
:10118C00B8BF00219A88B8BF5984013AB3F9261028
:10119C0012B29142B8BFDA84DC834FF48062002132
:1011AC00024810BC11F030B8003300202833002066
:1011BC00024B80B29B6889B2184700BF00330020F5
:1011CC00002A2DE9F8431E4611DB0ED084B22244CE
:1011DC00114F1FFA82F88DB220460134324629464F
:1011EC00BB68A4B298474445F6D1BDE8F883002506
:1011FC00094FC2F1000884B21FFA81F9ADB2601B2D
:10120C00013532464946BB6880B22DB298474545F8
:10121C00F4DBBDE8F88300BF00330020002A2DE981
:10122C00F8431E4611DB0ED08CB22244114F1FFA2C
:10123C0082F885B22146013432462846BB68A4B2F6
:10124C0098474445F6D1BDE8F8830025094FC2F113
:10125C0000088CB21FFA80F9ADB2611B0135324621
:10126C004846BB6889B22DB298474545F4DBBDE8CA
:10127C00F88300BF003300202DE9F04F002B83B022
:10128C00B4BF03F1010803F1FF38002A8246BDF810
:10129C00306000931FFA88F84ADB95B205F1FF30F5
:1012AC0083B2019300F09C801FFA8AF9CB464D441F
:1012BC004C4F8CB2ADB258460BF1010B3246214665
:1012CC00BB681FFA8BFB98475D45F4D1A0441FFA0D
:1012DC0088F8484609F1010932464146BB681FFAB5
:1012EC0089F998474D45F4D1009B002B50DB1CD05D
:1012FC00254623443B4F1FFA83F81FFA8AFA2946E6
:10130C00013532465046BB68ADB29847A845F6D178
:10131C00019B9A441FFA8AFA214601343246504600
:10132C00BB68A4B29847A045F6D103B0BDE8F08FD6
:10133C004FF0000B501C83B22A4F8CB201935542D4
:10134C001FFA8AF91FFA8BFBA9EB0B000BF1010BAF
:10135C0032462146BB6880B20FFA8BFB98475D453D
:10136C00F0DC4FF0000BA0441FFA88F81FFA8BFB3F
:10137C00A9EB0B000BF1010B32464146BB6880B266
:10138C000FFA8BFB98475D45F0DC009B002BAEDA27
:10139C001A460023134FC2F100091FFA8AFA9DB2B4
:1013AC00611BBB683246504689B298476B1C1BB216
:1013BC004B45F4DB019B53441FFA83FA00231FFABD
:1013CC0083F8A4EB080132465046BD6889B2A847A1
:1013DC0008F101031BB24B45F1DB03B0BDE8F08F04
:1013EC008CB281E7003300202DE9F04F002B83B045
:1013FC000B440C469046BDF830B0019336DB994255
:10140C001ADA87B2BB189BB20093B8F1000F16DB47
:10141C000DD03D46344E1FFA84FA2846B3685A461E
:10142C00514698470135009BADB2AB42F5D1019BBB
:10143C00013424B29C42E8DB03B0BDE8F08F0025F8
:10144C00294EC8F1000A1FFA84F9ADB2781B013598
:10145C005A464946B36880B22DB298475545F4DBDD
:10146C00019B013424B29C42CFDBE5E78B42E3DAEB
:10147C0087B2BD18ABB2B8F1000F009318DB0FD0D8
:10148C00B946194E1FFA84FA4846B3685A46514673
:10149C00984709F10109009B1FFA89F94B45F3D1D3
:1014AC00019B013C24B29C42C6DDB8F1000FE6DA88
:1014BC004FF0000A0C4EC8F10009A5B21FFA8AFAC7
:1014CC00A7EB0A000AF1010A5A462946B36880B212
:1014DC000FFA8AFA9847CA45F0DB019B013C24B20B
:1014EC009C42E2DCA8E700BF003300200122014B44
:1014FC009A837047003300200022014B9A83704777
:10150C0000330020014B9861704700BF003300206E
:10151C000022014B9A617047003300200122014BDD
:10152C009A827047003300200022014B9A82704748
:10153C0000330020014B9881704700BF003300201E
:10154C00014BD881704700BF00330020014B9881BC
:10155C00D9817047003300200A282DE9F84F52D06A
:10156C001F2840D9DFF808A12038BAF90CB0BAF816
:10157C0002300BF106029A42C0B236DA1FFA8BFB2C
:10158C000BF10603BAF80E601AB2BAF81C10A6F1E9
:10159C000608AAF80C201FFA88F800293DD0334F12
:1015AC0000EB4000023607EB4000B6B21FFA83F99D
:1015BC00471EBAF9143017F8015F0BB1ED43EDB2C9
:1015CC004446214601342A465846DAF80830A4B27B
:1015DC009847A6424FEA5505F3D10BF1010B1FFAC0
:1015EC008BFBCB45E5D1BDE8F88F0622BAF80E602F
:1015FC00BAF810104FF0000B0E440836B6B2134672
:10160C00AAF80E60C1E70020194AD389118A90818B
:10161C000B440833D381BDE8F88F144A00EB40002B
:10162C00023602EB40021FFA86F99FB2561EBAF937
:10163C00143016F8015F0BB1ED43EDB2444615F0D2
:10164C00010F4FEA550505D0012221465846DAF81C
:10165C00083098470134A4B24C45F0D10BF1010B82
:10166C001FFA8BFB5F45E2D1BDE8F88F48240108D7
:10167C00003300202DE9F04FDFF8A4810A28D8F8B8
:10168C00183087B09A7A00F084801D7AA8427DD3F6
:10169C00597A81427AD35F68451B07EBC50494F8ED
:1016AC0002C094F905A026791B68B8F90CB0B8F8FB
:1016BC0012E0B8F8020076440BEB0A0102931FFA11
:1016CC008CF361440493B3B2E67894F906408142FA
:1016DC0003946CDC1FFA8BFB0BEB0300B8F91410B2
:1016EC0080B2B8F90E40A8F80C00002971D1B8F8F6
:1016FC001C20012A00F08180B1FA81F937F835708D
:10170C004FEA5919002E41D0049800283ED0BDF85C
:10171C000C1000258B190646A4B223440BEB0A02CD
:10172C009BB20C44059393B21FFA84FA0393049B67
:10173C00F41A039BA4B203F1FF3B234613F0070FEB
:10174C0008BF029A04F1010404BFD55D7B1CA4B24E
:10175C0004EB0B0008BF9FB22B0680B204D54A469F
:10176C005146D8F8083098476D00B442ADB2E4D178
:10177C00049B039A1E44D31A9BB20AF101010393F2
:10178C00059B1FFA81FA9A45B6B2D0D107B0BDE8D5
:10179C00F08F0020B8F80E30B8F81010A8F80C0034
:1017AC000B441A44A8F80E2007B0BDE8F08F184679
:1017BC00B8F80E40B8F810104FF0000B0C4422444F
:1017CC00B8F9141014B2A8F80E40A8F80C000029AF
:1017DC008DD04FF0010C039A0AF1FF30511E0233E9
:1017EC00214458441AB209B200B2CDF800C0B31C5F
:1017FC00FFF7FAFDB8F914107EE7039A0AF1FF30EF
:10180C0002F1FF3C0233A44458441AB2009100B2D6
:10181C000FFA8CF1B31CFFF7E7FDB8F914106BE766
:10182C0000330020034B9B690BB1FFF723BFFFF77D
:10183C0093BE00BF0033002038B50446007840B199
:10184C00084DAB6933B1FFF715FF14F8010F0028F1
:10185C00F7D138BDFFF780FE14F8010F0028F0D146
:10186C0038BD00BF00330020F8B5204E0446B569E2
:10187C00002D31D003782F7A95F809C0002B32D087
:10188C0001460022B6F812E09F4209D89C4507D3C6
:10189C006868DB1B00EBC3031B7972441A4492B2D9
:1018AC0011F8013F002BEFD173889A1A02EBD27218
:1018BC005210B281207870B13DB1FFF7DBFE14F805
:1018CC00010F40B1B569002DF7D1FFF745FE14F8B3
:1018DC00010F0028F6D1F8BDFEF73CFC00EB4002EE
:1018EC00520092B2E0E71A46DEE700BF0033002058
:1018FC0030B5314C054683B02080002839D04FF4E8
:10190C0080320023E261B4F92020E3809A42C8BF00
:10191C002384A3612361A382B4F924304FF4C02142
:10192C007F2BC4BF7F23A384B4F922302348002B20
:10193C00BCBF00236384B4F92630E1603E2BD8BFD2
:10194C003F231F49C4F80200A1604FF480624FF09E
:10195C0000011C48D8BFE38410F056FC9DB1402216
:10196C00802100232184A284E3846384E38303B075
:10197C0030BD3C2001F064FD28461F22124901F0C5
:10198C0065FD2588BBE7114B062293E80300009008
:10199C00ADF804102846694601F058FD4FF48062FA
:1019AC004020084901F068FD0028E0D1B4F902108C
:1019BC00B4F90420D5E700BF0033002080004000BC
:1019CC00B90F00082833002088260108DC23010801
:1019DC000823484010F0800F4FEA400018BF5040D9
:1019EC00013BC0B2F6D1704770B50C461D468E183F
:1019FC00B44205D02A4614F8011BFFF7E9FFF7E7BC
:101A0C0070BD000010B50446022980EAE070A0EB1E
:101A1C00E47068D15AB9002CACBF7F233F239842A5
:101A2C00A8BF1846002C01DA40F0400010BD012A76
:101A3C001AD1632805DC4000002CF7DA40F48070E2
:101A4C00F4E740F2F54398420CDCFEF741FC5749B1
:101A5C00FEF796FC0FF00CFAFEF794FE400040F0F7
:101A6C000100E9E7FF20E7E7022A40F09C806328A9
:101A7C0005DC8000002CD9DA40F40070D6E7B0F514
:101A8C007A7F0CDAFEF724FC4849FEF779FC0FF05C
:101A9C00EFF9FEF777FE800040F00100EAE742F232
:101AAC000F7398420CD8FEF713FC4149FEF768FC03
:101ABC000FF0DEF9FEF766FE800040F00200D9E779
:101ACC003C4B98420CD8FEF703FC3B49FEF758FC04
:101ADC000FF0CEF9FEF756FE800040F00300C9E788
:101AEC0040F2FF10C6E703295DD1012A1BD1B0F5E6
:101AFC007A7F05DA4000002C98DA40F4006095E714
:101B0C00B0F5205F0CDAFEF7E3FB2849FEF738FC52
:101B1C000FF0AEF9FEF736FE400040F00100EAE7A8
:101B2C0040F2FF70E7E7022A3DD1B0F57A7F06DA82
:101B3C008000002CBFF67AAF40F4805076E742F27A
:101B4C000F7398420CDCFEF7C3FB1849FEF718FC28
:101B5C000FF08EF9FEF716FE800040F00100E8E76A
:101B6C00164B98420CD8FEF7B3FB1149FEF708FC54
:101B7C000FF07EF9FEF706FE800040F00200D8E779
:101B8C00B0F57A2F0CD2FEF7A3FB0B49FEF7F8FB4E
:101B9C000FF06EF9FEF7F6FD800040F00300C8E789
:101BAC0040F6FF70C5E7002040E700BFCDCCCC3D30
:101BBC000AD7233C17F001006F12833A9F8601006D
:101BCC000023036070470000092928BF092138B59C
:101BDC00064B04461B780D468B4202D10023036052
:101BEC0038BD03F0C5F825712060F9E7CC00002062
:101BFC00036810B504460BB9002010BD03F0B8F80B
:101C0C002368C01A40F2EE239842F5D90023054A06
:101C1C002360127823799A42EED0034A0120D377BD
:101C2C00EBE700BFCC00002004010020FF23437130
:101C3C0000230171837103818372704738B5037976
:101C4C0004460D465BB14179A94208D041B1012946
:101C5C000AD000236571A37155B1012D0FD038BD89
:101C6C0003689B689847F4E7036800219B68F9E7D1
:101C7C00012123689B6820469847A071EFE72368F1
:101C8C0029469B68F7E72DE9F04F077CC37BBF0023
:101C9C000C4647EA931703F03F01437C857C03F025
:101CAC000102C67C47EA822705F00F02D20142EA04
:101CBC00530206F07F031B0143EA1513057D90F8D0
:101CCC0015E06D0089B045EAD6150EF003060593B4
:101CDC0045EA4623867D009306F01F05AD0145EAD3
:101CEC009E03C57D90F819E0ED00019345EA56136B
:101CFC00057E0EF00706029345EA0623857E0393C4
:101D0C0005F03F06760146EADE03C67E90F81CE03D
:101D1C00B60046EA95160EF0010546EA8526457F83
:101D2C0090F8208005F00F0B4FEACB1B4BEA5E0BB3
:101D3C0090F81EE090F80EC00EF07F0A4FEA0A1AD7
:101D4C004AEA151AC57F49016D0045EADE1508F00F
:101D5C00030E45EA4E2590F821E041EADC010EF035
:101D6C001F094FEA891949EA980990F82280407BAB
:101D7C000CF0070C40EA0C204FEAC80848EA5E1841
:101D8C00049306920791FEF7A8FD07992080084658
:101D9C00FEF7A3FD60803846FEF79FFD069AA080F3
:101DAC001046FEF79AFD059BE0801846FEF795FD60
:101DBC0020810098FEF791FD60810198FEF78DFD62
:101DCC00A0810298FEF789FDE0810398FEF785FD5E
:101DDC0020820498FEF781FD60823046FEF77DFD7F
:101DEC00A0825846FEF779FDE0825046FEF775FD5D
:101DFC0020832846FEF771FD60834846FEF76DFD93
:101E0C00A0834046FEF769FD4FF48063E083238492
:101E1C00638409B0BDE8F08F2DE9F04104460F460C
:101E2C0003F0CEF84FF001080546236820461B68E6
:101E3C0098470646F0B1236820465B689847A37A1A
:101E4C00A3B90F2814D1A4F80A80E37AE21801335D
:101E5C00DBB2182B1073E3720AD939462046FFF710
:101E6C0012FF0023A3723046BDE8F081012BECD0A9
:101E7C002581DAE7A37A012BF5D140F6C41320892A
:101E8C002D1A9D42C8BFA672EDE7827922B1437923
:101E9C00012B01D8FFF7C0BF002070477047704777
:101EAC007047704700207047002070477047002033
:101EBC0070470000054B82B0DA690243DA61DB69D6
:101ECC0018400190019B02B0704700BF0010024007
:101EDC00054B82B09A6902439A619B691840019044
:101EEC00019B02B0704700BF0010024000F10C03D0
:101EFC0053E8003F43F0200300F10C0141E80032AD
:101F0C00002AF3D1704700F10C0353E8003F43F073
:101F1C00800300F10C0141E80032002AF3D1704734
:101F2C0000F10C0353E8003F23F0200300F10C01F7
:101F3C0041E80032002AF3D1704700F10C0353E85A
:101F4C00003F23F0400300F10C0141E80032002A6D
:101F5C00F3D1704700F10C0353E8003F23F08003EA
:101F6C0000F10C0141E80032002AF3D170477047B0
:101F7C000288514081EA0111C9B2CB0083EA0123E6
:101F8C0083EA122383EA11110180704738B50C469D
:101F9C008D18AC4204D014F8011BFFF7E9FFF8E7E9
:101FAC0038BD4FF6FF7337B50446ADF8063045180B
:101FBC00AC4206D014F8011B0DF10600FFF7D8FF58
:101FCC00F6E7BDF8060003B030BD30B504465088C6
:101FDC00B0F58C7F0FD300201070D81CC0B2012834
:101FEC0095BF01200023508053809CBF0B70107054
:101FFC000020207030BD1578022D20D00FD8002D78
:10200C00EBD0451C55800B5409789BB2FD290FD1A0
:10201C000C330A21D380022391801370E8E70E2D34
:10202C0018D00020107050809080D0802070E1E794
:10203C0008330621D3800E2391801370D8E7451CFA
:10204C0055800B54DB0742BFD3880D33D3800E234E
:10205C001370CDE7451C55800B545388D1888B42A7
:10206C0006D3002302205380137020706180C1E7D7
:10207C0092889A42BCD801202070BBE72DE9F74F1B
:10208C000B780546FD2B0C4657D14B7903728B7997
:10209C0043724B7A0A7A1B0403EB0223CA7913446A
:1020AC0043604B7803F10C0242808A78D00701D54B
:1020BC0019336B803B48002640F265120C27804692
:1020CC0069686E81B31801335B0807FB03FC50F899
:1020DC000CC061453BD25A1EB242F3D80C27774351
:1020EC0058F80730994235D123782046FD2B0CBF88
:1020FC004FF00A094FF0060910F801BF4744CB44D2
:10210C000BF1FF3189B2FFF74CFF97F804A0ADF843
:10211C00060051460DF10600FFF72AFF04EB0B03F6
:10212C005A7814F80B3003EB0223BDF806209BB24F
:10213C009A4214D0052028700EE0CB7803720B79EC
:10214C0043724B7943604B7808334380B2E71E46A9
:10215C00C4D9C1E70320287003B0BDE8F08FBA7969
:10216C00D10707D5FB796178994282BF1B1913F807
:10217C000930AB7293070AD50C2303FB0683197A3B
:10218C0063788B4282BF641814F80930EB720C230D
:10219C00022003FB0686737985F80CA06B732870FC
:1021AC00DAE700BFD03D0108D0E90113CA1A642355
:1021BC00C2605343034A528D8160B3FBF2F3037444
:1021CC00704700BFCC000020D0E90123D31AC0E92E
:1021DC0002237047044B1888044B80B21B889BB2B7
:1021EC00C01A18BF01207047E22C0020E02C002000
:1021FC000023044A1380044A1380044A1380044ABF
:10220C0013807047E02C0020E22C0020E42E0020EC
:10221C00E62E002070470023A0F87032A0F86E3232
:10222C0070470023A0F85C32A0F85A3270470000C7
:10223C004FF080435A6A037A92B263B18389D31AFE
:10224C009BB2B3F5FA7F84BF00230372837A4F2BC2
:10225C0084BF00230372037A8281082B32D8DFE813
:10226C0003F00531313131310F182400EE2901D042
:10227C00C82927D101238372062341750372704745
:10228C00837A5A1C03448272597507234172037274
:10229C007047827A531CDBB2024483725175427AC6
:1022AC009A420FD2082303727047837A5A1C034454
:1022BC0082725975C37D162B05D1012380F86530C8
:1022CC000923037270474369094A03F0FF239342C1
:1022DC004FF0010309D1428BB2F5A26F05D180F802
:1022EC006730037F80F86830EAE780F86630E7E70C
:1022FC0000C80032044B1888044B80B21B889BB278
:10230C00C01A18BF01207047EA300020E8300020C6
:10231C0070470000044B1B78022B06BF034B93F84D
:10232C0072000020704700BF41040020C002002052
:10233C00B0F8682010B5B0F86C40531C2340B0F8CE
:10234C006A409C421EBF121882F86E10A0F86830CA
:10235C0010BDA0F11400EBE7B0F87032B0F86E22AB
:10236C00D21A93B2120441BFB0F8720201301B189A
:10237C009BB2181E18BF01207047A0F11400EBE7A8
:10238C000346B0F87022B0F86E1291421FBF81184C
:10239C0091F87402B3F8721201321ABF0A40A3F812
:1023AC00702200207047A0F11400E9E770B54A785C
:1023BC000446082A0D4601F10C060BD831460FF0E5
:1023CC00FBFE68780021C0F109022044BDE8704092
:1023DC000FF01ABF03467168306803C3327A1A7063
:1023EC0070BD2DE9F04113781546037092F8018009
:1023FC00FD2B04460F46826880F8018051D10A26D5
:10240C00AB788370EB78C3702B7903716B79437164
:10241C00AB7983716B7A297A1B0403EB0123E9797D
:10242C000B4463F3170282604246A91904F10C00B5
:10243C000FF0C2FE7A7B904507D208F10C00002108
:10244C00A2EB080220440FF0DFFE63781E44AB19A8
:10245C005A78AB5D03EB0223A4F80C31A378DB07AD
:10246C000ED50236B6B2354404F5887305F10C026C
:10247C0055F8041B954243F8041BF9D12A781A70BD
:10248C00BB7A84F82131FB7A84F822313B7B84F8C7
:10249C0023317B7B84F824313B7884F82031BDE8F0
:1024AC00F08100234380AB7806260371EB784371EF
:1024BC002B798371697961F317028260B4E770B587
:1024CC000B78054603704B780C4643700B78FD2B4C
:1024DC0038D10A268B788370CB78C3700B79037153
:1024EC004B7943718B7983718B68C3718B68C3F3A0
:1024FC000F2303728B7A4372627804F10C01A819D2
:10250C000FF05AFE6378B4F80C213344EA54B4F853
:10251C000C115A1C92B20912A954A278981CD20719
:10252C0080B20ED504F58872054404F58E7452F809
:10253C00041BA24245F8041BF9D112780F332A7000
:10254C0098B270BD00238B700B79062683704B7983
:10255C00C3708B7903718B684371CDE70368DB68BB
:10256C00184700006FF02003024803604368FFF730
:10257C00BDBC00BF0044004008B5FFF7F3FF0022CC
:10258C00014B1A7208BD00BFD014002008B5FFF72C
:10259C00E9FF0022014B1A7208BD00BF480400205D
:1025AC006FF02003024803604368FFF79FBC00BF35
:1025BC0000480040064B1B78022B06D1054B93F8C4
:1025CC004C00012838BF012070470020704700BF25
:1025DC00410400201021002032220C4B10B41B6847
:1025EC000B4C0C49A4FB03439B0C02FB03F20A4B60
:1025FC0002F5FA72A3FB0232084649689209436855
:10260C005B1A9A42FBD810BC704700BF3C000020FC
:10261C0083DE1B43001000E0D34D621008B5FFF7BA
:10262C00DBFF1022014B1A6108BD00BF00080140FE
:10263C001022024B5A61FFF7CFBF00BF00080140C8
:10264C00704738B504464D1E15F8011F21B123689B
:10265C002046DB689847F7E738BD0120FFF738BC08
:10266C000F4B984202D10420FFF732BC0D4B98421D
:10267C0006D003F58063984205D11020FFF728BCE3
:10268C000820FFF725BC084B984202D12020FFF709
:10269C001FBC064B984200D070474020FFF718BC77
:1026AC0000080140000C01400014014000180140DA
:1026BC000C4B984203D14FF40060FFF709BCB0F10A
:1026CC00804F05D0084B984205D10220FFF7F2BB92
:1026DC000120FFF7EFBB054B984202D10420FFF716
:1026EC00E9BB7047002C014000040040000800408A
:1026FC00074B984203D14FF40070FFF7E9BB054B31
:10270C00984203D14FF48060FFF7E2BB704700BFE3
:10271C0000240140002801402DE9F0410C461546EB
:10272C0086B007461022002102A81E469DF8348070
:10273C000FF06AFD01940B2D07D8DFE805F00707B1
:10274C000F141919191E1E1E2328FEE700230293CD
:10275C00032E21D8DFE806F021313421082302931F
:10276C0000230593F4E70823029301230593EFE775
:10277C000123029300230493EAE701230293042329
:10278C000493E5E70923029300230493E0E709236C
:10279C00029304230493DBE7FEE703230393B8F1CE
:1027AC00000F02D03846FFF75BFF053D042D0DD816
:1027BC00DFE805F009130C09130002230393EEE77D
:1027CC0001230393EBE7C4F30F247C61384601A982
:1027DC000DF08AFB06B0BDE8F081C4F30F243C6118
:1027EC00F4E713B54FF0010C0024CDE9004CFFF7D2
:1027FC0093FF02B010BD13B50124CDE900349DF850
:10280C001030FFF789FF02B010BD000070B5044610
:10281C00164686B00D461422002101A80FF0F4FCD8
:10282C002046FFF745FF042E04D8DFE806F02A31D6
:10283C0004384200FEE7204B204A1B68B3FBF2F33E
:10284C009BB20022013B204601A9ADF80430CDE932
:10285C000225049205920DF07FFC236823F080037F
:10286C002360A36823F4804323F00703A360636809
:10287C0023F070036360A36823F08003A36006B0A9
:10288C0070BD0D4B0E4A1B68B3FBF2F39BB2D8E73D
:10289C00094B0C4A1B68B3FBF2F39BB2D1E7064B16
:1028AC00074A1B68B3FBF2F303EB83035B009BB299
:1028BC00C7E70123C5E700BF3C00002080A8120138
:1028CC0040420F0000127A0010B50446FFF79EFF3D
:1028DC00236843F00103236010BD00224FF0FF3149
:1028EC00FFF7F2BF194B10B51B68194C23600BF0A6
:1028FC0035FA18480DF0A8FA17480DF0A5FA174844
:10290C000DF0A2FA16480DF027FD16480DF024FD27
:10291C000DF06EFB0023144A13605360936072B683
:10292C004FF0FF319A0002F16042013302F561422F
:10293C00082BC2F88010C2F88011F3D162B60B4B91
:10294C001B6883F3088823689847FEE704F0FF1F91
:10295C005403002000080140000C0140001001400D
:10296C00003801400044004010E000E000F0FF1F80
:10297C0030B50546002489B01422002103A80FF0BD
:10298C0043FC01A92846CDE901440DF025FA69461E
:10299C00084800940DF002FA4FF46023CDE903349B
:1029AC000223284603A9CDE9063405940DF029FA33
:1029BC0009B030BD00240140F0B405464FF440741A
:1029CC00184605F12C0601F4407394FAA4F4B4FAF9
:1029DC0084F41F27E34056F8234001F01F018F4079
:1029EC0024EA070402F01F0707FA01F1214346F815
:1029FC0023104FF0007105F10C0302F0007691FAF0
:102A0C00A1F1B1FA81F1CE4053F826704FF0F87174
:102A1C0002F0F87291FAA1F1B1FA81F1072422FACD
:102A2C0001F104FA01F14FF0F87527EA010795FA64
:102A3C00A5F5B5FA85F5EA4004FA02F1394343F8F5
:102A4C002610012204990023F0BCFFF7CABE08B57A
:102A5C000146FFF702FEBDE808400846FFF748BEF6
:102A6C00064A074B9B1AEFF30882AA21013A9342BC
:102A7C0002D203F8011BFAE7704700BF0004000004
:102A8C000050002010B5114C03232046062210499B
:102A9C00FFF7A7FE2046032302220E49FFF7A1FEF3
:102AAC00032320461A460C49FFF79BFE20460323BE
:102ABC00052240F20221FFF794FE2046BDE81040AB
:102ACC000323052240F20111FFF78BBE00080140E1
:102ADC00010001040800080410001004024B98685F
:102AEC00C0F30030704700BF0008014008B5FFF785
:102AFC00F5FF08B100BFFAE708BD00000122024B48
:102B0C005A6102221A617047000801400222024BEE
:102B1C005A6101221A61704700080140104A4FF4B3
:102B2C007041136923F4704391FAA1F113610D4BB9
:102B3C005A6822F400625A601A6822F400621A6021
:102B4C00DA6822F40062DA609A6842F400629A60F1
:102B5C00D022054B83F828234FF480725A607047BB
:102B6C00000001400004014000E100E04FF400626D
:102B7C00034B5A611A6842F400621A60704700BF36
:102B8C000004014010B50A4C0023052220460949D7
:102B9C00FFF727FE0023052220460749FFF721FEF9
:102BAC004FF4004363614FF48043636110BD00BF79
:102BBC000010014080008004400040040549CB68AF
:102BCC001A04DB4302F0004203F4004313430B618D
:102BDC00704700BF001001400549CB681A04DB4365
:102BEC0002F0804203F4804313430B61704700BF33
:102BFC00001001400F4BDB6C9BB2A3F2CF62C62AD4
:102C0C0010D9A3F6EB22C62A0ED9A3F61C12C62A9B
:102C1C000CD9A3F63D22C62A0AD9C82B34BF1020E2
:102C2C000020704701207047022070470420704735
:102C3C00082070470024014010B5054C00230522E4
:102C4C0020460449FFF7CDFD4FF40053636110BDDE
:102C5C0000100140200020044FF40052024B1628B3
:102C6C00CCBF1A615A617047001001400A4BDA68F8
:102C7C0022F08072DA60DA6842F08072DA60074B18
:102C8C001A6822F001021A601A6842F001021A60F6
:102C9C0000225A60704700BFF0ED00E0001000E029
:102CAC00064A10B51268064C064BB2FBF4F25043C0
:102CBC0059685A68521A8242FBD310BD3C0000205E
:102CCC0040420F00001000E010B504466420FFF7EE
:102CDC00E7FFA36843F00403A360A3685B07FCD47D
:102CEC0010BD826842F001028260FFF7EDBF000068
:102CFC0013B50E4C2046FFF7AAFE2046FFF738FE10
:102D0C0040F201134FF40071094A20460093094B1D
:102D1C00FFF752FE2046FFF7E4FF6420FFF7C0FFE9
:102D2C00A36843F4A003A36002B010BD00240140CB
:102D3C0008008003000C01402DE9F84381464CF259
:102D4C0050300E4617461D460BF040FA88BBB9F1C1
:102D5C00010F06D0B9F1020F0CBF4FF002094FF072
:102D6C0004094FF00008144A136943F0010313617E
:102D7C004FEA0814C4F12002A4F1200305FA02F270
:102D8C0027FA04F4144325FA03F31C43A4B24CF2BF
:102D9C00503026F818400BF019FA28B908F1010840
:102DAC005FFA88F34B45E3D3034A136923F001031D
:102DBC001361BDE8F88300BF002002407FB50123FA
:102DCC000022CDE9040301A902A8CDE902230BF0EE
:102DDC004BFA00280CBF0420052007B05DF804FB5B
:102DEC000A4608B5014600230220FFF7A5FF00287C
:102DFC000CBF0420052008BD08B5FFF7DFFF031F3B
:102E0C005842584108BD08B5FFF7EAFF031F584266
:102E1C00584108BD2DE9F047254B264D01280FBF21
:102E2C007D267C26AA461D460F4614462249234A77
:102E3C0006BF89469A4691460BF0ACF931462846B6
:102E4C00FFF7DAFF10B3002F08BF4FF478744FF080
:102E5C0000080334A40805F11006AAEB050A1FFAB2
:102E6C0088F39C4218D93FB95AF806104B1C06D16E
:102E7C0008F101080436F2E757F82810F6E74E453A
:102E8C0013D23046FFF7BFFF0028F1D100240BF01E
:102E9C0093F92046BDE8F0874FF011312846FFF733
:102EAC00B2FF0028F2D00424F1E70324EFE700BFBF
:102EBC0000F0010800F40108FFF70108FFF3010816
:102ECC0010B50BF067F97C210748FFF795FF20B18F
:102EDC007D210648FFF790FF20B900240BF06CF918
:102EEC00204610BD0424F9E700F0010800F40108A5
:102EFC00002330B5074A084D9CB2A14206D99C1854
:102F0C00AC4205D09C5CC4540133F5E7042030BDC1
:102F1C000320FCE710F00108FFF3010838B5044664
:102F2C000D4672B60A4601460020FFF773FF62B6E3
:102F3C00042806D172B601202A462146FFF76AFF03
:102F4C0062B638BD38B5134B1C68D3F80054B4F1D5
:102F5C00113F09D1B5F1113F1AD0BDE8384000221C
:102F6C0001201146FFF756BFB5F1113F06D1BDE860
:102F7C003840002211461046FFF74CBFFFF7A0FF68
:102F8C00042804D12C4001340CBF0220012038BD90
:102F9C000420FCE700F00108034B18739A68D20771
:102FAC00FCD5187B704700BF0030014010B5087885
:102FBC001446FFF7F1FF207010BD000070B503251B
:102FCC0010268CB0254C2822002102A80FF01CF9E9
:102FDC00FFF743FB4FF48050FEF77AFF20460323A4
:102FEC00062241F21001FFF7FCFB20462661062366
:102FFC000A2242F220010095FFF7FDFB2046062332
:10300C000A2248F280010095FFF7F5FB20460623C3
:10301C002A4644F240010095FFF7EDFB00234FF4E4
:10302C008272CDE90533CDE90933029303920493FF
:10303C004FF40072072304F52054204602A90B9389
:10304C00089607920DF05CF8236843F04003236068
:10305C00A3689B07FCD5237B0CB070BD0008014016
:10306C001C4B10B41A68940611D5D96888060ED575
:10307C00194C1A485968238800880133C3F30A0392
:10308C0080B298421FBF1648C9B2C15423801107A1
:10309C0044BF104B5B68120616D50E48C3681B065E
:1030AC0012D5104B104A1988138889B29BB29942D9
:1030BC000CD013880133C3F30803138013880B4A15
:1030CC009BB2D35CDBB2436010BC704710BCFEF704
:1030DC0041BF00BF00380140E22C0020E02C002052
:1030EC00E0240020E62E0020E42E0020E42C00201A
:1030FC000A490B4A08B50B8812880133C3F308033D
:10310C0092B29A4207D0074AD05407480B80FEF778
:10311C00FAFE012008BD0020FCE700BFE62E0020CF
:10312C00E42E0020E42C0020003801400846FFF774
:10313C00DFBF0000054B064A1B8812889B1A98B209
:10314C001B0444BF00F5006080B27047E22C0020E5
:10315C00E02C0020FFF7EEBF0848094A01881388CD
:10316C0089B29BB29942F9D013880133C3F30A0395
:10317C0013801388034A9BB2D05C7047E22C00206A
:10318C00E02C0020E0240020FFF7E6BF002914BF4C
:10319C004FF48053002300B589B0CDE902320023EF
:1031AC000C2201900491054801A9CDE90523079350
:1031BC000DF004F909B05DF804FB00BF00380140C4
:1031CC0010B5064CE36823F40053E360FFF7DEFF11
:1031DC00E36843F40053E36010BD00BF00380140C6
:1031EC00002208461146FFF7EBBF000073B503251C
:1031FC002C4C2D4EE36823F40053E360FFF72DFABB
:10320C004FF48040FEF764FE304608230A2227491B
:10321C000095FFF7F0FA08232A463046244900951A
:10322C00FFF7E9FA00224FF4E1301146FFF7AEFF49
:10323C00B022236923F490432361636923F02A03AA
:10324C0063611C4B83F8252320225A602046FEF72D
:10325C0081FEFEF772FE6FF0400300252360164BD3
:10326C001D80164B1D80FEF75BFE6FF02003236064
:10327C00134B1D80134B1D80236923F400632361C2
:10328C00636923F008036361236923F4804323619A
:10329C00636923F022036361E36843F40053E36042
:1032AC0002B070BD00380140000801400200020469
:1032BC000400040400E100E0E42E0020E62E0020CF
:1032CC00E02C0020E22C002008B5FFF78FFF6FF0F8
:1032DC002003034803604368BDE80840FEF706BEC0
:1032EC0000380140FFF7F0BF7FB502240646FFF718
:1032FC00B4F900230B2244F2400126480094FFF756
:10330C007AFA002348F280010B2222480094FFF73E
:10331C0072FA3168204B99420AD103F5DE33DA692F
:10332C0042F40012DA61DB6903F400130293029B8E
:10333C00002380221020194D194CC5E90133C5E931
:10334C000323C5E90533C4E90103C4E90323C4E934
:10335C000533EB61E361104B994218D103F5DE3371
:10336C005A69284642F001025A615B6903F0010375
:10337C000393039B0B4B2B600AF096FD0A4B2046E4
:10338C00B5636E6223600AF08FFD7463666204B0ED
:10339C0070BD00BF000C014000540040800B0020A9
:1033AC00C40B0020800002406C00024008B5144899
:1033BC00144B4FF4804203600023C0E90332124ADD
:1033CC00C0E90533C0E90733C0E901230BF0E0F88D
:1033DC00A0B9F0220D4B83F81F234FF00041196068
:1033EC0083F820230121596083F810234FF4803196
:1033FC00196083F811234FF400321A6008BD00BF26
:10340C00080C002000540040801A060000E100E087
:10341C0001480BF077BD00BF080C002001480CF0F0
:10342C00ADB900BF080C002001480AF0F3BD00BF85
:10343C00C40B002001480AF0EDBD00BF800B00203A
:10344C00014B1870704700BF5C0C00201FB5084B77
:10345C001C784FF0FF33CDE9012301230246009184
:10346C00044804FA03F10BF03BF904B010BD00BFA3
:10347C005C0C0020080C002013B5064B1C780123B3
:10348C00CDE90012024604FA03F103480BF0B8F937
:10349C0002B010BD5C0C0020080C0020044B0A226A
:1034AC00197804484FF0FF3349000BF06FBA00BF96
:1034BC005C0C0020080C002008B5FFF777FF0022F9
:1034CC00014B1A7008BD00BF5C0C0020F8B500253C
:1034DC004FF6FF76184C90220021201D0EF094FE22
:1034EC00164F174B052239462360A01D2C23A580AF
:1034FC00FDF74EFB134A144B3946C4E90D2304F176
:10350C003E002C230522A687FDF742FB02230F4920
:10351C0004F17A00E366A4F8706084F87250656771
:10352C00A4F878500EF094FE7F2384F88F30052396
:10353C0084F89030F8BD00BFC0020020E8350108C7
:10354C000200060002000F0003000500D626010849
:10355C0070B5094C06460D46415C20460EF06BFEDC
:10356C00034628B1031B0133DBB2282B28BF0023F1
:10357C00E35C735570BD00BFA43C010870B50C46EC
:10358C00114606460EF064FE3CB10025052130467E
:10359C000135FFF7DDFFA542F8D170BD73B50546C7
:1035AC0005F111061E4C01461E4A68463601FFF70E
:1035BC00E5FFB01C694620440EF04AFE02230022AF
:1035CC002644737204EB0513A3F81A21142301216A
:1035DC0003FB05F0032500F1480323442044596004
:1035EC005D80A0F85220E1844FF480710E4B80F87E
:1035FC005050C4E90A130C2380F8542084F830206E
:10360C0004F13A01013B13F0FF0301F8012BF9D14E
:10361C0040F20113A4F84630A4F8483002B070BD53
:10362C0004010020A726010803010100F7B5044698
:10363C0004F11105AA4AAB4F01462E016846FFF76B
:10364C009DFFB01C38443E446946FDF7B5F9737ACA
:10365C00052B84BF01227272A34A07EB0516108852
:10366C00717A3B4640FA01F1CF070FD401217172F8
:10367C0060B18607C0F3400108D440FA01F7FF0798
:10368C00CEB240F1DE8103EB05114E7203EB041058
:10369C0090F81A612101032E02D9002680F81A61D4
:1036AC005F18568897F81A0146FA00F0C00711D433
:1036BC00022087F81A016EB17707C6F3800009D48F
:1036CC0046FA00FC1CF0010FC7B200F0BF8158187D
:1036DC0080F81A71581890F81B61032E02D9002635
:1036EC0080F81B615F18968897F81B0146FA00F06A
:1036FC0010F001000FD187F81B0166B116F0010024
:10370C0009D146FA00FC1CF0010FC7B200F0A381EE
:10371C00581880F81B7103EB0515687A012805D938
:10372C0004281EBF0020C91881F81B01142101FBBD
:10373C00043090F84A50042D02D9032580F84A50E1
:10374C0001FB043191F84B00042802D9002081F8C8
:10375C004B00142101FB0431908E91F84B5040FA30
:10376C0005F5ED0712D4012581F84B5070B1870790
:10377C00C0F340010AD440FA01F6F607CDB240F18D
:10378C006F81142101FB043181F84B50142101FB92
:10379C00043191F84C00032802D9012081F84C0027
:1037AC00142505FB0435D08E95F84C1040FA01F128
:1037BC0011F0010110D185F84C1068B110F0010125
:1037CC000AD140FA01F6F707CDB240F14E8114212F
:1037DC0001FB043181F84C50142101FB043191F8A8
:1037EC004E00012802D9002081F84E00142505FB5B
:1037FC000435108F95F84E1040FA01F111F00101CB
:10380C0010D185F84E1068B110F001010AD140FAC0
:10381C0001F6F607CDB240F12D81142101FB0431E4
:10382C0081F84E50142101FB043191F84F0002280D
:10383C0002D9002081F84F00142505FB0435508F68
:10384C0095F84F1040FA01F111F0010110D185F8F3
:10385C004F1068B110F001010AD140FA01F6F707D8
:10386C00CDB240F10C81142101FB043181F84F5091
:10387C00142101FB043090F84D50022D02D9002583
:10388C0080F84D5001FB043191F85000052802D905
:10389C00032081F85000142101FB043090F85250A1
:1038AC00012D02D9002580F8525001FB043191F80A
:1038BC005300022802D9002081F85300142505FB7F
:1038CC000435908F95F8531040FA01F111F0010175
:1038DC0017D185F85310A0B110F0010111D105E0FA
:1038EC00A726010804010020C002002040FA01F6BE
:1038FC00F607CDB240F1C880142101FB043181F8E8
:10390C005350142101FB043090F85450022D02D96D
:10391C00002580F8545001FB043191F84C0001282B
:10392C0006D191F84F00022804BF002081F84F0007
:10393C0093F82610042902D9012183F8261093F854
:10394C002710042902D9002183F82710B2F86C0043
:10395C0093F8271040FA01F1CE070FD4012183F818
:10396C00271058B18507C0F3400107D440FA01F67F
:10397C00F707CDB240F18D8083F8275093F82810CB
:10398C00022902D9002183F8281093F82910022962
:10399C0002D9012183F82910B2F86E0093F829207E
:1039AC0040FA02F212F001016D4A0CD183F8291091
:1039BC0048B110F0010106D140FA01F6F607CDB27C
:1039CC006CD582F8295093F82A100C2902D90021C1
:1039DC0083F82A1093F832100C2902D9002183F8AD
:1039EC00321092F82B30042B02D9002382F82B30A2
:1039FC0092F82F30012B02D9002382F82F30594B2B
:103A0C00B3F8701092F82F3041FA03F313F001035E
:103A1C000CD182F82F3049B111F0010306D141FAD3
:103A2C0003F5EF07D8B23DD582F82F0000231846D6
:103A3C004D4911F9015B15F1780F37DA01F8010CDA
:103A4C0036E0013110297FF418AE1FE60130102842
:103A5C007FF436AE3EE6013010287FF452AE5AE6C3
:103A6C00013110297FF487AE90E6013110297FF4E3
:103A7C00A8AEB1E6013110297FF4C9AED2E601310E
:103A8C0010297FF4EAAEF3E6013110297FF42EAF52
:103A9C0037E7013110297FF469AF6FE70131102945
:103AAC008AD190E70133102BB9D1BFE7782DC5DC53
:103ABC000133DBB20C2BBCD1002301202B4911F8B4
:103ACC00015B0133022DDBB288BF01F8010C042B22
:103ADC00F5D192F82C30052B02D9032382F82C3027
:103AEC0092F82D30022B02D9012382F82D3092F856
:103AFC002E30022B02D9012382F82E3092F830306E
:103B0C00022B02D9002382F830301421FF236143A9
:103B1C00501880F851304FF0FF3002EB0414106253
:103B2C00908484F81C010020553182F8313084F8DF
:103B3C001D3184F81E3184F81F3184F8203184F84B
:103B4C00213111440130C0B2092801F8013BF9D1EF
:103B5C0082F833304FF0FF335363138703B0F0BD5B
:103B6C0004010020C00200203E0100204A01002078
:103B7C00144B9870032803D8DFE800F0030E151CD3
:103B8C00FEE7114A9A6200221A710A221A7403384B
:103B9C0018BF0120987370470C4A9A6200221A7160
:103BAC000F221A74F3E70A4A9A6201221A71192237
:103BBC001A74ECE7074A9A6200221A7107221A74E7
:103BCC00E5E700BFCC0000201400320020001F00ED
:103BDC003500130009006F002DE9F34100F11106C7
:103BEC006F4F360106F10208B84405464046FCF713
:103BFC00FFFE042101900DEB0100FEF7D2F9694C98
:103C0C00019B0021A360142303FB057393F84A2046
:103C1C00654B3E4413F8223060822373634B84F867
:103C2C0034102363737A2E01637007EB051393F83A
:103C3C001A01FFF79DFF6378628A63732377A26191
:103C4C00A1771BB94046FCF7F7FEA0773E4496F8E7
:103C5C001B31637763B1618A03EB031202EB02221F
:103C6C000A444FF011316282A26801FB0323A36066
:103C7C00237F052B04D8DFE803F00434373A3D43A7
:103C8C00FEE7A378032B03D8DFE803F00325280312
:103C9C00FEE71823237540F2E243207DA385FCF751
:103CAC001BFB4FF07F51FCF76BFBFCF76BFD4FF4EC
:103CBC007A73228DC0B2B3FBF2F32384142303FB7B
:103CCC00057393F85030E085052B48D8DFE803F0F6
:103CDC001B3B3F43474B12232375DCE70C23237517
:103CEC00D9E719232375D6E706232375D3E70223D7
:103CFC002375D0E7A378012BEDD0022BEED0FEE795
:103D0C0003232375C7E74FF4165363621420002373
:103D1C0000FB057584F83530E38695F84C30032BA1
:103D2C0003D095F84F20022A02D1012284F83520C5
:103D3C00012B08BF84F8363094F83530BBB194F8B9
:103D4C003620A2B1FEE74FF496436362DEE74FF4F0
:103D5C0016436362DAE74FF461436362D6E74FF4CC
:103D6C00E1336362D2E74FF461336362CEE714212F
:103D7C00227801FB027797F84C20022A07D1012206
:103D8C0084F8372023B194F837302BB1FEE71BB9F8
:103D9C0094F83630002BF6D102B0BDE8F08100BFAC
:103DAC0004010020CC000020E835010801010001CD
:103DBC004FF4DE72FF2101480EF026BA04010020F8
:103DCC004FF4DE710148FFF7A9B800BF04010020D1
:103DDC004FF4DE710148FFF78BB800BF04010020DF
:103DEC0008B5FFF7F5FF034B1878BDE80840FFF75F
:103DFC001DBC00BFCC00002070B5FFF7D9FFFFF74A
:103E0C00A1F804280CD0FFF7D3FFFFF79BF8042888
:103E1C0003D1FFF7DDFF042806D0FFF7C9FF03E04D
:103E2C00FFF7D6FF0428EED140F24F12524CA38A72
:103E3C00934267D0B3F5A47F36D80125062204F14E
:103E4C00160104F58970FCF728FF637F84F819319B
:103E5C00A37F84F81A3128460135EDB2FFF79EFB9B
:103E6C000A2DF8D10023E37740F24F130125A382EA
:103E7C0042F21173226941499A423F484FF01002B5
:103E8C001CBF012523610EF0EBF900283CD0102259
:103E9C003A493948FCF7F0FE082239493948FCF711
:103EAC00EBFEFFF78DFF31E0B3F5A77F22D8234659
:103EBC00002203250121022693F84C0001280DD085
:103ECC0003280ED093F84F0001280DD002280ED0F5
:103EDC0001320A2A03F11403EED1C5E783F84C50E2
:103EEC00F0E783F84C10EDE783F84F60F0E783F8C8
:103EFC004F10EDE70025E8B20135FFF74FFB0A2D17
:103F0C00F9D1AFE70025B3E7002DCAD1E37F092B28
:103F1C0084BF0023E3771423E17F03FB014393F871
:103F2C004C2002F0FD02012A17D10022124993F80D
:103F3C004C0001320A2A81F84C0001F11401F6D12F
:103F4C00114DE37F2B70FFF7C1FA2878FFF76EFB5A
:103F5C002878BDE87040FFF73FBE49B10B4903F12B
:103F6C004A025E3352F8040B9A4241F8040BF9D121
:103F7C000023E377E4E700BF04010020AE2601082C
:103F8C00BF260108B6020020CC0000204E01002004
:103F9C00C01A1628A8BF162030B56FF00805A84225
:103FAC00B8BF28469DF80C40A042C8BF20B2C0B292
:103FBC0008701844107030BD07B5084611461A46F3
:103FCC00142300930A23FFF7E3FF03B05DF804FB0F
:103FDC0037B50C4605468B784A7809780CF053FDBA
:103FEC00E37928460193A379E178009322796379E8
:103FFC000CF05EFD2846E17801EB4101890803B025
:10400C00BDE830400CF0AABE024638B5044652F862
:10401C00103B5D6900F11103A8472046217C00226A
:10402C00BDE838400CF0A6BD1FB50446C1600121A7
:10403C000CF004FD012340F6D80120460DF10F02CF
:10404C000CF05EFC9DF80F3040F6D80143F01E03D7
:10405C0020468DF80F300DF10F0201230CF01BFCE4
:10406C0020460CF05DFEE179FF2903D0FA222046B0
:10407C000CF062FEE3685B7A013B042B04D8DFE8AA
:10408C0003F0042329292300FEE7E922E12120463D
:10409C000CF0ACFE012120460CF01FFE96212046B0
:1040AC000CF087FE382120460CF08AFE20460CF0DE
:1040BC008FFEE368204693F90810FFF7A5FFE3682D
:1040CC001B78012B0CD9FEE7DB22D72120460CF004
:1040DC008DFEDFE76F226B2120460CF087FED9E7BF
:1040EC000F49204601EB0311A160FFF771FF00227D
:1040FC00204611460CF0BAFC002340F20322009338
:10410C0020464FF6FF710CF002FD4FF6FF71204672
:10411C000CF024FD20460CF0F0FD04B010BD00BFE7
:10412C00345E010810B504460CF0E7FD2046BDE8EE
:10413C0010404FF6FF710CF011BD000038B504466D
:10414C000368C1685D6900F1100200F1110391F977
:10415C000810A847E3681A78012A00D9FEE7024B39
:10416C0003EB0213A36038BD345E010810B5054C97
:10417C00A36813B92046FFF7E1FFA3689868A0F580
:10418C007A7010BD98210020836810B504460BB9D5
:10419C00FFF7D4FFA368B3F90C0010BD836810B50A
:1041AC0004460BB9FFF7CAFF94F9110010BD0122A8
:1041BC0030B5A1F12103C1F1210422FA04F44D1E02
:1041CC0002FA03F32343AA404FF0FF344FF0FF35BC
:1041DC00C0E90223C0E90445C0E90623017080F858
:1041EC00201030BD0122002300212DE9F047D0E939
:1041FC000289D0E904EC994508BF90450BD302EA3B
:10420C000E0603EA0C0756EA070A1CBF013189B2F5
:10421C0092185B41EFE7D0E90632DC1842EB02055D
:10422C00A94508BFA04580F820100BD3C0E906456E
:10423C00D0E906232EEA02022CEA0303C0E9042388
:10424C00BDE8F08701220023C0E90623F0E7000057
:10425C0090F8D8305BB190F8D930074A180102EBCE
:10426C0003139B681978135853F821007047037D8A
:10427C000E3350F823007047883501082DE9F341BF
:10428C000446164688469DF824705B22402F4FF05A
:10429C0000011D4628BF40270DF0B6FF8F4B5B8AEF
:1042AC0023803278A37862F30203A3707378DB0067
:1042BC0003F0080343EA0811A37803F0070319433A
:1042CC00A1707279E37862F30003E370B2796379D9
:1042DC0062F38613637196F90200FCF7C3FAE37874
:1042EC0060F34703E370F278237962F306032371DA
:1042FC00337903F00102237903F07F0343EAC213FD
:10430C0023713379C3F34502637923F03F031343DD
:10431C006371A37967F34703A3712B78AA78E371D0
:10432C006B7802F01F0203F0070343EAC203237207
:10433C006B88C3F34512637A23F03F031343637214
:10434C002B7903F00302637A03F03F0343EA8213F1
:10435C006372AB88C3F38703A3726B79C3F38002D8
:10436C00E37A23F001031343E372AB7903F07F028A
:10437C00E37A03F0010343EA4203E372EB88C3F3ED
:10438C00C312237B23F00F03134323732B7AAA7AD4
:10439C00E3736B7A02F01F0203F0070343EAC203D4
:1043AC0023746B89C3F34512637C23F03F031343DF
:1043BC0063742B7B03F00302637C03F03F0343EA3B
:1043CC0082136374AB89C3F38703A3746B7BC3F34E
:1043DC008002E37C23F001031343E374AB7B03F013
:1043EC007F02E37C03F0010343EA4203E374EB89AD
:1043FC00C3F3C312237D23F00F03134323752B8ABE
:10440C00DB0863756B8ADB08A375AB8ADB08E37585
:10441C00EB8ADB0823762B8BB3F5C06F3AD2B3F55E
:10442C00007F94BF00230123227B63F305122273C8
:10443C006B8BB3F5C06F2FD2B3F5007F94BF002305
:10444C000123227B63F387122273AB8BB3F5C06F0E
:10445C0024D2B3F5007F94BF00230123227D63F3A4
:10446C0005122275EB8BB3F5C06F19D2B3F5007F33
:10447C0094BF00230123227D63F38712089B2275CE
:10448C001F4404F11902BB420CD013F8011B02F8B3
:10449C00011BF8E70223C7E70223D2E70223DDE77B
:1044AC000223E8E74FF6FF7321460DF106000D22BB
:1044BC00ADF80630FDF76AFD2146BDF806304C22FA
:1044CC0021F80D3F0DF10600FDF760FDBDF806303B
:1044DC00A4F8593002B0BDE8F08100BFCC00002038
:1044EC0013B59DF81040CDE9003413460A4600215F
:1044FC00FFF7C4FE02B010BD13B5144B02885B8AE3
:10450C0004469A421DD1837803F0F003102B01D09E
:10451C00202B18D1A379A52B15D84FF6FF730DF1CD
:10452C00060059222146ADF80630FDF72FFDB4F8F0
:10453C005900BDF80630984214BF0420002002B088
:10454C0010BD0120FBE70220F9E700BFCC000020E2
:10455C0030B5334B027893F8261000F1170461F351
:10456C000302027093F8271061F30712027093F89C
:10457C002810427861F30302427093F8291061F31A
:10458C000712427093F82A10827861F3030282704A
:10459C0093F83210827961F30302827193F82B1035
:1045AC00827861F30712827093F82C10C27861F351
:1045BC000302C27093F82D1061F30712C27093F8C6
:1045CC002E10027961F30302027193F82F1061F33C
:1045DC000712027193F83010427961F303024271B1
:1045EC0003F13A0100F10B0211F9015B02F8015BD6
:1045FC00A242F9D193F84610C27D61F30102C27553
:10460C0093F8471061F38302C27593F8481061F375
:10461C000512C27593F8493063F38712C27530BD29
:10462C000401002002782F4BC2F3030230B583F84B
:10463C002620027803F13A01C2F3031283F82720F3
:10464C00427800F11704C2F3030283F82820427861
:10465C00C2F3031283F829208278C2F3030283F891
:10466C002A208279C2F3030283F832208278C2F3C3
:10467C00031283F82B20C278C2F3030283F82C2098
:10468C00C278C2F3031283F82D200279C2F303021D
:10469C0083F82E200279C2F3031283F82F2042797B
:1046AC00C2F3030283F8302000F10B0212F9015B14
:1046BC00A24201F8015BF9D1C27DC2F3010283F879
:1046CC004620C27DC2F3810283F84720C27DC2F32B
:1046DC00011283F84820C27DC2F3811283F849206D
:1046EC0030BD00BF040100201FB58DF80C30012334
:1046FC00019303AB009313460A460221FFF7BEFD5C
:10470C0005B05DF804FB00007FB50123204D044685
:10471C0085F87230B0F80900FCF75DFA6867B4F8F8
:10472C000B30142204F10D0105F17A00A5F8783054
:10473C00FCF7B3FA94F9213004F1230085F88F309B
:10474C0094F8223085F89030FFF76CFF6846002211
:10475C00014602F11C0304EB43035E7A9B7A01329F
:10476C0046EA0323082A20F8023BF2D12C230948FD
:10477C00FCF794F994F85130A5F86C3094F8523059
:10478C00A5F86E3094F85330A5F8703004B070BDB5
:10479C00C0020020FE0200202DE9F0474FF0400936
:1047AC0092B00DF1080805460E46174600214A4600
:1047BC0040460DF029FD2223DFF878A01C4C9AF816
:1047CC0000100DF10A0004EB0111062201F58971AC
:1047DC008DF80830FCF750FA9AF8001005A804EB95
:1047EC00011292F81A3192F8194103F00F0304F0F8
:1047FC000F0444EA031492F81B3103F00F0344EA4C
:10480C000324BDF8103023F47F6323F00F031C4303
:10481C00ADF81040FFF79CFE3B463246022128467D
:10482C00CDE90089FFF72AFD12B0BDE8F08700BF83
:10483C0004010020CC00002010B50446FDF7B4FCA8
:10484C0004F11400FDF7B0FC04F12800FDF7ACFCFA
:10485C0004F13C00FDF7A8FC04F15000FDF7B4FC9A
:10486C0004F16400FDF7B0FC10BD000000230A4AFF
:10487C008380126883718260084A83810384136881
:10488C0003615368064A4361136883615368C361CB
:10489C004EF660230360704728370020C5260108B8
:1048AC00CE26010810B50D4C0220FFF761F9204609
:1048BC00FFF738FC0A212046FFF7A6FBE3681B78BC
:1048CC00012B00D9FEE70649204601EB0311A1603C
:1048DC00FFF77EFB2046FFF725FC10BD982100203A
:1048EC00345E01081C4B1A6890F820301BB980F814
:1048FC00213082601AE090F82130013B5BB2002B32
:10490C0080F821300BDC002380F82030F1E7012304
:10491C000371037370474379002BF8D17047836898
:10492C00D21AB2F57A6F01D9012343710379002BA6
:10493C00F1D00A4B427B1B781AB1022B1CBF03220D
:10494C0002739A1E534253414373837913B1032369
:10495C0003737047704700BF2837002041040020C4
:10496C000346007B821E012A4FF0000202D893F806
:10497C00201009B91A737047104670470A4A38B5A7
:10498C001388044601339BB2502B0D4601D813807B
:10499C0038BD002305491380FDF753FE29462046F8
:1049AC00FDF74FFEF4E700BF50090020D0270108A7
:1049BC002DE9F84F174606460D464FF0000876498C
:1049CC00FDF73FFE39463046FDF73BFE734B012D9C
:1049DC00734CA3F8008013D14FF400434FF480457F
:1049EC00636146F2A8102561FEF75AF946F2A81049
:1049FC006561FEF755F939463046FFF7BFFFF0E722
:104A0C00022D13D14FF480434FF40045636146F2FD
:104A1C00A8102561FEF744F946F2A8106561FEF76F
:104A2C003FF939463046FFF7A9FFF0E7032D13D1C4
:104A3C004FF400434FF48045236146F2A8102561E2
:104A4C00FEF72EF946F2A8106561FEF729F93946F2
:104A5C003046FFF793FFF0E7042D13D14FF480435A
:104A6C004FF40045236146F2A8102561FEF718F9B2
:104A7C0046F2A8106561FEF713F939463046FFF788
:104A8C007DFFF0E7052D16D14FF480484FF400451B
:104A9C00C4F8108046F2A8102561FEF701F9C4F89D
:104AAC00148046F2A8106561FEF7FAF839463046D4
:104ABC00FFF764FFECE7062D16D14FF480484FF456
:104ACC000045C4F8108046F2A8106561FEF7E8F8BE
:104ADC00C4F8148046F2A8102561FEF7E1F83946B7
:104AEC003046FFF74BFFECE7A5F10A03042B43D844
:104AFC004FF4004B4FF4804A093DEDB24FF00409DE
:104B0C00A84538BFC4F810B046F2A810C4F810A0DD
:104B1C00FEF7C6F846F2A810C4F814A0FEF7C0F8C9
:104B2C0009F1FF3939463046FFF728FF19F0FF0924
:104B3C00EAD14FF00409C4F814B046F2A810C4F836
:104B4C0010A0FEF7ADF846F2A810C4F814A0FEF7BA
:104B5C00A7F809F1FF3939463046FFF70FFF19F076
:104B6C00FF09EAD108F101085FFA88F86B1C43458C
:104B7C00B8BF4FF00008C1E74FF4804323614FF4F6
:104B8C00004323614CF25030FEF78AF83946304628
:104B9C00FFF7F4FEF6E700BFD0270108500900200C
:104BAC00001001406FF00102094B0A491A610A8892
:104BBC00013A92B20A800A8892B23AB9DA6822F0C3
:104BCC000102DA601A6822F001021A60704700BF15
:104BDC0000040040920300206FF00102054B1A61A3
:104BEC00DA6822F00102DA601A6822F001021A6017
:104BFC00704700BF0004004010B5194C88B0FFF797
:104C0C00EBFF01230A2240F202211648FDF7E9FDD1
:104C1C00204600224FF47A71FDF7F8FD60230093D3
:104C2C0000230222CDE9013303934FF480730492E5
:104C3C00CDE905234FF480516A46204607930BF0CB
:104C4C00C3FA094A536823F480635360E022074B8C
:104C5C0083F81D234FF000521A6008B010BD00BF3E
:104C6C0000040040000C01401804004000E100E08A
:104C7C00074BB3FBF1F1074BD962490819641A6869
:104C8C0042F001021A601A6A42F480521A627047AA
:104C9C0040420F00000400400D484A43B0FBF1F0C5
:104CAC004FF47A71B2FBF1F20A4B0B49D86292B213
:104CBC00400818640A801A6842F001021A601A6AE5
:104CCC0042F480521A62DA6842F00102DA607047EC
:104CDC0040420F00000400409203002019B94FF429
:104CEC00FA71FFF7C5BF182904D84FF4FA721146B0
:104CFC00FFF7D2BF4A2904D8FA224FF4FA71FFF712
:104D0C00CBBF632904D832224FF4FA71FFF7C4BF2A
:104D1C00FFF762BF044B1B68DB0704D428224FF457
:104D2C00FA71FFF7B9BF70470004004010B5044694
:104D3C0094F9013008468B4201D1237823B9012321
:104D4C002370FDF789FF607010BD0000054A064B0B
:104D5C0011681B780B441360044A13680133136009
:104D6C00704700BF28370020400000204C0900206D
:104D7C00014B1868704700BF2837002037B50C4628
:104D8C001D4668B907480DF106020DF107010BF03D
:104D9C005FFF2B4622469DF8061002480BF00AFED8
:104DAC0003B030BD9821002070B50D4616461C4648
:104DBC000146A0B9FDF7A2FE33462A460A480BF07D
:104DCC00D3FD4FF6FF7108480BF0C8FE0648A10151
:104DDC000BF0DDFEBDE870407D20FDF761BF0248A1
:104DEC00FFF7A0F970BD00BF982100202DE9F0411C
:104DFC004FF05B0805461E4C0E46424600212046ED
:104E0C000DF002FA2B691B4F23606B6939786360D4
:104E1C00194B1A4D1B7805EB01119A1E5342534145
:104E2C00627A04F10A0063F30002627201F589717F
:104E3C000622FBF721FF3B78592105EB031595F86A
:104E4C001A21237C204662F30713237495F81B2147
:104E5C00637C62F303036374FDF7A3F84246A4F882
:104E6C005900214630463B7CBDE8F041FFF79CBF22
:104E7C00C1210020CC0000204104002004010020AE
:104E8C0013B50C4690B901F17A020D480DF10601EB
:104E9C000BF0C8FEBDF90630002B09DB4FF6FF7393
:104EAC00ADF80630BDF8063084F8783002B010BD8D
:104EBC007F33BCBF4FF68173ADF80630F2E700BF0D
:104ECC009821002070B50D460646114C5B232246F6
:104EDC0021462846FFF752FFD6E90601636822688F
:104EEC008B4208BF824211D120465921FDF759F857
:104EFC00B4F85940231A5C425C4128460549FFF737
:104F0C00BFFF002C0CBF0120022070BD0024F4E771
:104F1C00F81F0020102100200A4608B50146014860
:104F2C00FFF746FD24000020164600B591B004465C
:104F3C0068461D460DF08CF9184968460DF06CF961
:104F4C0030460BF01FFC014668460DF065F914491C
:104F5C0068460DF061F9134B684653F825100DF0B7
:104F6C005BF9114968460DF057F9104D9DF8483022
:104F7C00684655F823100DF04FF90D4968460DF0B1
:104F8C004BF99DF84C30684655F823100DF044F958
:104F9C006A4621460748FFF70BFD00BFD7260108DC
:104FAC00DE26010800000020E32601081000002086
:104FBC00EA260108240000204FF08040FDF78DBC4C
:104FCC004FF08043586A80B270470000F8B5054630
:104FDC004FF07F301C4B1D4A0024C3E91E024FF6D4
:104FEC00FF720E46FF27C3E90244C3E90744C3E935
:104FFC000C44C3E91144C3E91644C3E91B445C6087
:10500C001C749C6183F82440DC6283F838401C6477
:10501C0083F84C405C6583F860409C6683F8744070
:10502C00A3F88220A3F8844005F1080083F881706E
:10503C0083F88640FFF7BBF8314605F13000FFF7E7
:10504C00B6F82C80AF70F8BD10210020FFFF7F0058
:10505C0010B504463030FFF7C5F804F10800FFF72F
:10506C00C1F810BD4FF07F31144B154A30B5C3E970
:10507C001E12FF2283F881204FF6FF72A3F88220C4
:10508C000022A3F8842083F886204FF0FF32D0E969
:10509C000E454FF0FF3390F83010C0E91023C0E9F3
:1050AC000623D0E90423C0E90823037AC0E912459A
:1050BC0080F8501080F8283030BD00BF102100203F
:1050CC00FFFF7F00D0E9062310B5D0E90841224349
:1050DC000B43C0E90623024A53680133536010BDE9
:1050EC0010210020D0E9102310B5D0E91241224341
:1050FC000B43C0E91023024A93690133936110BD3D
:10510C00102100202822074B02FB003083681A78FC
:10511C00542A05D15878A0F1780358425841704769
:10512C0000207047143601082822074B02FB003080
:10513C0083681A78522A05D15878A0F1780358421E
:10514C005841704700207047143601082822074B3D
:10515C0002FB003083681A78542A04D158787838C6
:10516C0018BF012070470120704700BF143601089A
:10517C00282343430A4A10B5D1580446FFF7D4FFFD
:10518C0040B92046FFF7BEFF064B1B7820B1142216
:10519C0002FB0311084610BD01EB0311FAE700BF37
:1051AC0014360108CC000020292838B505460C46D9
:1051BC0024D828231A4A03FB00231B79042B07D875
:1051CC00E3B1023B022B05D8DFE803F0111A2200F1
:1051DC00FE2B13D12846FFF7CBFF0378E4B2A34292
:1051EC000CD004702846BDE83840FFF7AFBFFFF77E
:1051FC00BFFF90F9003064B2A342F2D1002038BD59
:10520C00FFF7B6FF0288A3B29A42F7D00480E9E711
:10521C00FFF7AEFFB0F9002023B29A42F6D1EDE7CA
:10522C0014360108292838B504460D4619D8282308
:10523C000D4A03FB00231B79FF2B12D1FFF798FFBC
:10524C0006222946FBF73BFD58B92046FFF790FF95
:10525C0029460622FBF721FD2046BDE83840FFF722
:10526C0075BF002038BD00BF143601082DE9F0438E
:10527C00154628224A4307463448012B00EB02040A
:10528C00246A87B026D1324B8258022908BF1C46AB
:10529C00304B9A4232D03049243B9A4208BF0C46DC
:1052AC00FF234FF0000801268DF800302046FAF756
:1052BC0051FF5FFA88F9484524D914F809302C2B92
:1052CC0005D106AB3344013603F8188CF6B208F15D
:1052DC000108EBE7022BE3D1204B8258022908BFCF
:1052EC001C461C4B9A420BD0A3F124018A4207D0D6
:1052FC001B491E3B9A4208BF0C46D1E7164CCFE720
:10530C00184CCDE706AB3344AE4203F8188C04D8E6
:10531C000020387007B0BDE8F08306AB1D440023B5
:10532C0015F8181C15F9175C0131C9B25A18D2B20C
:10533C00AA4207EB030004DAA25C0133DBB2027071
:10534C00F4E7002303700120E4E700BF14360108E2
:10535C00F12601084F010020572701082A270108D0
:10536C00B52701088B2701082822054B02FB0030CA
:10537C00436A0BB1188870474FF6FF70704700BF37
:10538C001436010828220B4B70B502FB0030066A5C
:10539C003046FAF7DFFE002204461146D5B24B1C0C
:1053AC00AC42D8B205D9735D01322C2B08BF014633
:1053BC00F4E770BD14360108F8B528230E4A0646EA
:1053CC0003FB00231B79FE2B12D1FFF7CDFF002529
:1053DC0007462C463046FFF7D5FFEBB2984208D96A
:1053EC0047FA03F3DB0744BF0134E4B20135F1E7BC
:1053FC00FF242046F8BD00BF143601082DE9F04FFC
:10540C00002405460F46A0461D4E93B04FF0000AEF
:10541C00D6F808905FFA84FB5FFA8AF1484601914E
:10542C00FAF798FE019912AB88420B4411D919F87E
:10543C00010001930CF0B6FFC0B2202808BF5F2218
:10544C00019B0AF1010A14BF03F8400C03F8402C2D
:10545C00E2E7394602A803F8408CFAF771FE28B946
:10546C00012085F800B013B0BDE8F08F01342A2C70
:10547C0006F12806CAD1002085F80080F3E700BFAA
:10548C00143601082DE9F04128261E4B044606FB74
:10549C00013633790D46FE2B174619D0FF2B22D03F
:1054AC00022B2AD10846FFF763FE214690F9000033
:1054BC000BF015F935692B7813B3134920460CF012
:1054CC00ABFE294620460CF0A7FE0120BDE8F0817A
:1054DC000846FFF74DFE3B46294602782046BDE8BC
:1054EC00F041FFF7C3BE0846FFF742FE0622014615
:1054FC002046FBF7D2FB0120E8E700202070E5E70F
:10550C000120E3E714360108ED270108F8B516462B
:10551C0028230024174A074603FB06231A790D4655
:10552C00022A047003D0FE2A13D02046F8BD93F94A
:10553C0018208A42F9DC93F91C309942F5DC4FF0C3
:10554C000001304665F30701FFF72EFE0124387089
:10555C00EBE70029E9DB3046FFF714FF8542E4DA7C
:10556C003046FFF701FF40FA05F313F00100E6D1D6
:10557C000446DAE7143601082DE9F84300231746F0
:10558C0003702823114A064603FB07231B790C469C
:10559C00FF2B03D000252846BDE8F8830846FAF710
:1055AC00D9FD0628F6D104F1FF3804F1050918F8E5
:1055BC00010FFBF7E9F905460028EBD0C845F6D1F9
:1055CC0021463846FFF72EFE3070E4E7143601080A
:1055DC00F8B528230027DFF840C0044603FB02C3BC
:1055EC001B790E46FE2B1546077004D0FF2B0CD0F2
:1055FC00013B032B0DD830460CF0A8FD2A46014682
:10560C002046BDE8F840FFF781BFBDE8F840FFF742
:10561C00B3BF3846F8BD00BF1436010838B505468F
:10562C00044655F8050BFDF70CF829462068FDF7E4
:10563C0008F838BD38B500250446016005710749E6
:10564C0005300CF005FE84F889506572C4F88C5056
:10565C0084F8905084F8985038BD00BFCD270108CD
:10566C0003798B4211D00129017106D0022908D08F
:10567C0059B9064905300CF0EBBD054905300CF065
:10568C00E7BD044905300CF0E3BD7047CD27010898
:10569C00D0270108CF27010890F88930642B08D84F
:1056AC00C2180133DBB2517280F8893018440023E0
:1056BC004372704708B50930FAF742FDB0FA80F032
:1056CC00400908BD2DE9F043064691B008468846CE
:1056DC001546FAF73FFD06F1090904464846FAF764
:1056EC0039FDE4B2631CC7B2BB4203DB002011B02E
:1056FC00BDE8F0832246414648460CF0B1FD002837
:10570C00F4D1224604F109031E44BA4203460CD2DA
:10571C0016F8011B202905D010AC01302344C0B26F
:10572C0003F8401C0132D2B2EFE7002210AB034465
:10573C00022803F8402CD9D19DF800303D2BD5D14F
:10574C009DF80130303BDAB2092ACFD801202B600A
:10575C00CDE7000010B5044607490068FCF771FF5F
:10576C00064B206819783031C9B2FCF7F7FE204699
:10577C000349FFF753FF10BDD2270108CC000020CE
:10578C00D62601082DE9F047437A8046702B0F4648
:10579C00164690B06AD1837A202B67D1C07A0CF070
:1057AC0003FD00283DD000254FF002092C4608F1DE
:1057BC00090A5046FAF7CEFC814513D208EB0903CF
:1057CC005B7A3D2B0CD0202B05D010A96A1C0D4404
:1057DC0005F8403CD5B209F101035FFA83F9E8E71B
:1057EC002C46F2E710AB2B44002503F8405CDCB9E7
:1057FC006846FAF7AFFCE5B2A84207EB050304F1E3
:10580C00010407D910AB2B4413F8400C0CF0CAFD63
:10581C007855EDE70022304615491A700CF018FD4A
:10582C00012010B0BDE8F087EBB2A34206D21DF800
:10583C0005000CF0B7FD78550135F5E700253D5511
:10584C000134E4B26846FAF785FC6719FFB2874267
:10585C0006EB050307D210AA174417F8402C0135A4
:10586C00EDB21A70EEE700221A70D9E70020D8E7E3
:10587C00D02D01082DE9FF4728262D4B044606FBA9
:10588C00013633790D46FE2B22D0FF2B4BD0022B49
:10589C001BD196F9185027490068FCF7D2FE284610
:1058AC0069460AF01CFF69462046FFF7B7FE96F9D9
:1058BC001C5021492068FCF7C4FE694628460AF0B2
:1058CC000EFF69462046FFF7A9FE04B0BDE8F0873D
:1058DC000846FFF749FD00268046DFF86490DFF8A4
:1058EC0064A0F7B201233A4629466846FFF7BEFC8E
:1058FC000028EAD0B3B248FA03F3DB0711D54946C6
:10590C002068FCF79EFE07F130012068C9B2FCF755
:10591C0025FE51462068FCF794FE69462046FFF7A9
:10592C007DFE0136DDE70549FFF778FECDE700BFC8
:10593C0014360108DC270108E4270108F3270108C5
:10594C00EC270108EF270108F0B5044689B008469A
:10595C000D46FFF731FD2827064634492068FCF731
:10596C0070FE334B206807FB0537B968FCF769FEFE
:10597C0030492068FCF765FE2EB920462E49FFF70A
:10598C004DFE09B0F0BD012229466846FFF77AFDAD
:10599C0069462068FCF755FE3B79FE2B06D0FF2BA1
:1059AC001DD02068611DFCF74CFEEAE72846FFF786
:1059BC00DFFB057821492068FCF743FE05F1300137
:1059CC002068C9B2FCF7CAFD1D492068FCF739FEF6
:1059DC00012EE6D11B492068FCF733FEE1E71A4B98
:1059EC005B78002BDDD16846FBF726F80428D8D865
:1059FC00DFE800F003080D12170014492068FCF7CB
:105A0C0020FECEE712492068FCF71BFEC9E71149BE
:105A1C002068FCF716FEC4E70F492068FCF711FE5E
:105A2C00BFE70E492068FCF70CFEBAE7EC2701082B
:105A3C0014360108EF270108022801081228010872
:105A4C000028010815280108CC0000202428010892
:105A5C00292801082E2801083328010839280108B3
:105A6C000129F8B506460D4601D9032907D11B4B70
:105A7C001B78022B03D030461949FFF7CFFD0024C9
:105A8C00164F012D08D12046FFF73CFB50B920469C
:105A9C00FFF74AFBA8B105E0022D08D12046FFF71D
:105AAC0031FB70B90134E4B22A2CEAD1F8BD032DD4
:105ABC0010D12046FFF738FB0028F3D03B78022B9F
:105ACC00E5D130462146FFF73FFF42F21070FDF75B
