:020000040800F2
:1000000000500020CD7F0008B57F0008B77F0008B2
:10001000B97F0008BB7F0008BD7F0008000000001A
:10002000000000000000000000000000BF7F00088A
:10003000C17F000800000000C37F0008C57F0008E2
:10004000158000081580000815800008158000083C
:10005000158000081580000815800008158000082C
:10006000158000081580000815800008158000081C
:10007000158000081580000815800008158000080C
:1000800015800008158000081580000815800008FC
:10009000158000081580000815800008C966000852
:1000A00015800008158000081580000815800008DC
:1000B000AD3600081580000815800008158000087E
:1000C00015800008158000081580000815800008BC
:1000D0001580000815800008911B0008B938000839
:1000E0001580000815800008158000080000000039
:1000F0000000000000000000000000000000000000
:0C01000000000000000000005FF808F1A3
:1001100010B5054C237833B9044B13B10448AFF341
:1001200000800123237010BD40000020000000006B
:100130002496000808B5034B1BB103490348AFF3ED
:10014000008008BD00000000440000202496000844
:10015000034613F8012B002AFBD1181A0138704707
:100160004FF0FF0C1CEAD0521EBF1CEAD15392EA9A
:100170000C0F93EA0C0F6FD01A4480EA010C400276
:1001800018BF5FEA41211ED04FF0006343EA5010D0
:1001900043EA5111A0FB01310CF00040B1F5000F12
:1001A0003EBF490041EAD3715B0040EA010062F1C1
:1001B0007F02FD2A1DD8B3F1004F40EBC25008BFAB
:1001C00020F00100704790F0000F0CF0004C08BFC9
:1001D00049024CEA502040EA51207F3AC2BFD2F196
:1001E000FF0340EAC250704740F400004FF00003A4
:1001F000013A5DDC12F1190FDCBF00F000407047DE
:10020000C2F10002410021FA02F1C2F1200200FA1B
:1002100002FC5FEA310040F1000053EA4C0308BFE2
:1002200020EADC70704792F0000F00F0004C02BF33
:10023000400010F4000F013AF9D040EA0C0093F0AE
:10024000000F01F0004C02BF490011F4000F013B08
:10025000F9D041EA0C018FE70CEAD15392EA0C0F76
:1002600018BF93EA0C0F0AD030F0004C18BF31F0E1
:10027000004CD8D180EA010000F00040704790F0B7
:10028000000F17BF90F0004F084691F0000F91F05B
:10029000004F14D092EA0C0F01D142020FD193EA21
:1002A0000C0F03D14B0218BF084608D180EA0100A9
:1002B00000F0004040F0FE4040F40000704740F085
:1002C000FE4040F44000704780F0004002E000BF74
:1002D00081F0004142001FBF5FEA410392EA030F31
:1002E0007FEA226C7FEA236C6AD04FEA1262D2EB7B
:1002F0001363C1BFD218414048404140B8BF5B4280
:10030000192B88BF704710F0004F40F4000020F018
:100310007F4018BF404211F0004F41F4000121F02E
:100320007F4118BF494292EA030F3FD0A2F1010278
:1003300041FA03FC10EB0C00C3F1200301FA03F1B6
:1003400000F0004302D5494260EB4000B0F5000FD9
:1003500013D3B0F1807F06D340084FEA310102F198
:100360000102FE2A51D2B1F1004F40EBC25008BF4A
:1003700020F0010040EA03007047490040EB000014
:10038000013A28BFB0F5000FEDD2B0FA80FCACF115
:10039000080CB2EB0C0200FA0CF0AABF00EBC25042
:1003A00052421843BCBFD0401843704792F0000F30
:1003B00081F4000106BF80F400000132013BB5E783
:1003C0004FEA41037FEA226C18BF7FEA236C21D0F9
:1003D00092EA030F04D092F0000F08BF084670475E
:1003E00090EA010F1CBF0020704712F07F4F04D12C
:1003F000400028BF40F00040704712F100723CBF3F
:1004000000F50000704700F0004343F0FE4040F468
:10041000000070477FEA226216BF08467FEA236326
:100420000146420206BF5FEA412390EA010F40F411
:10043000800070474FF0000304E000BF10F000435D
:1004400048BF40425FEA000C08BF704743F0964344
:1004500001464FF000001CE050EA010208BF70475F
:100460004FF000030AE000BF50EA010208BF7047E6
:1004700011F0004302D5404261EB41015FEA010CFB
:1004800002BF84460146002043F0B64308BFA3F1F3
:100490008053A3F50003BCFA8CF2083AA3EBC253D5
:1004A00010DB01FA02FC634400FA02FCC2F12002F4
:1004B000BCF1004F20FA02F243EB020008BF20F02B
:1004C0000100704702F1200201FA02FCC2F1200291
:1004D00050EA4C0021FA02F243EB020008BF20EA86
:1004E000DC7070474FF0FF3C06E000BF4FF0010C9E
:1004F00002E000BF4FF0010C4DF804CD4FEA40027E
:100500004FEA41037FEA226C18BF7FEA236C11D0C7
:1005100001B052EA530C18BF90EA010F58BFB2EB7A
:10052000030088BFC81738BF6FEAE17018BF40F0FA
:10053000010070477FEA226C02D15FEA402C05D1AE
:100540007FEA236CE4D15FEA412CE1D05DF8040B33
:10055000704700BF844608466146FFE70FB5FFF7C6
:10056000C9FF002848BF10F1000F0FBD4DF808ED7E
:10057000FFF7F4FF0CBF012000205DF808FB00BF6F
:100580004DF808EDFFF7EAFF34BF012000205DF8C9
:1005900008FB00BF4DF808EDFFF7E0FF94BF012016
:1005A00000205DF808FB00BF4DF808EDFFF7D2FF13
:1005B00094BF012000205DF808FB00BF4DF808ED56
:1005C000FFF7C8FF34BF012000205DF808FB00BF23
:1005D00042000ED2B2F1FE4F0BD34FF09E03B3EBAD
:1005E000126209D44FEA002343F0004323FA02F0D9
:1005F00070474FF00000704712F1610F01D14202C5
:1006000002D14FF0FF3070474FF00000704700BF3D
:100610000022427082700122C2700222B1FA81F17E
:1006200002710322490901704271704743788B427D
:100630001FD0012941700AD0022910D0C1B901236D
:10064000C3700223817003710323437170470378E1
:1006500043B1012383700223C3700023F3E70378BF
:10066000002BF6D0022383700023C3700123EAE736
:10067000FEE770470B8882B0ADF800304B88023936
:10068000ADF80230CB88ADF804300B89ADF80630F8
:10069000831C063013F8012B0DF1080C0CEB420201
:1006A00032F8082C834221F8022FF3D102B07047B0
:1006B0000844807870477F2807D0002807DA10F1B7
:1006C000800F06D04042C0B2704700207047012022
:1006D00070477F20704710B1404240B270477F2082
:1006E00070477F280FD010F1310F0EDA10F1780F1C
:1006F0000DDBFE23783040B2584346232330B0FB55
:10070000F3F0C0B27047FF207047FE207047002012
:1007100070477F2811D010F1310F10DA10F1780FE7
:1007200010DB40F2A963783040B2584346232330AF
:10073000B0FBF3F0AC3080B270470020704740F25D
:1007400055707047AC20704763289FBF40F24163EB
:100750005843642332309DBFB0FBF3F0BF3080B20A
:100760004FF4E06070474FF4F063A0F580605843A9
:1007700040F2FF7390FBF3F000F5787080B27047A1
:10078000FFF7F1BF4FF49663A0F58060584340F245
:10079000FF7390FBF3F000F2DC5080B27047A0F5DD
:1007A0008060D0EB001048BF033040F38F007047EB
:1007B000032812DD0C2812DD0F2812DD122812DDAD
:1007C000162812DD192812DD1C2812DD1F2812DD63
:1007D0002128CCBFFF200620704700207047012051
:1007E0007047022070470820704703207047072099
:1007F00070470420704705207047022807D0012861
:1008000007D040B1032814BFFF206F20704713208A
:1008100070471F207047012070477F281ABF404251
:10082000C0B2002070470000014B4840185C704780
:100830004C96000852B110B4054C0A4411F8013B23
:1008400058408A42205CF9D110BC7047704700BF05
:100850004C960008A0F16103192B0FD95F280DD029
:100860002338C3B2162B97BF05480120D840C04398
:1008700098BF00F0010080F0010070470120704730
:1008800001EC7F00F8B5024600245F27451E461D97
:1008900015F8010FFF2804BF0134E4B2FFF7DAFFB7
:1008A00000B92F70AE42F3D1062C04D119B10B68F8
:1008B00013608B88938000239371F8BD2DE9F84372
:1008C000012500264FF02808DFF82C90471E441D14
:1008D00017F8011F084808F07CFE10B1A0EB0900D2
:1008E000C0B2A0FB05038619A742A5FB0853EFD1B0
:1008F0003046BDE8F88300BF4C97000810B5417939
:10090000A1F13000C3B2092B07D80523B0FBF3F3E4
:1009100003EB8303C01AC0B210BD044C204608F09C
:1009200058FE0028F1D0001BC0B2EEE74C9700083B
:1009300070B50446FFF70CFC002382B2561E98B235
:10094000B04204EB000103DA255C0133302DF6D010
:10095000121A01322046BDE8704008F009BE0000BE
:100960002DE9F04F0D4699B0164600211A461F4654
:10097000804608F017FE00212A2201A8009108F005
:1009800011FEDFF8CC90DFF8CCA0DFF8CCB005EB9F
:100990004606AE424AD047F6FF7335F9020B98423D
:1009A00044D0002812DC59460CA808F01FFE684607
:1009B000FFF7CEFB04460CA8FFF7CAFB0444A7428E
:1009C000E7D368460CA908F0F5FDE2E7B0F57A7FB9
:1009D0000BDA0CA980B208F035FA0CA8FFF7A8FFD3
:1009E00051460CA808F0E6FDE1E764243230B0FB84
:1009F000F4F00CA980B208F025FA0CA8FFF798FFD4
:100A00000CA8FFF7A5FB00F15F036B4413F8302C33
:100A100000F160010DEB010000F8302C2E2203F8EC
:100A2000302C0023494600F82F3CDAE76846FFF7F0
:100A30008FFB30B100F160030DEB0300002300F8E1
:100A4000613C6946404608F0D1FD19B0BDE8F08F21
:100A500046960008419600083C960008F0B589B01B
:100A60006D4600242F468E1CE1B28A4205D936F825
:100A70002410013425F8021BF6E73946FFF770FF12
:100A800009B0F0BD42F21073B0FBF3F2642103FB36
:100A90001200B0FBF1F301FB130000EB023000EB9E
:100AA000831080B2704770B50D460021044616468B
:100AB00008F078FD00239AB2964204D9EA5C12B19C
:100AC000E2540133F7E770BD70B50E4614460021BD
:100AD0000132054608F066FD00239AB2944204D91B
:100AE000F25C12B1EA540133F7E770BD7D23438015
:100AF00043F23903C360002309B201808180C380BF
:100B00000372704702680449044B01FB023323F06F
:100B100000430360180C7047FD430300C39E26008A
:100B2000F0B5002597B0016085800446562229461D
:100B3000684608F037FD0126627DAA424BD920465F
:100B4000FFF7E0FFE77900217B1B90FBF3F2EC4617
:100B500002FB13000A46C0B2CBB29F420AD91CF86E
:100B600001EBBEF1000F03D1824204D00132D2B2B8
:100B70000131F1E7002300221146277BD0B28742E2
:100B800006D92069805C0132984208BF0121F5E74F
:100B90000029D1D1A2796119033A012A05D925B1D9
:100BA00091F9152082B9012BC6D98B75A26852F82C
:100BB0002310583305F10E026B44013544F822101E
:100BC00003F8586CEDB2B7E7501E8342EDDB0132FB
:100BD0009342EADCB0E70023802104F1B8002375DA
:100BE00017B0BDE8F04008F0DDBC2DE9F047154630
:100BF00096B0013D0160027104464371EDB2562288
:100C00000021684608F0CEFC022D98BF4FF0030982
:100C10004FF0000794F807808ABF4FF00109B8FB36
:100C2000F9F800253E464FF0010A627DB24250D9E4
:100C30002046FFF767FFA8EB060390FBF3F20021C5
:100C400002FB1300EC460A46C0B2CBB243450AD2BF
:100C50001CF801EBBEF1000F03D1824203D0013238
:100C6000D2B20131F1E70020434528BF4346844614
:100C700009FB035194F80CE0C9B2C2B2964507D9FA
:100C80002269125C01308A4208BF4FF0010CF4E780
:100C9000BCF1000FC9D116B19FB9012BC5D9A2195A
:100CA0009175A2681F4652F8211006F10E0244F811
:100CB000221003F158026A44013602F858ACF6B229
:100CC000B3E77A1E9342EADB7A1CD2B29342E6DCA7
:100CD000ABE70023802104F1B800237516B0BDE80E
:100CE000F04708F05FBC0023C0E90133C360037420
:100CF0007047F0B5047C0360012C11D94FF47A776A
:100D000044688568141B7C43C6684D1B05FB16446C
:100D10002B4494FBF3F33344C360C0E90121F0BDDD
:100D20001CB90123C4600374F7E74FF47A74436875
:100D3000D31A634384680C1B93FBF4F3C360022350
:100D4000F1E77047704770477047002070470020F8
:100D50007047704700207047054B82B0DA69024344
:100D6000DA61DB6918400190019B02B0704700BF57
:100D700000100240054B82B09A6902439A619B6958
:100D800018400190019B02B0704700BF0010024064
:100D900000F10C0353E8003F23F0800300F10C0145
:100DA00041E80032002AF3D1704770470288044BB3
:100DB0005140C9B233F8113083EA122303807047DF
:100DC000E0AC00089AB110B4B0F800C0084C0A4476
:100DD00011F8013B83EA0C03DBB234F81330914283
:100DE00083EA1C2CA0F800C0F2D110BC70477047F9
:100DF000E0AC00084FF6FF7337B50446ADF8063097
:100E00004518AC4206D014F8011B0DF10600FFF79F
:100E1000CDFFF6E7BDF8060003B030BD6421D0E990
:100E20000123D31AC3604B430349498D8260B3FB4E
:100E3000F1F30374704700BF60000020D0E9012384
:100E4000D31AC0E902237047044B1888044B80B2C0
:100E50001B889BB2C01A18BF01207047881A002057
:100E6000861A0020704700001E2208B500210348A2
:100E700008F098FB0022024B1A7008BD38050020CC
:100E8000EC0200202DE9F04113781546037092F82A
:100E90000180FD2B04460F46826880F8018052D104
:100EA0000A26AB788370EB78C3702B7903716B796A
:100EB0004371AB7983716B7A297A1B0403EB0123AD
:100EC000E9790B4463F3170282604246A91904F1E1
:100ED0000C0008F03FFB7A7B904507D208F10C002C
:100EE0000021A2EB0802204408F05CFB63781E445A
:100EF000731C9BB2EA5CAB5D03EB0223A4F80C31DC
:100F0000A378DB070ED50236B6B2354404F58873F4
:100F100005F10C0255F8041B954243F8041BF9D166
:100F20002A781A70BB7A84F82131FB7A84F822314E
:100F30003B7B84F823317B7B84F824313B7884F835
:100F40002031BDE8F08100234380AB780626037191
:100F5000EB7843712B798371697961F317028260B1
:100F6000B3E770B50B78054603704B780C464370B9
:100F70000B78FD2B38D10A268B788370CB78C37021
:100F80000B7903714B7943718B7983718B68C371D2
:100F90008B68C3F30F2303728B7A4372627804F178
:100FA0000C01A81908F0D6FA6378B4F80C21334480
:100FB000EA54B4F80C115A1C92B2090AA954A27846
:100FC000981CD20780B20ED504F58872054404F54A
:100FD0008E7452F8041BA24245F8041BF9D1127812
:100FE0000F332A7098B270BD00238B700B790626E0
:100FF00083704B79C3708B7903718B684371CDE734
:101000002DE9F74F0C4651880546B1F58C7F0FD37B
:1010100000211170D91CC9B2012995BF01210023FB
:10102000518053809CBF237011700020287097E07E
:10103000107802281ED00FD80028EBD0481C508012
:10104000635421789BB2FD290ED10C330A21D38041
:10105000022391801370E8E70E2813D0002010704F
:1010600050809080D080E1E7062108339180D380C2
:101070000E23EFE7481C5080D8076354F8D5D38877
:101080000D33F4E7481C508063545388D1888B4259
:101090005FD3002353801370022369802B70237861
:1010A000FD2B60D163792B72A3796B72637A227AFC
:1010B0001B0403EB0223E27913446B60637803F1B2
:1010C0000C026A80A278D10701D519336B80002603
:1010D0004FF4B3720C206968DFF8F4806E81B318A6
:1010E00001335B0800FB03F758F80770B94243D29D
:1010F0005A1EB242F3D80C27774358F8073099426A
:101100003DD123782046FD2B0CBF4FF00A094FF04C
:10111000060910F801BF4744CB440BF1FF3189B2F7
:10112000FFF768FE97F804A0ADF8060051460DF1F0
:101130000600FFF73BFE0BF10103E25C14F80B30F5
:1011400003EB0223BDF806209BB29A421FD0052074
:1011500016E092889A423FF668AF012300202B7078
:1011600003B0BDE8F08FE3782B7223796B7263795B
:101170006B6063780833A9E71E46BCD9B9E7032042
:101180002870023801288CBF00200120E8E7BB79D5
:10119000DA0707D56178FA79914282BF04EB090139
:1011A0008A5CAA729B0709D50C2303FB068362782D
:1011B0001B7A9A4282BF4C44E35CEB720C2303FB24
:1011C00006867379022085F80CA06B73D8E700BF00
:1011D000CC9A000870B50D4C0D4E0546062204F160
:1011E0000A0106F58970FFF76FFC237CC3F3031334
:1011F00086F81A31637CC3F3030386F81B31637AE4
:10120000DB0744BF02232B7370BD00BF71100020A9
:10121000980000204FF0320C0A4B0B491A680B4B18
:10122000A1FB0212920C0CFB02F202F5FA72A3FB74
:1012300002320749920948684B681B1A9A42FBD848
:10124000704700BF3400002083DE1B43D34D621083
:10125000001000E008B5FFF7DDFF1022014B1A6116
:1012600008BD00BF000801401022024B5A61FFF781
:10127000D1BF00BF000801406FF02002064B1A608A
:101280005B68064A52E8003F43F0200342E8003121
:101290000029F7D1704700BF004400400C440040D3
:1012A0007FB5FD230646044606F80C3B8DF8043056
:1012B00090F8243103F10C020244012B05D912F8F5
:1012C000010D10B9013BDBB2F7E7002563706580C3
:1012D0008DF805308B7A0DF1050023718DF80830FB
:1012E0008B7A8DF8065001338B72637909218DF862
:1012F0000930A3798DF807508DF80A30A368C3F33D
:1013000017031A128DF80B301B148DF80D308DF861
:101310000C20FFF76FFD62783146ADF802000DF149
:101320000200FFF74FFD94F82311FFF73FFDBDF8D2
:10133000023094F82421A4F80C316378934209D246
:10134000294603F10C00D21A204404B0BDE87040D5
:1013500008F028B904B070BD0023044A1380044A81
:101360001380044A1380044A13807047861A0020B1
:10137000881A00208A1E00208C1E002038B50446E2
:101380004D1E15F8011F21B123682046DB689847E0
:10139000F7E738BD0120FFF7EDBC00000D4B984288
:1013A00002D10420FFF7E6BC0B4B984205D003F5B1
:1013B0008063984203D11020F4E70820F2E7074B3E
:1013C000984201D12020EDE7054B984200D07047AC
:1013D0004020E7E700080140000C014000140140F4
:1013E000001801400B4B984203D14FF40060FFF707
:1013F000C1BCB0F1804F04D0074B984204D1022009
:1014000000E00120FFF7A8BC044B984201D1042062
:10141000F8E77047002C014000040040000800403D
:101420002DE9F0410C46154686B0074610220021F2
:1014300002A81E469DF8348008F0B4F801940B2DE4
:1014400007D8DFE805F00E0E070A14141416161656
:101450001B1DFEE70823029303E0082302930123E8
:101460000593032E0ED8DFE806F00E1E200E012392
:10147000F1E70123029304230493F2E70923EAE747
:101480000923F7E7FEE703230393B8F1000F02D027
:101490003846FFF783FF053D042D0BD8DFE805F044
:1014A00007110A0711000223EEE70123ECE7C4F35A
:1014B0000F247C61384601A907F0D4F906B0BDE8D5
:1014C000F081C4F30F243C61F4E713B54FF0010C35
:1014D0000024CDE9004CFFF7A3FF02B010BD0000CF
:1014E00070B50446164686B00D461422002101A8A8
:1014F00008F058F82046FFF775FF042E04D8DFE8FF
:1015000006F02A2E04323B00FEE71C4B1C4A1B68E7
:10151000B3FBF2F39BB20022013B204601A9ADF8D8
:101520000430CDE902250492059207F0D3FA23682E
:1015300023F080032360A36823F4804323F0070390
:10154000A360636823F070036360A36823F08003E3
:10155000A36006B070BD094B0A4A1B68D8E7074B69
:10156000094A1B68D4E7054B064A1B68B3FBF2F334
:1015700003EB83035B00CDE70123CCE734000020BD
:1015800080A8120140420F0000127A0010B50446F4
:10159000FFF7A6FF236843F00103236010BD00227C
:1015A0004FF0FF31FFF7F2BF1A4B10B55B681A4CD2
:1015B000236006F031FD194807F004F9184807F0D8
:1015C00001F9184807F0FEF8174807F083FB1748A1
:1015D00007F080FB07F0CAF94FF0E0220023136107
:1015E0005361936172B64FF0FF319A0002F160428D
:1015F000013302F56142082BC2F88010C2F8801155
:10160000F3D162B6034B1B6883F3088823689847BD
:10161000FEE700BF00F0FF1FE802002000080140C5
:10162000000C01400010014000380140004400401F
:10163000064B0748C01AEFF30883C2431A44013B24
:10164000984288BF0022AA2107F0ACBF0004000026
:101650000050002010B5124C03232046062240F60D
:101660000801FFF732FF2046032302220D49FFF74E
:101670002CFF032320461A460B49FFF726FF20467E
:101680000323052240F20221FFF71FFF2046BDE899
:1016900010400323052240F20111FFF716BF00BFDF
:1016A000000C01400100010402000204024B986892
:1016B000C0F34020704700BF000C014008B5FFF7A1
:1016C000F5FF08B100BFFAE708BD00000122024B98
:1016D0005A6102221A617047000C01400222024B3B
:1016E0005A6101221A617047000C014012480F2311
:1016F000016921F00F0193FAA3F3B3FA83F20123F6
:1017000093400B4303610D4B5A6822F480725A6078
:101710001A6822F480721A60DA6822F48072DA6041
:101720009A6842F480729A60D022054B83F817239E
:101730004FF400021A6070470000014000040140AD
:1017400000E100E04FF48072034B5A611A6842F4E2
:1017500080721A60704700BF0004014010B5054C4C
:101760000323052242F220012046FFF7AEFE20238C
:10177000636110BD000C01400023032240F20111FF
:101780000148FFF7A2BE00BF00080140024B986865
:10179000C04300F0010070470008014010B50A4C3A
:1017A0000023052220460949FFF78FFE002305226A
:1017B00020460749FFF789FE4FF4004363614FF469
:1017C0008043636110BD00BF0010014080008004B1
:1017D000400040040549CB681A04DB4302F0004294
:1017E00003F4004313430B61704700BF0010014036
:1017F0000549CB681A04DB4302F0804203F48043BE
:1018000013430B61704700BF001001400C4BD3F82D
:10181000FC2022F08072C3F8FC20D3F8FC2042F0B8
:101820008072C3F8FC20A3F55D431A6822F0010220
:101830001A601A6842F001021A6000225A6070476A
:1018400000ED00E0064B074A1B680749B3FBF2F3C3
:10185000434310B54C684A68121B9A42FBD310BD33
:101860003400002040420F00001000E02DE9F0415C
:1018700080464CF250300D4616461C4606F0B4FC2D
:1018800068BBB8F1010F06D0B8F1020F0CBF4FF0E2
:1018900002084FF004080027124A136943F00103BD
:1018A00013613801C0F12002A0F1200304FA02F212
:1018B00026FA00F0104324FA03F3184380B225F807
:1018C00017004CF2503006F08FFC18B90137FBB20C
:1018D0004345E6D3034A136923F001031361BDE8CE
:1018E000F08100BF002002407FB501230022CDE936
:1018F000040301A902A8CDE9022306F0B1FC0028E7
:101900000CBF0420052007B05DF804FB0A4608B5AB
:10191000014600230220FFF7A9FF00280CBF042086
:10192000052008BD08B5FFF7DFFF031F58425841E7
:1019300008BD08B5FFF7EAFF031F5842584108BD2C
:101940002DE9F047254B264D01280FBF7D267C262B
:10195000AA461D460F4614462249234A06BF894619
:101960009A46914606F024FC31462846FFF7DAFFF6
:1019700010B3002F08BF4FF478744FF00008033401
:10198000A40805F11006AAEB050A1FFA88F39C4289
:1019900018D93FB95AF806104B1C06D108F10108B6
:1019A0000436F2E757F82810F6E74E4513D23046D2
:1019B000FFF7BFFF0028F1D1002406F00BFC204602
:1019C000BDE8F0874FF011312846FFF7B2FF00283D
:1019D000F2D00424F1E70324EFE700BF00F0010890
:1019E00000F40108FFF70108FFF3010810B506F045
:1019F000DFFB7C210748FFF795FF20B17D210648DA
:101A0000FFF790FF20B9002406F0E4FB204610BD4C
:101A10000424F9E700F0010800F40108002330B5C0
:101A2000074A084D9CB2A14206D99C18AC4205D089
:101A30009C5CC4540133F5E7042030BD0320FCE76F
:101A400010F00108FFF3010838B504460D4672B6E0
:101A50000A4601460020FFF773FF62B6042806D14C
:101A600072B601202A462146FFF76AFF62B638BDEA
:101A700038B5124B1C68D3F80054B4F1113F09D1AA
:101A8000B5F1113F17D0002201201146BDE83840C2
:101A9000FFF756BFB5F1113F03D1002211461046A2
:101AA000F4E7FFF7A3FF042804D12C4001340CBF56
:101AB0000220012038BD0420FCE700BF00F001082F
:101AC000034B18739A68D207FCD5187B704700BF88
:101AD0000030014010B508781446FFF7F1FF207080
:101AE00010BD0000F0B50625012610278DB0274C4B
:101AF0002822002102A807F055FDFFF74BFC4FF408
:101B00008050FFF737F941F21001204603230622E7
:101B1000FFF7DBFC2046276103230A2242F2200163
:101B2000CDE90056FFF77CFC204603230A2248F249
:101B30008001CDE90056FFF773FC032320461A46C7
:101B400044F24001CDE90056FFF76AFC00234FF450
:101B50008272CDE90533CDE90933029303920493F0
:101B60004FF40072072304F52054204602A90B937A
:101B70000897079206F082FF236843F04003236032
:101B8000A3689B07FCD5237B0DB0F0BD0008014086
:101B90001C4B10B41A68940611D5D96888060ED566
:101BA000194C1A485968238800880133C3F30A0383
:101BB00080B298421FBF1648C9B2C1542380110792
:101BC00044BF104B5B68120616D50E48C3681B064F
:101BD00012D5104B104A1988138889B29BB29942CA
:101BE0000CD013880133C3F30903138013880B4A05
:101BF0009BB2D35CDBB2436010BC704710BCFFF7F4
:101C0000C7B800BF00440040881A0020861A002090
:101C1000861200208C1E00208A1E00208A1A0020B6
:101C20000C490D4A0B8812880133C3F3090392B2A1
:101C30009A420DD0094AD054094A0B8052E8003F1D
:101C400043F0800342E800310029F7D101207047BA
:101C5000002070478C1E00208A1E00208A1A002057
:101C60000C4400400846FFF7DBBF0000054B064A66
:101C70001B8812889B1A98B21B0444BF00F50060B1
:101C800080B27047881A0020861A0020FFF7EEBF46
:101C90000848094A0188138889B29BB29942F9D051
:101CA00013880133C3F30A0313801388034A9BB2DA
:101CB000D05C7047881A0020861A00208612002007
:101CC000FFF7E6BF002300B5002989B0CDE9063350
:101CD00018BF4FF48053CDE902320C2301900491D8
:101CE000034801A9059307F027F809B05DF804FB44
:101CF0000044004010B5064CE36823F40053E36051
:101D0000FFF7E0FFE36843F40053E36010BD00BF5A
:101D100000440040002208461146FFF7EBBF0000D8
:101D200073B508250126354C40F20441E36823F4DD
:101D30000053E360FFF72EFB4FF40030FFF70CF881
:101D400003230A22CDE900562D48FFF769FB032340
:101D500040F608011A46CDE900562948FFF760FB16
:101D600000224FF461401146FFF7ACFFB022236917
:101D700023F490432361636923F02A036361214BB9
:101D800083F8262340225A602046FFF701F81E4AB6
:101D900052E8003F23F0400342E800310029F7D128
:101DA0006FF040032360194B1980194B198052E8DA
:101DB000003F23F0200342E800310029F7D16FF003
:101DC00020020E4B1A60134A1180134A11801A69BF
:101DD00022F400621A615A6922F008025A611A69F3
:101DE00022F480421A615A6922F022025A61DA68AA
:101DF00042F40052DA6002B070BD00BF00440040FF
:101E00000008014000E100E00C4400408A1E002070
:101E10008C1E0020861A0020881A002008B5FFF7C3
:101E20007FFFBDE80840FFF727BAFFF7F7BF0000C4
:101E300070B51A4C90220021201D07F0B3FB01233E
:101E400023800F23164E052231466380A380A01DF8
:101E50002C23FEF703FE4FF480330025114A314650
:101E6000C4E90D2304F13E002C230522A587FEF7CB
:101E7000F5FD0D4B0D4904F17A00E366A4F87050AE
:101E800084F872506567A4F8785007F0AFFB7F23A1
:101E900084F88F30052384F8903070BD5402002000
:101EA0008C9900080200010002000700C897000892
:101EB00070B5094E05460C46415C304607F089FB7B
:101EC000034628B1831B0133DBB2282B28BF002334
:101ED000F35C2B5570BD00BFA099000870B50D468E
:101EE00011460446164607F081FB2DB3013D082D2F
:101EF00008D8DFE805F00511131517191B1D1F0081
:101F000035236371627973799A4215D12046BDE811
:101F100070400521FFF7CCBF6123F2E76623F0E7AD
:101F20006B23EEE77023ECE77523EAE77A23E8E713
:101F30003123E6E73223E4E770BD000073B50546C0
:101F400005F111061C4C01461C4A68463601FFF794
:101F5000C5FFB01C6946204407F048FB142000234D
:101F600040F2012100FB054004EB05122644737288
:101F7000A2F81A310222C1640421A0F84A2080F894
:101F80005010A0F852304FF4807180F8543084F82B
:101F90003030C4F83A30C4F83E30C4F8423040F231
:101FA0000113E284064AA4F84630C4E90A12A4F8F0
:101FB000483002B070BD00BF98000020899700082B
:101FC00003010100F7B5054605F111060146A94ACE
:101FD000A94C68463701FFF781FFB81C69462044C9
:101FE0002744FEF74FFC7B7A04EB0610052B84BFD9
:101FF00000237B72A14B427A198841FA02F212F057
:1020000001020DD1427259B111F0010208D141FA19
:1020100002F7FF07D0B240F1DE8104EB06125072E6
:1020200004EB051191F81A012A01032802D90020B6
:1020300081F81A01A718588897F81A1140FA01F187
:10204000C90711D4022187F81A1168B14707C0F3F4
:10205000800109D440FA01FC1CF0010FCFB200F05E
:10206000BF81A11881F81A71A11891F81B010328EA
:1020700002D9002081F81B01A718988897F81B1136
:1020800040FA01F111F001010FD187F81B1160B185
:1020900010F0010109D140FA01FC1CF0010FCFB290
:1020A00000F0A381A11881F81B7104EB0616717A68
:1020B000012905D904291EBF0021121982F81B111C
:1020C000142202FB054191F84A00042802D902209B
:1020D00081F84A0002FB054292F84B10042902D90C
:1020E000002182F84B10142202FB0542998E92F8CF
:1020F0004B0041FA00F0C00712D4012082F84B00D7
:1021000071B18F07C1F340020AD441FA02F6F60713
:10211000D0B240F16F81142202FB054282F84B00DD
:10212000142202FB054292F84C10032902D9012126
:1021300082F84C10142000FB0540D98E90F84C20FA
:1021400041FA02F212F0010210D180F84C2069B17C
:1021500011F001020AD141FA02F6F707D0B240F1BC
:102160004E81142202FB054282F84C00142202FB2D
:10217000054292F84E10012902D9002182F84E1032
:10218000142000FB0540198F90F84E2041FA02F20E
:1021900012F0010210D180F84E2069B111F0010255
:1021A0000AD141FA02F6F607D0B240F12D8114228D
:1021B00002FB054282F84E00142202FB054292F80F
:1021C0004F10022902D9002182F84F10142000FB81
:1021D0000540598F90F84F2041FA02F212F00102A7
:1021E00010D180F84F2069B111F001020AD141FAF3
:1021F00002F6F707D0B240F10C81142202FB05422F
:1022000082F84F00142202FB054191F84D0002288C
:1022100002D9022081F84D0002FB054292F85010CD
:10222000052902D9042182F85010142202FB05412D
:1022300091F85200012802D9002081F8520002FBD7
:10224000054292F85310022902D9002182F8531056
:10225000142000FB0540998F90F8532041FA02F2B8
:1022600012F0010217D180F85320A1B111F0010240
:1022700011D105E089970008980000205402002041
:1022800041FA02F6F607D0B240F1C880142202FBF0
:10229000054282F85300142202FB054191F85400D4
:1022A000022802D9002081F8540002FB054292F86E
:1022B0004C10012906D192F84F10022904BF0021C9
:1022C00082F84F1094F82620042A02D9022284F8BA
:1022D000262094F82720042A02D9002284F82720F7
:1022E000B3F86C1094F8272041FA02F2D6070FD405
:1022F000012284F8272059B18807C1F3400207D48E
:1023000041FA02F6F707D0B240F18D8084F8270039
:1023100094F82820022A02D9002284F8282094F870
:102320002920022A02D9012284F82920B3F86E104C
:1023300094F8293041FA03F313F00102674B0CD1F2
:1023400084F8292049B111F0010206D141FA02F6C0
:10235000F607D0B26CD583F8290094F82A200C2A0D
:1023600002D9002284F82A2094F832200C2A02D9BB
:10237000002284F8322093F82B20042A02D900226C
:1023800083F82B2093F82F20012A02D9002283F80A
:102390002F20534AB2F8701093F82F2041FA02F21E
:1023A00012F001020CD183F82F2049B111F0010283
:1023B00006D141FA02F4E707D0B23DD583F82F00E9
:1023C00000221046474911F9014B14F1780F37DA12
:1023D00001F8010C36E00132102A7FF418AE1FE636
:1023E000013110297FF436AE3EE6013110297FF429
:1023F00052AE5AE60132102A7FF487AE90E60132DF
:10240000102A7FF4A8AEB1E60132102A7FF4C9AEDB
:10241000D2E60132102A7FF4EAAEF3E60132102A46
:102420007FF42EAF37E70132102A7FF469AF6FE7F0
:102430000132102A8AD190E70132102AB9D1BFE7C0
:10244000782CC5DC0132D2B20C2ABCD1002201208A
:10245000254911F8014B0132022CD2B288BF01F894
:10246000010C042AF5D193F82C20052A02D9032265
:1024700083F82C2093F82D20022A02D9012283F818
:102480002D2093F82E20022A02D9012283F82E2033
:1024900093F83020022A02D9002283F83020142138
:1024A000FF226943581883F8312080F851204FF6F5
:1024B000FF744FF0FF32553103EB051558181A62BF
:1024C0009A84C5F81C21A5F820415A504260047234
:1024D00083F833205A631A8703B0F0BD98000020B8
:1024E00054020020D2000020DE000020124B987021
:1024F000032803D8DFE800F0030E141AFEE70F4AA2
:102500009A6200221A710A22033818BF01201A7435
:10251000987370470A4A9A6201221A710F22F3E7F0
:10252000084A9A6202221A711922EDE7064A9A6253
:1025300000221A710722E7E7600000201400320031
:1025400020001F003500130009006F002DE9F34142
:1025500000F111074F4E3F0107F10208B044054654
:102560004046FEF7ABF9042101900DEB0100FEF7A8
:1025700041FC0021484C019B96F82620A360474B64
:10258000374413F8223060822373454B84F83410AB
:1025900023637B7A2F0106EB051595F81A0163700A
:1025A000FFF7A4FF6378628A63732377A261A17740
:1025B0001BB94046FEF7A2F9A077374497F81B21D4
:1025C000627762B1618A02EB021303EB03230B44CF
:1025D0004FF011316382A36801FB0233A360237FB4
:1025E000052B04D8DFE803F0042F3133353BFEE739
:1025F000A378032B03D8DFE803F003222403FEE7CC
:102600001823237540F2E243207DA385FDF716FFD2
:102610004FF07F51FDF7A4FDFDF7DAFF4FF47A7319
:10262000228DC0B2B3FBF2F3238496F82C30E08500
:10263000052B26D8DFE803F0151F2225282B1223AF
:10264000DFE70C23DDE71923DBE70623D9E70223C5
:10265000D7E7A378012BF2D0022BF2D0FEE70323B9
:10266000CFE74FF416536362002384F83530E386D6
:1026700002B0BDE8F0814FF49643F4E74FF41643FF
:10268000F1E74FF46143EEE74FF4E133EBE74FF44A
:102690006133E8E798000020600000208C99000872
:1026A000010100014FF4DE72FF21014806F07ABFFC
:1026B000980000204FF4DE710148FFF7C5B900BF54
:1026C000980000204FF4DE710148FFF7A7B900BF62
:1026D0009800002008B5FFF7F5FF034B1878BDE818
:1026E0000840FFF76FBC00BF6000002070B5FFF727
:1026F000D9FFFFF7BDF904280CD0FFF7D3FFFFF790
:10270000B7F9042803D1FFF7DDFF042806D0FFF74F
:10271000C9FF03E0FFF7D6FF0428EED140F24F12C5
:102720003E4CA38A934267D0B3F5A47F36D80125E7
:10273000062204F1160104F58970FEF7C5F9637FDE
:1027400084F81931A37F84F81A3128460135EDB297
:10275000FFF7F4FB0A2DF8D10023E37740F24F1383
:102760000125A38242F2137322692D499A422B4814
:102770004FF010021CBF0125236106F03FFF002827
:102780003CD0102226492548FEF78DF9082225491C
:102790002548FEF788F9FFF78DFF31E0B3F5A77FF5
:1027A00022D82346002203250121022693F84C005B
:1027B00001280DD003280ED093F84F0001280DD02A
:1027C00002280ED001320A2A03F11403EED1C5E724
:1027D00083F84C50F0E783F84C10EDE783F84F6036
:1027E000F0E783F84F10EDE70025E8B20135FFF779
:1027F000A5FB0A2DF9D1AFE70025B3E7002DCAD11B
:102800000023E377094C2370FFF712FB2078FFF7D2
:10281000D9FB2078BDE87040FFF798BE98000020F3
:1028200090970008A19700084A020020600000204D
:1028300010B5C01A9DF80840123080F30500A04280
:10284000C8BF20B2C0B2123B08701844107010BD4F
:1028500007B5084611461A46122300931B23FFF7BB
:10286000E7FF03B05DF804FB0229F7B5054600D980
:10287000FEE70B4E0F0106EB0114A3786278F15DC1
:10288000846006F099FCE37928460193A3792279C4
:102890000093E178637906F0B8FC03B0F0BD00BFA7
:1028A000F4AE0008024638B5044652F8143B5D69A0
:1028B00000F11503A8472046217D2022BDE83840BD
:1028C00006F007BD70B58D7A044686B0016175B318
:1028D000012106F047FC0121204606F060FD0121A0
:1028E000204606F076FD2369204693F90810FFF78D
:1028F000D9FF236920461978FFF7B6FF002220464A
:10290000114606F04CFC002344F2030220460093DB
:102910004FF6FF7106F095FC20464FF6FF7106F06A
:10292000BEFC204606B0BDE8704006F044BD032161
:1029300006F018FC2046012106F031FD2046012159
:1029400006F047FD2369204693F90810FFF7AAFF18
:1029500023692A465E680B4B2046E36086211023DC
:1029600006F05CFD46F6E823CDE902535B23042222
:10297000CDE90053702110232046CDE9046506F00F
:102980005CFDBBE7E0AE000810B5044606F013FDA1
:102990002046BDE810404FF6FF7106F080BC0000F5
:1029A00038B583680446B3B9C368A3B9036801693D
:1029B0005D6900F1140200F1150391F90810A847B0
:1029C00023699A7A52B11A78022A00D9FEE7054B98
:1029D00003EB0213A36094F9150038BD024BE360CA
:1029E000F9E700BFF4AE0008E0AE0008012230B500
:1029F000A1F12103C1F1210422FA04F44D1E02FACF
:102A000003F32343AA404FF0FF344FF0FF35C0E9F2
:102A10000223C0E90445C0E90623017080F82010B4
:102A200030BD002201231146F0B5D0E90276D0E98D
:102A300004549F4276EB020C0BD303EA050C02EA26
:102A4000040E5CEA0E0C1CBF013189B2DB18524146
:102A5000EFE7D0E90632DB1852419F4280F82010A0
:102A600076EB02010AD3C0E90632D0E9062325EA53
:102A7000020524EA0304C0E90454F0BD0122002346
:102A8000C0E90623F1E7000090F8D8305BB190F878
:102A9000D930074A180102EB03139B6819781358C1
:102AA00053F821007047037D0E3350F82300704720
:102AB0002C99000837B5194B02885B8A05469A4263
:102AC00027D1847814F0D00425D18379812B22D8A2
:102AD0004FF6FF730D2201460DF10600ADF80630EA
:102AE000FEF770F9B5F80D20BDF806309A420ED108
:102AF0004C2205F10D01FEF765F9B5F85920BDF836
:102B000006309A4218BF0424204603B030BD032487
:102B1000FAE70124F8E70224F6E700BF600000208E
:102B20000A7ACB7902F0070243EA022303804B7A48
:102B30000A7A03F03F035B0143EAD20343808B7AB6
:102B40004A7A9B0043EA9213CA7A02F0010243EAEE
:102B5000822383800B7BCA7A03F00F03DB0143EAF5
:102B60005203C3800B7BC3F30112012A11D813F067
:102B7000300F0CBF00234FF4806303830B7B7F2B4C
:102B80000AD813F0C00F0CBF00234FF480634383B7
:102B9000704740F2FF73F0E740F2FF73F7E70A7AFD
:102BA000CB7902F0070243EA022303804B7A0A7AC8
:102BB00003F03F035B0143EAD20343808B7A4A7AF6
:102BC0009B0043EA9213CA7A02F0010243EA82238D
:102BD00083800B7BCA7A03F00F03DB0143EA5203C5
:102BE000C3800A7CCB7B02F0070243EA0223038105
:102BF0004B7C0A7C03F03F035B0143EAD203438131
:102C00008B7C4A7C9B0043EA9213CA7C02F001024F
:102C100043EA822383810B7DCA7C03F00F03DB012F
:102C200043EA5203C3814B7DDB0003828B7DDB00D3
:102C30004382CB7DDB0083820B7EDB00C3820B7B78
:102C4000C3F30112012A2BD813F0300F0CBF00235D
:102C50004FF4806303830B7B7F2B24D813F0C00FCA
:102C60000CBF00234FF4806343830B7DC3F3011239
:102C7000012A1BD813F0300F0CBF00234FF48063E0
:102C800083830B7D7F2B14D813F0C00F0CBF002360
:102C90004FF48063C3834FF480630384438470479D
:102CA00040F2FF73D6E740F2FF73DDE740F2FF73B7
:102CB000E6E740F2FF73EDE72DE9F34104461546E0
:102CC00088469DF820605B22522E4FF000011F467F
:102CD00028BF522606F066FC2C4B5B8A23802A789C
:102CE000A37862F30203A3706A78DBB2D20002F029
:102CF000080242EA081103F007031943A1706A7938
:102D0000E37862F30003E370AA79637962F38613D0
:102D1000637195F90200FDF7CEFCE37860F3470399
:102D2000E370EA78237962F3060323712B7903F0C9
:102D30000102237903F07F0343EAC21323712B7945
:102D4000C3F34502637923F03F0313436371A3790F
:102D5000E21D66F34703A3713B463E44B34204D0F1
:102D600013F8011B02F8011BF8E74FF6FF73592215
:102D700021460DF10600ADF80630FEF723F8BDF848
:102D80000630A4F8593002B0BDE8F08160000020A0
:102D900007B5009313460A460121FFF78DFF03B0E4
:102DA0005DF804FB30B5334B027893F8261000F140
:102DB000170461F30302027093F8271061F30712FE
:102DC000027093F82810427861F30302427093F87E
:102DD000291061F30712427093F82A10827861F388
:102DE0000302827093F83210827961F303028271D8
:102DF00093F82B10827861F30712827093F82C10ED
:102E0000C27861F30302C27093F82D1061F30712C8
:102E1000C27093F82E10027961F30302027193F8E5
:102E20002F1061F30712027193F83010427961F3A9
:102E30000302427103F13A0100F10B0211F9015B47
:102E400002F8015BA242F9D193F84610C27D61F30A
:102E50000102C27593F8471061F38302C27593F8BB
:102E6000481061F30512C27593F8493063F3871275
:102E7000C27530BD9800002002782F4BC2F30302C8
:102E800030B583F82620027803F13A01C2F3031229
:102E900083F82720427800F11704C2F3030283F875
:102EA00028204278C2F3031283F829208278C2F3E3
:102EB000030283F82A208279C2F3030283F83220C6
:102EC0008278C2F3031283F82B20C278C2F3030284
:102ED00083F82C20C278C2F3031283F82D200279E4
:102EE000C2F3030283F82E200279C2F3031283F89F
:102EF0002F204279C2F3030283F8302000F10B0245
:102F000012F9015BA24201F8015BF9D1C27DC2F363
:102F1000010283F84620C27DC2F3810283F8472074
:102F2000C27DC2F3011283F84820C27DC2F3811230
:102F300083F8492030BD00BF9800002070B55226AC
:102F400098B0324604460D4603A8002106F02AFB3D
:102F5000212342F213708DF80C30FDF793FD40F2FF
:102F60004F1314222249ADF80E000DF11200ADF8F6
:102F70001030FDF798FD1F48FFF712FD1E4B8DF82E
:102F8000260093F830300AA88DF82730FFF70AFFA3
:102F90004FF68073ADF846300A23ADF8483064230D
:102FA000ADF84A30FA23ADF84C304FF4FA73ADF86F
:102FB0004E3047F6FF73ADF85030ADF85230ADF8F3
:102FC00054300E4B0221B3F86C2020468DF8562069
:102FD000B3F86E20B3F870308DF857208DF8583064
:102FE0002A46009603ABFFF767FE18B070BD00BF1E
:102FF000A797000844100020600000205402002021
:1030000038B504460F4D00F11B01062205F5897005
:10301000FDF75AFD94F8213004F12500C3F30303B2
:1030200085F8193194F82130C3F3031385F81A3168
:1030300094F82230C3F3030385F81B31BDE8384010
:10304000FFF71ABF9800002010B50446FDF7E6FE12
:1030500004F11400FDF7E2FE04F12800FDF7DEFEA6
:1030600004F13C00FDF7DAFE04F15000FDF7D6FE56
:1030700004F16400FDF7E2FE04F17800FDF7DEFEE6
:1030800010BD000000230A4A8380126883718260A9
:10309000084A83810384136803615368064A4361C5
:1030A000136883615368C3614EF660230360704701
:1030B000901E0020B7970008C097000810B5104C6C
:1030C0000220FFF713FA2046FFF75EFC20466FF060
:1030D0007F01FFF7E7FB0021204606F02CF84FF4B4
:1030E0007A70FEF7AFFB2046012106F03BF823691A
:1030F00020461978FFF7B8FB2046FFF745FC10BDC6
:103100004410002008B51E4B0246196890F8203084
:1031100013BBFEF73BFB28B982F8210092F8203060
:103120005BB30AE092F8213001335BB2032B82F8E3
:103130002130F3DD012382F820309368CB1AB3F5F8
:103140007A6F01D901235371137923B9537913B1DC
:1031500001231371137308BDFEF718FB18B1042384
:1031600082F82130DAE792F82130013B5BB2002B84
:1031700082F82130D2DC82F820009160E4E700BFC1
:10318000901E00200346007B821E012A4FF00002A1
:1031900002D893F8201009B91A7370471046704787
:1031A0000A4A38B51388044601339BB2502B0D46AA
:1031B00001D8138038BD002305491380FEF7DEF8DF
:1031C00029462046FEF7DAF8F4E700BF280300207E
:1031D000C99700082DE9F74F16460546884600278F
:1031E0007049FEF7CBF831462846FEF7C7F86E4B1C
:1031F000B8F1010F6D4C1F8011D14FF400434FF413
:103200008047636146F2A8102761FEF71BFB6761E8
:10321000FEF718FB31462846FFF7C2FFF2E7B8F188
:10322000020F11D14FF480434FF40047636146F21F
:10323000A8102761FEF706FB6761FEF703FB314626
:103240002846FFF7ADFFF2E7B8F1030F11D14FF4B5
:1032500000434FF48047236146F2A8102761FEF730
:10326000F1FA6761FEF7EEFA31462846FFF798FF5C
:10327000F2E7B8F1040F11D14FF480434FF4004747
:10328000236146F2A8102761FEF7DCFA6761FEF7BA
:10329000D9FA31462846FFF783FFF2E7B8F1050F68
:1032A00014D14FF480484FF4004746F2A810C4F8F8
:1032B00010802761FEF7C6FAC4F814806761FEF734
:1032C000C1FA31462846FFF76BFFEEE7B8F1060F6B
:1032D00014D14FF480484FF4004746F2A810C4F8C8
:1032E00010806761FEF7AEFAC4F814802761FEF71C
:1032F000A9FA31462846FFF753FFEEE7A8F10A0383
:10330000042B40D84FF4004B4FF48049A8F1090A30
:103310005FFA8AFA0423574538BFC4F810B0019306
:1033200046F2A810C4F81090FEF78CFAC4F8149076
:10333000FEF788FA31462846FFF732FF019B013B32
:1033400013F0FF03EBD10423C4F814B0019346F249
:10335000A810C4F81090FEF775FAC4F81490FEF7A0
:1033600071FA31462846FFF71BFF019B013B13F022
:10337000FF03EBD10137A8F10803FFB2DBB2BB4278
:1033800038BF0027C6E74FF4804323614FF4004362
:1033900023614CF25030FEF755FA31462846FFF7CC
:1033A000FFFEF6E7C997000828030020001001403F
:1033B000054A064B11681B780B441360044A1368D6
:1033C00001331360704700BF901E002038000020BA
:1033D0002403002037B50C461D4668B907480DF197
:1033E00006020DF1070105F0CAFF2B4622469DF8A3
:1033F0000610024805F07AFE03B030BD44100020EC
:1034000070B50D4616461C460146B0B9FEF75EF98A
:103410000C4833462A4605F043FE4FF6FF71094833
:1034200005F03DFF22010748012192B205F061FF3E
:10343000BDE870407D20FEF705BA0248FFF7A4FA08
:1034400070BD00BF441000202DE9F0415B27054608
:10345000174C0E463A460021204606F0A3F8AB6909
:1034600004F10E002360EB6912496360124B1B7874
:103470009A1E53425341627A63F30002627213222E
:10348000A27227220023E272142223736373FDF7D2
:103490000AFB59212046FDF7ADFC084BA4F8590062
:1034A0003A4621463046BDE8F0411B7CFFF7A8BFF5
:1034B000740E0020A79700081B0300206000002066
:1034C00037B50C46A8B9124803699D7A9DB101F140
:1034D0008E020DF1060105F036FFBDF90630002B16
:1034E00010DB4FF6FF73ADF80630BDF8063084F8F8
:1034F0008C3003B030BD0DF1060105F0F9FF84F802
:103500008E50EAE77F33F0DA4FF68173EBE700BFC6
:10351000441000200A4608B501460148FFF75AFE4C
:1035200028000020164600B591B0044668461D46A6
:1035300006F05CF81849684606F03CF8304605F09D
:10354000BDFC0146684606F035F81449684606F0A9
:1035500031F8134B684653F8251006F02BF8114943
:10356000684606F027F8104D9DF84830684655F833
:10357000231006F01FF80D49684606F01BF89DF869
:103580004C30684655F8231006F014F86A46214678
:103590000748FFF71FFE00BFCB970008D29700082F
:1035A00000000020D797000810000020DE970008D8
:1035B000280000200246002108B50148FFF70AFE56
:1035C000280000200148FDF7EABF00BF00040040CA
:1035D000014B586A80B27047000400400A490B88CA
:1035E00003B9FEE772B64FF0804309885A6A114466
:1035F00064325963DA636FF002021A616FF00802F5
:103600001A6162B6704700BF5C00002000B503225B
:1036100089B04FF0FF314FF08040FDF7B7FF202217
:103620000021684605F0BEFF64236A4601214FF081
:103630008040039305F086FAC8236A464FF48071F0
:103640004FF08040039305F07DFAA022044B83F8ED
:103650001C234FF080521A6009B05DF804FB00BFD4
:1036600000E100E04FF08043DA6842F00202DA60E5
:10367000DA6842F00802DA607047000010B50022F4
:10368000044601EB8101074B01EB810189001980A0
:10369000054B1A70FFF7BAFF2046BDE81040FFF750
:1036A000E1BF00BF5C000020210300204FF08043F9
:1036B0001A6991070AD56FF002021A615A6B6432D7
:1036C000DA63084A596B12880A445A634FF0804300
:1036D0001A69120705D56FF008021A610122024B20
:1036E0001A7070475C000020210300204FF07F3CDF
:1036F00038B5214B044621480022C3E923C0FF20EE
:1037000083F895004FF6FF700D46C3E90222C3E926
:103710000722C3E90C22C3E91122C3E91622C3E937
:103720001B22C3E920225A601A749A6183F824206C
:10373000DA6283F838201A6483F84C205A6583F8DB
:1037400060209A6683F87420DA6783F88820A3F8EB
:103750009600A3F8982004F1280083F89A20FFF738
:1037600045F9294604F15000FFF740F92946204663
:10377000FFF73CF938BD00BFA80F0020FFFF7F0016
:1037800010B504462830FFF74CF904F15000FFF75C
:1037900048F92046FFF745F910BD00004FF07F3192
:1037A000194B1A4A30B5C3E92312FF2283F895203A
:1037B0004FF6FF72A3F896200022A3F8982083F812
:1037C0009A204FF0FF32D0E90C454FF0FF3390F8CC
:1037D0002810C0E90E23C0E91823C0E90423D0E96A
:1037E000022380F84810C0E9062390F850100378AF
:1037F000C0E91045D0E9164580F87010C0E91A45B7
:1038000080F8203030BD00BFA80F0020FFFF7F00F0
:10381000D0E9042310B5D0E9064122430B43C0E9A7
:103820000423024A53680133536010BDA80F0020DF
:10383000D0E90E2310B5D0E9104122430B43C0E973
:103840000E23024A93690133936110BDA80F002033
:10385000D0E9182310B5D0E91A4122430B43C0E93F
:103860001823024AD36A0133D36210BDA80F002087
:10387000064B1B78022B06D1054B93F82400012838
:1038800038BF012070470020704700BF1B03002095
:10389000A80F0020064B1B78022B06D1054B93F88E
:1038A0006000012838BF012070470020704700BF2A
:1038B0001B030020A80F00200E4803681A0617D526
:1038C000C3681B0614D50C4B0C4A1988138889B29F
:1038D0009BB299420AD013880133DBB2138013885C
:1038E000074A9BB2D35CDBB243607047FDF750BA26
:1038F000704700BF00480040841200208212002060
:10390000821100200C490D4A0B8812880133DBB26A
:1039100092B29A420DD00A4AD0540A4A0B8052E819
:10392000003F43F0800342E800310029F7D1012035
:1039300070470020704700BF8412002082120020D0
:10394000821100200C4800400846FFF7DBBF000052
:10395000002300B5002989B0CDE9063318BF4FF424
:103960008053CDE902320C2301900491034801A950
:10397000059305F0E1F909B05DF804FB004800404B
:1039800010B5064CE36823F40053E360FFF7E0FF53
:10399000E36843F40053E36010BD00BF00480040FB
:1039A00008B549B14FF400524FF480610348FFF766
:1039B000E7FF2022024B5A61012008BDA0860100CA
:1039C000000C014008B539B1002204481146FFF748
:1039D000D7FF2022024B5A61012008BD9A5B0600E6
:1039E000000C014008B549B14FF400524FF480611A
:1039F0000348FFF7C5FF2022024B1A61012008BDD2
:103A0000A0860100000C014013B5284C2849E3684A
:103A100023F40053E360FDF7BDFC4FF48020FDF775
:103A20009BF9082301222348CDE9003203230A220F
:103A3000FDF7F6FC002220481146FFF789FFC0225F
:103A4000236923F490432361636923F02A036361AC
:103A50001A4B83F8272380225A602046FDF798F9F5
:103A6000174951E8003F23F0400341E80032002AA3
:103A7000F7D16FF040032360124B1A80124B1A806B
:103A8000236923F400632361636923F008036361FE
:103A9000236923F480432361636923F02203636174
:103AA000E36843F40053E36002B010BD00480040F7
:103AB00004000404000C0140A086010000E100E0C5
:103AC0000C480040821200208412002030B5244CA3
:103AD00085B005460E220021684605F063FD94F886
:103AE0008C3020488DF8003094F88D308DF80130FE
:103AF000FFF7BEFE94F8902094F98F1094F98E3061
:103B00008DF80200002A18BF0B468DF8033094F898
:103B1000913015488DF804208DF80530FEF740FFF0
:103B200094F892308DF806008DF8073094F89330B1
:103B300069468DF8083094F8953028468DF80A309B
:103B400094F896308DF80B30084B9B788DF80C303C
:103B500001238DF80D3003F088FE05B030BD00BFA5
:103B6000A80F0020300F002044100020600000202B
:103B70002DE9F041164605468846002704F018FB5B
:103B8000B6B2BBB29E4212D958F827102B688B42AE
:103B900002D104350137F4E72846FDF7CAFE044692
:103BA0000028F6D104F016FB2046BDE8F08104247D
:103BB000F8E7000000000000012337B5304A038019
:103BC0000446304B3048D3E90051914208BF85424A
:103BD0004FF0000202D1227003B030BD26A1D1E91E
:103BE0000001C3E90001294B294862601A4652F8D6
:103BF000041B4D1C03D0B1F1AA3F00D0B9B9126823
:103C0000511C11D1636060680368009342685D1CB9
:103C1000019218D101322AD14FF0AA330093022227
:103C20006946FFF7A5FFD7E7B2F1AA3FEAD008330C
:103C30008342DBD172B6154D7E212846FDF772FE18
:103C400062B66560DFE7B3F1AA3F08D1511C01D12C
:103C50000193E4E7B2F1AA3F09D10023DEE733B9CB
:103C6000B2F1AA3F03D14FF480722280F0E7002323
:103C700023700093ECE700BF12345678FEDCBA9054
:103C8000FEDCBA90200000201234567800F80108BB
:103C900000FC0108037807B56BB1084B1B68B3F54E
:103CA000FA6F08D300230222037069464068CDE909
:103CB0000033FFF75DFF03B05DF804FB901E0020AA
:103CC0000148FFF78BBC00BF18030020F8B50E4673
:103CD0000746144D5B232946304614462A46FFF713
:103CE00079FBD7E9041328686A689A4208BF8842BA
:103CF00009D0002430460C49FFF7E2FB002C0CBF32
:103D000001200320F8BD59212846FDF773F8B5F8C6
:103D100059308342EDD114B1FFF7D2FFEAE7012415
:103D2000E8E700BF71100020A80F002013B50121A3
:103D300004460844FDF75EF8A178ADF806000DF1E1
:103D40000600FDF733F8E178FDF730F82179FDF74B
:103D50002DF86179FDF72AF8A179FDF727F804F12C
:103D600008010322FDF72EF8627804F10C01FDF73B
:103D700029F894F82311FDF719F8BDF80630A4F8D6
:103D80000C3102B010BD0000003818BF0120014BFB
:103D900018707047EC02002030B5002A40F0128104
:103DA000042B00F2E981002B00F0098191F800C09A
:103DB000834C10F80C2094F81BE022EA0E0200F865
:103DC0000C20E27E5208E27652B90A784FF0FF0CDE
:103DD00001320A708022E2760A7800F802C0E27EA0
:103DE00091F800E010F80EC02CEA020200F80E2054
:103DF000E27E5208E27652B90A784FF0FF0C0132A7
:103E00000A708022E2760A7800F802C0E27E91F819
:103E100000E010F80EC02CEA020200F80E20E27E4C
:103E20005208E276002A00F0AF82012B00F0C78032
:103E300091F800C094F81BE010F80C2022EA0E0262
:103E400000F80C20E27E5208E27652B90A784FF070
:103E5000FF0C01320A708022E2760A7800F802C074
:103E6000E27E91F800E010F80EC02CEA020200F8A1
:103E70000E20E27E5208E27652B90A784FF0FF0C2B
:103E800001320A708022E2760A7800F802C0E27EEF
:103E900091F800E010F80EC02CEA020200F80E20A3
:103EA000E27E5208E2764AB90A784FF0FF0C0132FE
:103EB0000A708022E2760A7800F802C0022B7ED0D7
:103EC00091F800C094F81BE010F80C2022EA0E02D2
:103ED00000F80C20E27E5208E27642B90A78FF250B
:103EE00001320A708022E2760A788554E27E91F8E7
:103EF00000E010F80EC02CEA020200F80E20E27E6C
:103F00005208E27642B90A78FF2501320A7080220F
:103F1000E2760A788554E27E91F800E010F80EC04F
:103F20002CEA020200F80E20E27E5208E2763AB94C
:103F30000A78FF2501320A708022E2760A788554D9
:103F4000032B3CD00A7894F81BC0835C23EA0C0353
:103F50008354E37E5B08E37643B98025FF220B7828
:103F600001330B70E5760B78C254E37E91F800C004
:103F700010F80C2022EA030300F80C30E37E5B0803
:103F8000E37643B98025FF220B7801330B70E57689
:103F90000B78C254E37E91F800C010F80C2022EA9E
:103FA000030300F80C30E37E5B08E3763BB9802521
:103FB000FF220B7801330B70E5760B78C25430BDCD
:103FC00038050020FF2AFAD1032B00F2EB81002BE9
:103FD000F5D091F800E0674C10F80EC0E57E2CEAB1
:103FE000050C00F80EC094F81BC04FEA5C05E5769E
:103FF0004DB94FF0800C0D7801350D7084F81BC061
:104000000D784255E57E91F800E010F80E2022EA86
:10401000050C00F80EC0E27E5208E27642B90A783A
:10402000FF2501320A708022E2760A788554E27E0A
:104030005208E27642B90A78FF2501320A708022DE
:10404000E2760A788554E27E91F800E010F80EC01E
:104050002CEA020200F80E20E27E5208E276002AE4
:1040600000F07B82012BAAD091F800C0E57E10F809
:104070000C2022EA050200F80C20E27E5208E276CB
:1040800042B90A78FF2501320A708022E2760A7866
:104090008554E27E91F800E010F80EC02CEA02028E
:1040A00000F80E20E27E5208E27642B90A78FF2537
:1040B00001320A708022E2760A788554E27E520844
:1040C000E27642B90A78FF2501320A708022E27650
:1040D0000A788554E27E91F800E010F80EC02CEAD0
:1040E000020200F80E20E27E5208E2763AB90A781F
:1040F000FF2501320A708022E2760A788554022B6D
:104100003FF45DAF0A78E57E835C23EA05038354C0
:10411000E37E5B08E37643B98025FF220B78013309
:104120000B70E5760B78C254E37E0D78425D22EA8F
:1041300003034355E37E5B08E37643B98025FF2202
:104140000B7801330B70E5760B78C254E37E5B0885
:10415000E37643B98025FF220B7801330B70E576B7
:104160000B78C254E37E0D78425D22EA0303435587
:1041700019E700BF3805002091F800C0884C10F8FE
:104180000C2094F81BE003F5C06322EA0E0200F84D
:104190000C20E27E5208E2763AB90A78FF25013215
:1041A0000A708022E2760A78855491F800C094F86B
:1041B0001BE010F80C2022EA0E0200F80C20E27E30
:1041C0005208E2763AB90A78FF2501320A70802255
:1041D000E2760A788554E27E5208E2763AB90A78A5
:1041E000FF2501320A708022E2760A788554E27E49
:1041F0005208E2763AB90A78FF2501320A70802225
:10420000E2760A78855491F800C094F81BE010F823
:104210000C2022EA0E0200F80C20E27E5208E27620
:104220003AB90A78FF2501320A708022E2760A78CC
:1042300085541D0608D491F800C0E57E10F80C20C6
:1042400022EA050200F80C20E27E5208E2763AB932
:104250000A78FF2501320A708022E2760A788554B6
:104260005A0608D491F800C0E57E10F80C2022EA26
:10427000050200F80C20E27E5208E2763AB90A788C
:10428000FF2501320A708022E2760A7885549D0665
:1042900008D491F800C0E57E10F80C2022EA05024F
:1042A00000F80C20E27E5208E2763AB90A78FF253F
:1042B00001320A708022E2760A788554DA0608D440
:1042C00091F800C0E57E10F80C2022EA050200F803
:1042D0000C20E27E5208E2763AB90A78FF250132D4
:1042E0000A708022E2760A7885541D0708D491F876
:1042F00000C0E57E10F80C2022EA050200F80C2030
:10430000E27E5208E2763AB90A78FF2501320A7055
:104310008022E2760A7885545A0708D491F800C0C2
:10432000E57E10F80C2022EA050200F80C20E27E5F
:104330005208E2763AB90A78FF2501320A708022E3
:10434000E2760A7885549D0708D491F800C0E57E8E
:1043500010F80C2022EA050200F80C20E27E520838
:10436000E2763AB90A78FF2501320A708022E276B5
:104370000A788554DB073FF516AE0A78E57E835C44
:1043800023EA050383540EE60A784FF0FF0C01324E
:104390000A708022E2760A7800F802C045E500BF84
:1043A000380500200D78714C10F805C094F81BE01A
:1043B00003F5E0632CEA0E0C00F805C094F81BC06E
:1043C0004FEA5C05E57645B94FF0800C0D78013574
:1043D0000D7084F81BC00D7842550D7894F81BC001
:1043E000425D22EA0C024255E27E5208E2763AB978
:1043F0000A78FF2501320A708022E2760A78855415
:10440000E27E5208E2763AB90A78FF2501320A7054
:104410008022E2760A788554E27E5208E2763AB942
:104420000A78FF2501320A708022E2760A788554E4
:10443000E27E5208E2763AB90A78FF2501320A7024
:104440008022E2760A7885541A0606D40D7894F80C
:104450001BC0425D22EA0C024255E27E5208E2761F
:104460003AB90A78FF2501320A708022E2760A788A
:1044700085545D0606D40D7894F81BC0425D22EA8F
:104480000C024255E27E5208E2763AB90A78FF25DC
:1044900001320A708022E2760A7885549A0606D4A0
:1044A0000D7894F81BC0425D22EA0C024255E27E70
:1044B0005208E2763AB90A78FF2501320A70802262
:1044C000E2760A788554DD0606D40D7894F81BC090
:1044D000425D22EA0C024255E27E5208E2763AB987
:1044E0000A78FF2501320A708022E2760A78855424
:1044F0001A0706D40D7894F81BC0425D22EA0C021C
:104500004255E27E5208E2763AB90A78FF25013236
:104510000A708022E2760A7885545D0706D40D7809
:1045200094F81BC0425D22EA0C024255E27E52081A
:10453000E2763AB90A78FF2501320A708022E276E3
:104540000A7885549A073FF509AF0D7894F81BC097
:10455000425D22EA0C02425500E70A78FF2501324B
:104560000A708022E2760A7885547BE538050020BF
:104570002DE9F0474FF000088026FF25A84C81F870
:1045800000801F46E6760570002B00F0468107F19B
:10459000FF395FFA89F9C24643469144561E0DE041
:1045A000454540F0D1800AF1010A5FFA8AFA0A789B
:1045B000BA4280F0C1804E4500F01E8116F8015FBE
:1045C000002BEDD16B1EDBB2FD2B00F2B8803F2B30
:1045D00040F2F48005F14103DBB23F2B00F2BB80D7
:1045E000E37E01355B08EDB2E376002B00F0F98045
:1045F0005B08E37653B94FF0800CFF220B78013350
:104600000B7084F81BC00B78C254E37EAA0608D452
:1046100091F800C010F80C2022EA030300F80C30D7
:10462000E37E5B08E37653B94FF0800CFF220B78F2
:1046300001330B7084F81BC00B78C254E37EEA068A
:1046400008D491F800C010F80C2022EA030300F807
:104650000C30E37E5B08E37653B94FF0800CFF2209
:104660000B7801330B7084F81BC00B78C254E37EC7
:104670002A0708D491F800C010F80C2022EA03039E
:1046800000F80C30E37E5B08E37653B94FF0800C02
:10469000FF220B7801330B7084F81BC00B78C254D7
:1046A000E37E6A0708D491F800C010F80C2022EAD3
:1046B000030300F80C30E37E5B08E37653B94FF058
:1046C000800CFF220B7801330B7084F81BC00B7831
:1046D000C254E37EAA0708D491F800C010F80C2059
:1046E00022EA030300F80C30E37E5B08E37653B95B
:1046F0004FF0800CFF220B7801330B7084F81BC045
:104700000B78C254E37EEA0705D40D78425D22EAB5
:1047100003034355E37E5B08E376D3B94FF0800C87
:10472000FF250A7801320A7084F81BC00A78855484
:104730000A78BA42FFF43FAF0020BDE8F0874FF09F
:10474000010AA846534632E753464246FFF724FB88
:1047500038E700232BE70A7894F81BC0835C3F35C9
:1047600023EA0C038354E37EEDB25B08E37653B98E
:104770004FF0800CFF220B7801330B7084F81BC0C4
:104780000B78C254E37E5B08E37653B94FF0800C9C
:10479000FF220B7801330B7084F81BC00B78C254D6
:1047A000E37E6A063FF524AF91F800C010F80C20B4
:1047B00022EA030300F80C30E37E19E7E37E7F353D
:1047C0005B08EDB2E376002BEED14FF0800CFF22B8
:1047D0000B7801330B7084F81BC00B78C254E37E56
:1047E000E2E74FF0800CFF220B7801330B7084F866
:1047F0001BC00B78C254DFE75BB9E37E802B1EBF82
:104800000132D2B20A70974294BF00200120BDE865
:10481000F08753464246FFF7BFFA0A78EDE700BF3C
:10482000380500202DE9F04F6F2277230026027013
:10483000867043700B780D46A3F1FE03B3FA83F341
:104840005B0983708A78044612F001011CBF43F0B3
:1048500080038370D5F8202185B022F07F4222F0BA
:10486000FF0212B143F008038370AA68C2F3170273
:10487000FF2A1AD9B2F5803F14D34FF0020A63F031
:104880007F03A37041EA0A01E1700B220A21092685
:104890004FF0080807204FF0060C4FF0050E4FF0C0
:1048A000040913E043F00203A3701E0600F1EB803D
:1048B0000A22092108264FF0000A4FF007080620B7
:1048C0004FF0050C4FF0040E4FF0030995F801B0BE
:1048D000374604F809B095F804B0434604F80EB022
:1048E00095F805E0019104F80CE095F806C0A144A4
:1048F00004F800C0A078000709D595F82101884682
:10490000E0540B4695F822111646E1551746AA6861
:10491000E254A378990708D5AB6808F10202C3F303
:104920000F23E35597B2B0463E46BAF1000F05D0CB
:10493000AB7AB046E355771CBFB23E46A378DA06A1
:1049400006D595F82331B046E355771CBFB23E46F5
:104950004E4B01361B781FFA86FAA24405F10C0B68
:1049600043B15A4650466B780DF10F01FFF700FE38
:1049700000286CD1594650466A7804F0EBFD6B78FC
:1049800001932278424BD243D2B294F801B09A5CA0
:1049900094F8029082EA0B029A5C94F803E089EAA8
:1049A000020913F8092094F804C08EEA020E13F8E5
:1049B0000E2060798CEA020C13F80C20A17950408B
:1049C0001A5C94F807A051405A5C5146B8F1070FA1
:1049D00082EA01029A5C25D0217AB8F1080F82EAB6
:1049E00001029A5C1ED0617AB8F1090F82EA0102D5
:1049F0009A5C17D0A17AB8F10A0F82EA01029A5C98
:104A000010D0E17AB8F10B0F82EA01029A5C09D06A
:104A1000217BB8F10C0F82EA01029A5C1EBF617B18
:104A20004A409A5CE255019AB5F80C311644B6B288
:104A3000A355B5F80C21731C9BB2120AE254AB7853
:104A4000B01CDB0780B20CD405B0BDE8F08FA378B2
:104A500043F04003A3709DF80F30019389F80030B4
:104A60008FE7D5F81821D5F81071D5F8141123184F
:104A7000275059609A6095F81C210F36B0B21A730E
:104A800005B0BDE8F08F4FF0000AFDE6EC02002013
:104A9000CC9900082DE9F84F0746A94D0C46284649
:104AA0003946164604F056FD00234FF40041A54A4E
:104AB00023709183002E00F0B7804FF0400A4FF032
:104AC000800E4FF0FF09984695F800C082F81DA0AF
:104AD0004FEADC1C517F15F803B04FEA4C0C1BEA7F
:104AE000010F4FEA510018BF4CF0010C507700281D
:104AF00040F09C800133DBB2BCF1020F137782F8E7
:104B00001DE000F0FD81BCF1030F00F05F8280200A
:104B1000BCF1010F40F0E8809E4240F2858015F81C
:104B200003C010EA0C0F14BF01210021400840F01F
:104B3000B0830133DBB29E42137782F81DE073D954
:104B4000E85615F803C000284FEA410180F291842D
:104B50008020400841F0010140F0A4830133DBB222
:104B60009E42137782F81DE05ED9E856490000287E
:104B700015F803C0C9B201DA41F0010149001CF087
:104B8000400F18BF2020C9B200F0188541F0010184
:104B9000002840F014850133DBB29E42137782F87F
:104BA0001DE041D9E8564900002815F803C0C9B2F4
:104BB00001DA41F0010149001CF0400F18BF20202C
:104BC000C9B200F0058541F00101002840F00185DF
:104BD0000133DBB29E42137782F81DE024D9EB56F5
:104BE0004900002BC9B201DA41F0010182F81DA091
:104BF00041312378581C2070F954137F9E4213D9F9
:104C0000517FE85C01424FEA510114BF4FF0010CA3
:104C10004FF0000C517721B90133DBB2137782F8E2
:104C20001DE09E423FF656AFBDE8F88FBCF1020F83
:104C300000F0BB81BCF1030F7FF46AAF15F803C02D
:104C40001CEA000F14BF01200020890840F0C68133
:104C50000133DBB29E42137782F81DE0E4D9E956B6
:104C600015F803C000294FEA400001DA40F00100C6
:104C70001CF0400F18BF20214FEA400000F0448490
:104C800040F00100002940F040840133DBB29E4235
:104C9000137782F81DE0C7D94000C1B2E85615F875
:104CA00003C0002801DA41F0010149001CF0400F67
:104CB00018BF2020C9B200F0778441F0010100281C
:104CC00040F073840133DBB29E42137782F81DE01B
:104CD000AAD9EB564900002BC9B201DA41F0010113
:104CE00082F81DA0413984E79E429DD915F803C082
:104CF000410851770CEA000BC1B90133DBB21377DD
:104D000082F81DE0BBF1000F13D09E428CD9E9560A
:104D100015F803C00029B8BF402082F81DA04EDB63
:104D20002378591C217007F8039066E7BBF1000F48
:104D30000AD12378591C217007F803805DE700BF72
:104D40000C0400203805002080080CEA010150778F
:104D500098BB0133DBB2137782F81DE00029DFD066
:104D60009E427FF661AFE95615F803C0002982F82C
:104D70001DA080F2AC834FF0400BB342BFF454AFA0
:104D8000E85C1BEA000F14BF012100215FEA5B0C05
:104D900040F082830133DBB29E42137782F81DE03C
:104DA0007FF642AFE8564900002801DA41F00101E0
:104DB0004FF0400B82F81DA02DE00029B0D04FEA43
:104DC000500B82F81DB00CEA0001BBF1000F40F05F
:104DD000F0810133DBB2137782F81DE0002900F087
:104DE00051819E427FF620AFE85CC10940064FEA40
:104DF000410140F193834FF0200B41F0010182F813
:104E00001DB0BBF1000F06D14FF0800B0133DBB2B8
:104E1000137782F81DE09E427FF606AFE85C4900FA
:104E20001BEA000FC9B218BF41F001015FEA5B0C39
:104E300040F0D4820133DBB29E42137782F81DE04A
:104E40007FF6F2AEE85649000028C9B201DA41F017
:104E500001014FF0400B82F81DA09E427FF6E4AEA8
:104E6000E85C49001BEA000FC9B218BF41F001011C
:104E70005FEA5B0B40F0C9820133DBB29E421377DD
:104E800082F81DE07FF6D0AEE85649000028C9B28E
:104E900080F2F6824FF0800B5FEA5B0B41F001017C
:104EA00040F0BE820133DBB29E42137782F81DE0F0
:104EB0007FF6BAAEE85649000028C9B2C0F2F582C2
:104EC0004FF0400B4900C8B2E95C1BEA010F00F04B
:104ED000C2824FEA5B0140F00100517719B90133FA
:104EE000137782F81DE000212378013103F1010CD2
:104EF00084F800C007F80390CBB29842F4D87CE65F
:104F00009E427FF691AE15F803B04FEADB101BF01E
:104F1000400F18BF20214FEA400000F0058340F009
:104F20000100002940F001830133DBB29E42137778
:104F300082F81DE07FF678AE4000C1B2E85615F861
:104F400003B0002801DA41F0010149001BF0400FD5
:104F500018BF2020C9B200F0F18241F00101002801
:104F600040F0ED820133DBB29E42137782F81DE000
:104F70007FF65AAE15F903C04900BCF1000FE85C9A
:104F8000C9B201DA41F001014900400648BF2020C2
:104F9000C9B240F1DD8241F00101507718B9013307
:104FA000137782F81DE0013123E61BEA000F14BFDE
:104FB000012000205FEA910C00F019811BEA0C0F20
:104FC0004FEAD1014FEA4000A9D1AAE79E427FF6FD
:104FD0002BAE402115F803C04FEADC101CEA010F8C
:104FE0004FEA40004FEA510B01D040F00100BBF105
:104FF000000F40F0FC820133DBB29E42137782F84F
:105000001DE07FF611AE4000C1B2E85615F803C0AE
:10501000002801DA41F0010149001CF0400F18BFDF
:105020004FF0200BC8B200F0A38240F00100BBF1AA
:10503000000F40F09F820133DBB29E42137782F86B
:105040001DE07FF6F1AD15F903C04100BCF1000F82
:10505000E85CC9B201DA41F001014900400648BFED
:105060004FF0200BC9B240F18F8241F0010182F86C
:105070001DB0BBF1000F7FF435AE0133137782F81A
:105080001DE02FE69E427FF6CFADE85CC1094006E9
:1050900048BF4FF0200B4FEA410140F1248241F01C
:1050A000010182F81DB0BBF1000F06D14FF0800B5B
:1050B0000133DBB2137782F81DE09E427FF6B4AD78
:1050C000E85C49001BEA000FC9B218BF41F00101BA
:1050D0005FEA5B0B40F03A810133DBB29E4213770B
:1050E00082F81DE07FF6A0ADE85649000028C9B25D
:1050F00080F2C1814FF0800B5FEA5B0B41F0010150
:1051000040F02F810133DBB29E42137782F81DE01D
:105110007FF68AADE85649000028C9B280F2AE8118
:105120004FF0800B5FEA5B0041F0010140F0248109
:105130000133DBB29E42137782F81DE07FF674AD37
:10514000E85649000028C9B280F29D8180204008BD
:1051500041F0010140F01B810133DBB29E42137725
:1051600082F81DE07FF660ADE85649000028C9B21C
:10517000C0F29081402015F803C0490010EA0C0FDE
:10518000C9B200F01E81400841F00101507718B902
:105190000133137782F81DE000232078013300F1FA
:1051A000010C84F800C007F80080D8B28842F4D31C
:1051B00023E500297FF4E1AD1BEA0C0F14BF0121A8
:1051C0000021800840F086810133DBB29E421377D4
:1051D00082F81DE07FF628ADE8564900002801DA84
:1051E00041F001014FF0400B82F81DA065E701334B
:1051F000DBB29E42137782F81DE07FF615ADE956CB
:1052000015F803B000294FEA400001DA40F0010030
:1052100040001BF0400F18BF4FF0200CC0B200F050
:10522000688140F00100BCF1000F40F0648101335F
:10523000DBB29E42137782F81DE07FF6F5AC4100A9
:10524000E85615F803B00028C9B201DA41F00101AF
:1052500049001BF0400F18BF4FF0200CC9B200F0FE
:10526000988141F00101BCF1000F40F094810133BD
:10527000DBB29E42137782F81DE07FF6D5ACEB5689
:105280004900002BC9B201DA41F0010182F81DA0EA
:1052900089E61CEA000F4FEA41017FF45AAC40084E
:1052A0003FF45CAC490010EA0C0FC9B24FEA500B56
:1052B00001D041F00101BBF1000F40F0A2810133A8
:1052C000DBB29E42137782F81DE07FF6ADACE85664
:1052D0004900002815F803C0C9B201DA41F0010104
:1052E00049001CF0400F18BF4FF0200BC9B200F06E
:1052F000338141F00101BBF1000F40F02F810133F8
:10530000DBB29E42137782F81DE07FF68DAC15F973
:1053100003C04900BCF1000FE85CC9B201DA41F0FA
:1053200001014900400648BF4FF0200BC9B240F1CF
:10533000598141F0010182F81DB0BBF1000F7FF4EB
:1053400057AC0133137782F81DE051E4E85C490063
:105350001BEA000FC9B27FF4CFAE5FEA5B0B3FF4EC
:10536000D1AEE85C49001BEA000FC9B27FF4DAAEA7
:105370005FEA5B003FF4DCAE15F803C0490010EAB9
:105380000C0FC9B27FF4E3AE40083FF4E5AE15F868
:1053900003C0490010EA0C0FC9B201D041F001016D
:1053A00040087FF4E8AE0133DBB29E42137782F807
:1053B0001DE07FF639ACE85649000028C9B27CDB15
:1053C000802040085077002872D10133DBB2137778
:1053D00082F81DE000297FF4DFAE0FE4490010EAF7
:1053E0000C0F4FEA9B0BC9B201D041F0010182F8CA
:1053F0001DB0BBF1000F7FF430AD0133DBB24FF0D5
:10540000800B137782F81DE027E5E85C49001BEA72
:10541000000FC9B27FF440AD5FEA5B0B3FF442ADD1
:10542000E85C49001BEA000FC9B201D041F001015C
:105430005FEA5B0B7FF446AD0133DBB29E4213772C
:1054400082F81DE07FF6F0AB4900C8B2E9560029AA
:1054500038DB4FF0800B4FEA5B015177A9B901337C
:10546000DBB2137782F81DE000287FF43CADFFF734
:10547000C5BB402016E74FF0400B72E740207BE7AA
:105480004FF0400BCCE7402081E700287FF42BADA4
:10549000FFF7B6BB802081E710EA0C0F4FEA9B0BA9
:1054A0004FEA41013FF4ABACA7E44FF0800BBDE7FE
:1054B00000297FF471AEFFF7A3BB41F0010182F830
:1054C0001DA069E640F0010082F81DA00BE5202038
:1054D000CCF380111CEA000F4FEA41014FEA500B58
:1054E0007FF4DDADDDE54FF020004FF0200B50776D
:1054F000E3E54FF0200C41001CEA0B0FC9B24FEA64
:105500005C003FF42CAD28E52021400011EA0C0F8F
:10551000C0B24FEA510B3FF48AAD86E54FF0200050
:105520004FF0200B507776E42021400011EA0B0F5A
:10553000C0B24FEA510C3FF476AE72E6202049002B
:1055400010EA0B0FC9B24FEA500C3FF48CAE88E65C
:105550004FF02003537726E54FF0200B49001BEA5C
:105560000C0FC9B24FEA5B003FF42FABFFF72BBB28
:105570004FF0200B41001BEA0C0FC9B24FEA5B0051
:105580003FF49DABFFF799BB4FF020035377FFF734
:10559000A9BB4FF0200C49001CEA0B0FC9B24FEA1F
:1055A0005C003FF4FAACF6E42020490010EA0C0F4E
:1055B000C9B24FEA500B3FF45AAD56E520204900DE
:1055C00010EA0C0FC9B24FEA500B3FF494AE90E6CC
:1055D0002020490010EA0C0FC9B24FEA500B3FF4EB
:1055E000AAAEA6E64FF020035377FFF701BB4000B9
:1055F0001BEA0C0F4FEA9101C0B23FF443ABFFF737
:105600003FBB49001BEA0C0F4FEA9000C9B23FF4C0
:10561000BFAAFFF7BBBA00BF2DE9F04F0D46518876
:105620001446B1F58F7F064687B00CD90022227050
:1056300000226F2B628000F07681002300203370FF
:1056400007B0BDE8F08F12780E2A23D80E2A00F298
:105650001F8101A050F822F0315600089F58000821
:1056600091580008915800089F5800089F5800085A
:105670009F5800089F5800089F5800089F5800082E
:10568000ED580008915800089158000891580008FA
:1056900013590008692A40F2F9806A2A40F0F8801C
:1056A000A54F7A7D002A00F0B48202F1020CFF229D
:1056B000DFF888E2BC44B91C11F8010B4240614597
:1056C0001EF80220F8D1934200F0EE8100222270F1
:1056D000C4F80220E28097F81580B8F1020FACD927
:1056E0003A796F2A00F09A83B8F1030FA5D07A793E
:1056F0006F2A00F09983B8F1040F9ED0BA796F2A0F
:1057000000F09583B8F1050F97D0FA796F2A00F071
:105710009183B8F1060F90D03A7A6F2A00F07B821D
:10572000B8F1070F89D07A7A6F2A00F08683B8F132
:10573000080F82D0BA7A6F2A00F08283B8F1090F7D
:105740003FF47BAFFA7A6F2A00F07D83B8F10A0F3D
:105750003FF473AF3A7B6F2A00F07883B8F10B0FF8
:105760003FF46BAF7A7B6F2A00F07383B8F10C0FB4
:105770003FF463AFBA7B6F2A00F06E83B8F10D0F70
:105780003FF45BAFFA7B6F2A00F06983B8F10E0F2C
:105790003FF453AF3A7C6F2A00F06783B8F10F0FE4
:1057A0003FF44BAF7A7C6F2A00F05C83B8F1100FA6
:1057B0003FF443AFBA7C6F2A00F05A83B8F1110F5F
:1057C0003FF43BAFFA7C6F2A00F05583B8F1120F1B
:1057D0003FF433AF3A7D6F2A7FF42FAF4FF01209B9
:1057E00008F1010A5FFA8AFA07EB080C8CF802301C
:1057F0005349524602A887F815A003F0ABFE6F2369
:105800000120BB700021642309EB000CE2453980C4
:10581000787523707FF611AF08F1FF33A3EB09030E
:105820000DF108090CF1FF32DBB2CC444FF06A0EE7
:105830004FF007084A44634406E0BCF1000F40F013
:10584000ED819A423FF4F9AE97F815C012F8019F26
:105850000CF1010ABC4487F815A08CF8029094F86A
:1058600000C0BCF1090FE8D9ACF1640C5FFA8CFA06
:10587000BAF1050FE5D8BCF1050FE2D8DFE81CF05E
:1058800052013A0136012F012A012501632A06D867
:10589000002300202370C4F80230E380CFE6264FB7
:1058A0007A7D511C3A44797593702278092A00F266
:1058B000A980002A3FF4C1AE013A082A3FF6BDAEE6
:1058C00001A151F822F000BFD75B00083B56000849
:1058D0003B560008BB5A0008BB5A0008FD5B000895
:1058E0008D5B0008C15B0008AB5B00084A1C124ED0
:1058F00062806B54A088B27E618883189942C0F29E
:10590000D88033785F0600F12E820E2300202370AA
:1059100096E64A1C62806B54E2886388934211D2F7
:10592000012300208BE604490A808B700122642346
:105930004A752370002381E638050020CC990008C1
:105940003A050020002302216380237031707280A9
:105950002B78FD2B00F08F80EB7833722B797372EC
:105960006A7972606B78083373804FF4B3700023E8
:10597000E9210446DFF8DCC2738101348A424FEA30
:10598000540432D34BD88A4240F095802B78FD2BBB
:1059900000F087804FF0060A28466300019310F854
:1059A000013FAC4F0AEB030808F1FF3189B2FBF766
:1059B00021FA04EB440907EB890999F804B0ADF822
:1059C0000800594602A8FBF7F1F908F101039BB260
:1059D000E95C15F80830BDF8082003EB01239BB201
:1059E0009A421ED00523002029E6601E834280F0E3
:1059F000B3811C18671C27F0010101EB57015CF80B
:105A00002110BAE7643AD1B205293FF616AE052A4D
:105A10003FF613AEDFE802F097A8A0A4938F2346C9
:105A2000E4E799F80630DA0708D599F8072069788D
:105A3000914282BF521912F80A20B2729B070BD50D
:105A40006300234407EB83031B7A6A789A4282BF80
:105A50005B1913F80A30F372630023441C460223D7
:105A600007EB84077A7986F80CB0727301203370E3
:105A700007B0BDE8F08F6B793372AB7973726A7AD5
:105A8000297AEB79120402EB01221A4472606B78D6
:105A900003F10C017180A978C9077FF566AF19334E
:105AA00062E74FF00A0A77E70A22012300202270FA
:105AB000C5E50020C4E50323D8E76288511C618056
:105AC000AB5423780133237034E787F8199084F8B6
:105AD00000E0B6E687F8189084F80080B1E64FF051
