:020000040800F2
:1000000000500020A5D800088DD800088FD800081F
:1000100091D8000893D8000895D800080000000087
:1000200000000000000000000000000097D8000859
:1000300099D80008000000009BD800089DD800084F
:10004000EDD80008EDD80008EDD80008EDD800087C
:10005000EDD80008EDD80008EDD80008EDD800086C
:10006000EDD80008EDD80008EDD80008EDD800085C
:10007000EDD80008EDD80008EDD80008EDD800084C
:10008000C9340008D5340008EDD80008EDD80008C0
:10009000EDD80008EDD80008EDD80008EDD800082C
:1000A000EDD80008EDD80008EDD80008EDD800081C
:1000B000EDD80008094C0008EDD80008B13400085C
:1000C000BD340008EDD80008EDD80008EDD80008D0
:1000D000EDD80008F93000089D610008E58C0008A3
:1000E000FDC50008EDD80008EDD8000800000000AC
:1000F0000000000000000000000000000000000000
:0C01000000000000000000005FF808F1A3
:10010C0010B5054C237833B9044B13B10448AFF345
:10011C0000800123237010BDB000002000000000FF
:10012C008C1D010808B5034B1BB103490348AFF301
:10013C00008008BD00000000B40000208C1D0108E8
:10014C0010F8012B11F8013B012A28BF9A42F7D075
:10015C00D01A7047034613F8012B002AFBD1181A4A
:10016C000138704780F0004002E000BF81F0004190
:10017C0042001FBF5FEA410392EA030F7FEA226C41
:10018C007FEA236C6AD04FEA1262D2EB1363C1BFD1
:10019C00D218414048404140B8BF5B42192B88BF40
:1001AC00704710F0004F40F4000020F07F4018BF63
:1001BC00404211F0004F41F4000121F07F4118BF83
:1001CC00494292EA030F3FD0A2F1010241FA03FC2B
:1001DC0010EB0C00C3F1200301FA03F100F0004313
:1001EC0002D5494260EB4000B0F5000F13D3B0F1DB
:1001FC00807F06D340084FEA310102F10102FE2A4A
:10020C0051D2B1F1004F40EBC25008BF20F00100B9
:10021C0040EA03007047490040EB0000013A28BF58
:10022C00B0F5000FEDD2B0FA80FCACF1080CB2EBDB
:10023C000C0200FA0CF0AABF00EBC2505242184359
:10024C00BCBFD0401843704792F0000F81F40001FE
:10025C0006BF80F400000132013BB5E74FEA4103D1
:10026C007FEA226C18BF7FEA236C21D092EA030F3D
:10027C0004D092F0000F08BF0846704790EA010FB7
:10028C001CBF0020704712F07F4F04D1400028BFE4
:10029C0040F00040704712F100723CBF00F50000C6
:1002AC00704700F0004343F0FE4040F400007047FC
:1002BC007FEA226216BF08467FEA236301464202A8
:1002CC0006BF5FEA412390EA010F40F480007047BB
:1002DC004FF0000304E000BF10F0004348BF404261
:1002EC005FEA000C08BF704743F0964301464FF09D
:1002FC0000001CE050EA010208BF70474FF00003F9
:10030C000AE000BF50EA010208BF704711F0004339
:10031C0002D5404261EB41015FEA010C02BF844609
:10032C000146002043F0B64308BFA3F18053A3F568
:10033C000003BCFA8CF2083AA3EBC25310DB01FAAF
:10034C0002FC634400FA02FCC2F12002BCF1004F33
:10035C0020FA02F243EB020008BF20F001007047C4
:10036C0002F1200201FA02FCC2F1200250EA4C0018
:10037C0021FA02F243EB020008BF20EADC7070475E
:10038C004FF0FF0C1CEAD0521EBF1CEAD15392EA6C
:10039C000C0F93EA0C0F6FD01A4480EA010C400248
:1003AC0018BF5FEA41211ED04FF0006343EA5010A2
:1003BC0043EA5111A0FB01310CF00040B1F5000FE4
:1003CC003EBF490041EAD3715B0040EA010062F193
:1003DC007F02FD2A1DD8B3F1004F40EBC25008BF7D
:1003EC0020F00100704790F0000F0CF0004C08BF9B
:1003FC0049024CEA502040EA51207F3AC2BFD2F168
:10040C00FF0340EAC250704740F400004FF0000375
:10041C00013A5DDC12F1190FDCBF00F000407047AF
:10042C00C2F10002410021FA02F1C2F1200200FAED
:10043C0002FC5FEA310040F1000053EA4C0308BFB4
:10044C0020EADC70704792F0000F00F0004C02BF05
:10045C00400010F4000F013AF9D040EA0C0093F080
:10046C00000F01F0004C02BF490011F4000F013BDA
:10047C00F9D041EA0C018FE70CEAD15392EA0C0F48
:10048C0018BF93EA0C0F0AD030F0004C18BF31F0B3
:10049C00004CD8D180EA010000F00040704790F089
:1004AC00000F17BF90F0004F084691F0000F91F02D
:1004BC00004F14D092EA0C0F01D142020FD193EAF3
:1004CC000C0F03D14B0218BF084608D180EA01007B
:1004DC0000F0004040F0FE4040F40000704740F057
:1004EC00FE4040F4400070474FF0FF0C1CEAD05225
:1004FC001EBF1CEAD15392EA0C0F93EA0C0F69D081
:10050C00A2EB030280EA010C49024FEA402037D0EB
:10051C004FF0805343EA111143EA10130CF00040E2
:10052C008B4238BF5B0042F17D024FF4000C8B42D2
:10053C0024BF5B1A40EA0C00B3EB510F24BFA3EBB2
:10054C00510340EA5C00B3EB910F24BFA3EB910382
:10055C0040EA9C00B3EBD10F24BFA3EBD10340EADC
:10056C00DC001B0118BF5FEA1C1CE0D1FD2A3FF622
:10057C0050AF8B4240EBC25008BF20F001007047D7
:10058C000CF0004C4CEA50207F32C2BFD2F1FF037A
:10059C0040EAC250704740F400004FF00003013AAB
:1005AC0037E792F0000F00F0004C02BF400010F44F
:1005BC00000F013AF9D040EA0C0093F0000F01F063
:1005CC00004C02BF490011F4000F013BF9D041EA85
:1005DC000C0195E70CEAD15392EA0C0F08D14202B8
:1005EC007FF47DAF93EA0C0F7FF470AF084676E78B
:1005FC0093EA0C0F04D14B023FF44CAF08466EE764
:10060C0030F0004C18BF31F0004CCAD130F0004231
:10061C007FF45CAF31F000437FF43CAF5FE700BF89
:10062C004FF0FF3C06E000BF4FF0010C02E000BFB2
:10063C004FF0010C4DF804CD4FEA40024FEA410354
:10064C007FEA226C18BF7FEA236C11D001B052EA0A
:10065C00530C18BF90EA010F58BFB2EB030088BFD0
:10066C00C81738BF6FEAE17018BF40F0010070473F
:10067C007FEA226C02D15FEA402C05D17FEA236C21
:10068C00E4D15FEA412CE1D05DF8040B704700BF68
:10069C00844608466146FFE70FB5FFF7C9FF0028FF
:1006AC0048BF10F1000F0FBD4DF808EDFFF7F4FF38
:1006BC000CBF012000205DF808FB00BF4DF808EDD1
:1006CC00FFF7EAFF34BF012000205DF808FB00BFF4
:1006DC004DF808EDFFF7E0FF94BF012000205DF816
:1006EC0008FB00BF4DF808EDFFF7D2FF94BF0120C7
:1006FC0000205DF808FB00BF4DF808EDFFF7C8FFC0
:10070C0034BF012000205DF808FB00BF4FEA400217
:10071C004FEA41037FEA226C02D15FEA402C08D1F8
:10072C007FEA236C02D15FEA412C02D14FF000002A
:10073C0070474FF0010070474FEA4002B2F1FE4F94
:10074C000FD34FF09E03B3EB12620DD94FEA002387
:10075C0043F0004310F0004F23FA02F018BF404260
:10076C0070474FF00000704712F1610F01D1420247
:10077C0005D110F0004008BF6FF0004070474FF0FB
:10078C000000704742000ED2B2F1FE4F0BD34FF077
:10079C009E03B3EB126209D44FEA002343F00043EB
:1007AC0023FA02F070474FF00000704712F1610F0E
:1007BC0001D1420202D14FF0FF3070474FF00000E0
:1007CC00704700BF0022427082700122C270022268
:1007DC00B1FA81F10271032249090170427170472B
:1007EC0043788B421FD0012941700AD0022910D0C6
:1007FC00C1B90123C37002238170037103234371B8
:10080C007047037843B1012383700223C370002324
:10081C00F3E70378002BF6D0022383700023C37018
:10082C000123EAE7FEE770470B8882B0ADF8003091
:10083C004B880239ADF80230CB88ADF804300B8907
:10084C00ADF80630831C063013F8012B0DF1080CA3
:10085C000CEB420232F8082C834221F8022FF3D120
:10086C0002B070477F2807D0002807DA10F1800FFC
:10087C0006D04042C0B2704700207047012070473C
:10088C007F20704710B1404240B270477F207047C4
:10089C007F280FD010F1310F0EDA10F1780F0DDB2D
:1008AC00FE23783040B2584346232330B0FBF3F09C
:1008BC00C0B27047FF207047FE2070470020704781
:1008CC00012805DD40F2FE73984203DC80B27047CC
:1008DC000120704740F2FF70704740F2AE73A0F5F4
:1008EC007870C0EBC02090FBF3F000F58060FFF750
:1008FC00E7BFFFF7F2BF032812DD0C2812DD0F282B
:10090C0012DD122812DD162812DD192812DD1C2822
:10091C0012DD1F2812DD2128CCBFFF2006207047D6
:10092C000020704701207047022070470820704754
:10093C00032070470720704704207047052070473C
:10094C00022807D0012807D040B1032814BFFF208C
:10095C006F207047132070471F207047012070478D
:10096C0002280AD0012805D030B1032814BFFF207B
:10097C000B20704703207047052070477F2808BF65
:10098C000020C0B27047000052B110B4054C0A44AC
:10099C0011F8013B58408A42205CF9D110BC7047D9
:1009AC00704700BFE01D0108A0F16103192B0FD99E
:1009BC005F280DD02338C3B2162B97BF05480120F2
:1009CC00D840C04398BF00F0010080F00100704790
:1009DC000120704701EC7F00F8B5024600245F2728
:1009EC00451E461D15F8010FFF2804BF0134E4B263
:1009FC00FFF7DAFF00B92F70AE42F3D1062C04D109
:100A0C0019B10B6813608B88938000239371F8BD28
:100A1C002DE9F843012500264FF02808DFF82C902B
:100A2C00471E441D17F8011F084811F0F0F810B1CB
:100A3C00A0EB0900C0B2A0FB05038619A742A5FBD9
:100A4C000853EFD13046BDE8F88300BFE01E010823
:100A5C0010B54179A1F13000C3B2092B07D8052399
:100A6C00B0FBF3F303EB8303C01AC0B210BD044C0C
:100A7C00204611F0CCF80028F1D0001BC0B2EEE7F4
:100A8C00E01E010870B50446FFF764FB002382B238
:100A9C00561E98B2B04204EB000103DA255C013318
:100AAC00302DF6D0121A01322046BDE8704011F0FC
:100ABC007DB800002DE9F04F0D4699B01646002187
:100ACC001A461F46804611F08BF800212A2201A8F5
:100ADC00009111F085F8DFF8CC90DFF8CCA0DFF8AE
:100AEC00CCB005EB4606AE424AD047F6FF7335F95B
:100AFC00020B984244D0002812DC59460CA811F085
:100B0C0093F86846FFF726FB04460CA8FFF722FB78
:100B1C000444A742E7D368460CA911F069F8E2E750
:100B2C00B0F57A7F0BDA0CA980B20FF0BEFA0CA8E4
:100B3C00FFF7A8FF51460CA811F05AF8E1E764241E
:100B4C003230B0FBF4F00CA980B20FF0AEFA0CA866
:100B5C00FFF798FF0CA8FFF7FDFA00F15F036B4459
:100B6C0013F8302C00F160010DEB010000F8302C73
:100B7C002E2203F8302C0023494600F82F3CDAE7EC
:100B8C006846FFF7E7FA30B100F160030DEB0300A4
:100B9C00002300F8613C6946404611F045F819B055
:100BAC00BDE8F08FDC1D0108D71D0108D21D01081E
:100BBC00F0B589B06D4600242F468E1CE1B28A42F6
:100BCC0005D936F82410013425F8021BF6E739460E
:100BDC00FFF770FF09B0F0BD42F21073B0FBF3F2F7
:100BEC00642103FB1200B0FBF1F301FB130000EBDB
:100BFC00023000EB831080B2704742F21071020B8E
:100C0C0000F03F0301FB02336422C0F3851002FBAA
:100C1C00003070472DE9F04142F21074B1FBF4F64C
:100C2C00642704FB161488B01E49054610F0FCFF1F
:100C3C006946F0B20FF018FA6846FFF723FFB4FBD1
:100C4C00F7F6DFF864806946284610F0D1FF41467C
:100C5C00284610F0CDFF07FB16446946F0B20FF0A2
:100C6C0003FA6846FFF70EFF6946284610F0C0FFEE
:100C7C004146284610F0BCFF6946E0B20FF0F4F98B
:100C8C009DF8013069468DF800309DF802302846F9
:100C9C008DF8013000238DF8023010F0A9FF08B058
:100CAC00BDE8F081242D01087B28010870B50D46A4
:100CBC0000210446164610F093FF00239AB2964288
:100CCC0004D9EA5C12B1E2540133F7E770BD70B598
:100CDC000E46144600210132054610F081FF002318
:100CEC009AB2944204D9F25C12B1EA540133F7E798
:100CFC0070BD30B50023044698B290420ED2E55C2C
:100D0C00C85C1DB9B0FA80F0400930BD0028FCD099
:100D1C00854203F10103EFD00020F6E70120F4E750
:100D2C007D23438043F23903C360002309B2018061
:100D3C008180C3800372704702680449044B01FB35
:100D4C00023323F000430360180C7047FD4303008B
:100D5C00C39E2600F0B5002597B00160858004463F
:100D6C0056222946684610F03BFF0126627DAA42B6
:100D7C004BD92046FFF7E0FFE77900217B1B90FB66
:100D8C00F3F2EC4602FB13000A46C0B2CBB29F4210
:100D9C000AD91CF801EBBEF1000F03D1824204D03A
:100DAC000132D2B20131F1E7002300221146277B38
:100DBC00D0B2874206D92069805C0132984208BFC4
:100DCC000121F5E70029D1D1A2796119033A012A51
:100DDC0005D925B191F9152082B9012BC6D98B758E
:100DEC00A26852F82310583305F10E026B440135FA
:100DFC0044F8221003F8586CEDB2B7E7501E83424A
:100E0C00EDDB01329342EADCB0E70023802104F1F0
:100E1C00B800237517B0BDE8F04010F0E1BE2DE925
:100E2C00F047154696B0013D0160027104464371CE
:100E3C00EDB256220021684610F0D2FE022D98BF6A
:100E4C004FF003094FF0000794F807808ABF4FF06A
:100E5C000109B8FBF9F800253E464FF0010A627D06
:100E6C00B24250D92046FFF767FFA8EB060390FB70
:100E7C00F3F2002102FB1300EC460A46C0B2CBB2DF
:100E8C0043450AD21CF801EBBEF1000F03D182429C
:100E9C0003D00132D2B20131F1E70020434528BF23
:100EAC004346844609FB035194F80CE0C9B2C2B224
:100EBC00964507D92269125C01308A4208BF4FF06F
:100ECC00010CF4E7BCF1000FC9D116B19FB9012B8D
:100EDC00C5D9A2199175A2681F4652F8211006F1C6
:100EEC000E0244F8221003F158026A44013602F84B
:100EFC0058ACF6B2B3E77A1E9342EADB7A1CD2B254
:100F0C009342E6DCABE70023802104F1B8002375A3
:100F1C0016B0BDE8F04710F063BE0023C0E9013302
:100F2C0070470A2310B50446838004F07DF82368CB
:100F3C00E0809B6820469847A06010BD836870B520
:100F4C00002B04461ADD838843B1013B9BB283809E
:100F5C00A3B903681B68BDE87040184703689B6819
:100F6C009847054604F060F8E388C01A281A002850
:100F7C00A06003DD236820465B68ECE770BD0000D1
:100F8C00C0F17F0080B27F281FD8C1F13F0189B228
:100F9C003F291AD84FF0010C00B54FEAD10E0B4B7C
:100FAC0000EBCE1080B2A3F81EC0184490F8283085
:100FBC0001F007010CFA01F1D2074CBF194323EAE7
:100FCC00010180F828105DF804FB7047D000002068
:100FDC007F281CD83F291AD84FF0010C00B54FEAD6
:100FEC00D10E0B4B00EBCE1080B2A3F81EC01844F0
:100FFC0090F8283001F007010CFA01F1D2074CBF30
:10100C00194323EA010180F828105DF804FB7047AE
:10101C00D00000207F291FD8C0F13F0080B23F28AC
:10102C001AD84FF0010C00B54FEAD00E0B4B01EB68
:10103C00CE1189B2A3F81EC0194491F8283000F0E3
:10104C0007000CFA00F0D2074CBF184323EA00004B
:10105C0081F828005DF804FB704700BFD000002029
:10106C00C1F17F0189B27F291CD83F281AD84FF0D3
:10107C00010C00B54FEAD00E0B4B01EBCE1189B22F
:10108C00A3F81EC0194491F8283000F007000CFAA0
:10109C0000F0D2074CBF184323EA000081F8280067
:1010AC005DF804FB704700BFD000002010B5124C57
:1010BC0082B0E38B4BB123884BB100236188A288AB
:1010CC002184A284E3846384E38302B010BD0B49C2
:1010DC00062203C90090ADF804101846694602F0C8
:1010EC00FFF94FF48062402004F1280102F00EFA5F
:1010FC000028E2D0E9E700BFD0000020A41D0108C1
:10110C0008B502F015FA023818BF012008BD00BF5F
:10111C00114BD88003281DD8DFE800F01C130218EF
:10112C000E4A9A6040208022002198805A801A84AE
:10113C0098844FF480620A48D9845984D98310F07A
:10114C004FBD8020402207499960EDE78020402266
:10115C000549F9E7054AE4E7D00000208D0F0008A7
:10116C00F80000206D10000821100008DD0F0008A9
:10117C00154B4FF0010CB3F9200059880028C8BF5B
:10118C00002001F1FF31C8BF1884B3F9240009B263
:10119C008842C8BF9984B3F922109A880029B8BF35
:1011AC00002102F1FF32B8BF5984B3F9261012B2F4
:1011BC009142B8BFDA8400214FF480620348A3F84F
:1011CC001EC010F00DBD00BFD0000020F8000020A4
:1011DC00024B80B29B6889B2184700BFD000002038
:1011EC00002A2DE9F8431F4612DB0FD084B22244AB
:1011FC00DFF850808DB296B2204601343A4629462B
:10120C00D8F80830A4B29847B442F5D1BDE8F883B9
:10121C004FF0000CDFF82C80564284B21FFA81F993
:10122C001FFA8CF5601B3A464946D8F8083080B254
:10123C00984705F1010C0FFA8CFCB445F0DBBDE8C6
:10124C00F88300BFD0000020002A2DE9F8431F4688
:10125C0012DB0FD08CB22244DFF8508085B296B2EC
:10126C00214601343A462846D8F80830A4B29847AB
:10127C00B442F5D1BDE8F8834FF0000CDFF82C80B8
:10128C0056428CB21FFA80F91FFA8CF5611B3A4654
:10129C004846D8F8083089B2984705F1010C0FFA86
:1012AC008CFCB445F0DBBDE8F88300BFD000002017
:1012BC002DE9F04F1F1E83B0B4BF07F1010807F1F1
:1012CC00FF38002ABDF830A000901FFA88F848DBE0
:1012DC0096B206F1FF3083B2019300F09780BDF80F
:1012EC0000904B4DCB464E448CB2B6B258460BF1E7
:1012FC00010B52462146AB681FFA8BFB98475E45A3
:10130C00F4D1A0441FFA88F8484609F10109524665
:10131C004146AB681FFA89F998474E45F4D1002F26
:10132C004EDB1BD026462744BDF80080384DBFB29B
:10133C003146013652464046AB68B6B29847B74282
:10134C00F6D1019B43441FFA83F8214601345246DF
:10135C004046AB68A4B29847A742F6D103B0BDE8AB
:10136C00F08F4FF0000B501C83B2294DBDF800904C
:10137C008CB2019356421FFA8BFBA9EB0B000BF1BD
:10138C00010B52462146AB6880B20FFA8BFB984793
:10139C005E45F0DCA0441FFA88FB4FF000081FFAF2
:1013AC0088F8A9EB080008F1010852465946AB68C9
:1013BC0080B20FFA88F898474645F0DC002FB0DA77
:1013CC000023BDF80090124D7F429EB2A11BAB686A
:1013DC005246484689B29847731C1BB2BB42F4DB99
:1013EC00019B4B441FFA83F900231FFA83F8A4EBEB
:1013FC00080152464846AE6889B2B04708F101036D
:10140C001BB2BB42F1DB03B0BDE8F08F8CB286E7B8
:10141C00D00000202DE9F04F002B83B00B448B46FD
:10142C009146BDF8306001933ADB99421CDA87B2E1
:10143C0007EB02081FFA88F8B9F1000F17DB6FD021
:10144C003C46414D1FFA8BFB20460134324659462F
:10145C00AB68A4B29847A045F6D1019B0BF1010BE8
:10146C000FFA8BFB9B45E7DB03B0BDE8F08F002444
:10147C00354DC9F1000A1FFA8BFBA4B2381B01349D
:10148C0032465946AB6880B224B298475445F4DBD7
:10149C00019B0BF1010B0FFA8BFB9B45CCDBE3E7BC
:1014AC009942E1DD84B2A718B9F1000FBFB219DB84
:1014BC0040D0A046244D1FFA8BFB404608F1010892
:1014CC0032465946AB681FFA88F898474745F4D11D
:1014DC00019B0BF1FF3B0FFA8BFB5B45C4DAB9F1B7
:1014EC00000FE5DA4FF0000A174DC9F100081FFA9A
:1014FC008BFB1FFA8AFAA4EB0A000AF1010A3246A6
:10150C005946AB6880B20FFA8AFA9847C245F0DBAD
:10151C00019B0BF1FF3B0FFA8BFB5B45DFDBA3E77A
:10152C001FFA8BFB019B0BF1010B0FFA8BFB9B45FD
:10153C0082DB99E71FFA8BFB019B0BF1FF3B0FFA48
:10154C008BFB5B45CBDB8FE7D00000200122014BEE
:10155C009A837047D00000200022014B9A83704779
:10156C00D0000020014B9861704700BFD0000020D4
:10157C000022014B9A617047D00000200122014BE0
:10158C009A827047D00000200022014B9A8270474B
:10159C00D0000020014B9881704700BFD000002084
:1015AC00014BD881704700BFD0000020014B9881BF
:1015BC00D9817047D00000200A282DE9F84F53D06C
:1015CC001F2841D9DFF804A12038BAF90CB0BAF8B9
:1015DC0002300BF106029A42C0B237DA1FFA8BFBCB
:1015EC000BF10608BAF80E600FFA88F3AAF80C3063
:1015FC00BAF81C30A6F106091FFA89F900EB400075
:10160C000236002B3AD0324F1FFA88F807EB400015
:10161C00B6B2471EBAF9143017F8015F0BB1ED439F
:10162C00EDB24C46214601342A465846DAF80830C9
:10163C00A4B29847A6424FEA5505F3D10BF1010B22
:10164C001FFA8BFBC345E5D1BDE8F88F0623BAF82A
:10165C000E60BAF810204FF0000B16440836B6B2E4
:10166C009846AAF80E60C1E70021184AD389108A5F
:10167C00918103440833D381BDE8F88F1FFA88F7B2
:10168C001FFA86F8124E06EB4006013EBAF91430EA
:10169C0016F8015F0BB1ED43EDB24C4615F0010F9E
:1016AC004FEA550505D0214601225846DAF8083094
:1016BC0098470134A4B24445F0D10BF1010B1FFA49
:1016CC008BFB5F45E2D1BDE8F88F00BFD000002056
:1016DC00101F01082DE9F04FDFF880810A28D8F897
:1016EC00183087B0997A00F082801C7AA0427BD3A4
:1016FC005A7A824278D348CB041B06EBC40292F987
:10170C0005A0B8F81200B8F90C5002931379977829
:10171C00034405EB0A003844B8F802C0BFB2049782
:10172C00D77892F9062060459BB203926DDCADB27E
:10173C00EA1892B2A8F80C20B8F91420B8F90EB037
:10174C00002A74D1B8F81C10012900F08280B2FA7A
:10175C0082F936F834604FEA5919002F44D00499B5
:10176C00002941D0BDF80C301FFA8BFB1F4405EB50
:10177C000A025B440025BB440F4692B21FFA83FA5F
:10178C001FFA8BF303920593049BFC1A039BA4B2E0
:10179C0003F1FF3B23465A0708BF029B04F10104E7
:1017AC0008BF9D5DA4B206F1010C04EB0B0008BF51
:1017BC001FFA8CF62B0680B204D54A465146D8F84F
:1017CC00083098476D00BC42ADB2E3D1049A039B3C
:1017DC000AF101019B1A9BB20393059B1FFA81FA34
:1017EC0017449A45BFB2CFD107B0BDE8F08F0022A5
:1017FC00B8F80E30B8F81000A8F80C2003441944BF
:10180C00A8F80E1007B0BDE8F08F1A46B8F80EB065
:10181C00B8F81000A8F80C2083445944B8F91420E7
:10182C000FFA81FB0025A8F80EB0002A8AD00233EB
:10183C001AB201230093039B0AF1FF30591E59443D
:10184C00284409B200B2BB1CFFF7E4FDB8F9142020
:10185C007DE7023300921AB2EDE700BFD000002002
:10186C00034B9B690BB1FFF735BFFFF7A5BE00BF5C
:10187C00D000002038B50446007878B1084D04E05B
:10188C00FFF728FF14F8010F40B1AB69002BF7D11B
:10189C00FFF792FE14F8010F0028F6D138BD00BFF7
:1018AC00D0000020F8B5204E0446B569002D32D08A
:1018BC00037895F808C095F809E0002B32D0014662
:1018CC000022778A9C450AD89E4508D36868A3EB0A
:1018DC000C0300EBC3031B793A441A4492B211F87F
:1018EC00013F002BEED173889A1A02EBD272521080
:1018FC00B281207870B13DB1FFF7ECFE14F8010F06
:10190C0040B1B569002DF7D1FFF756FE14F8010F61
:10191C000028F6D1F8BDFEF71DFC00EB400252008A
:10192C0092B2E0E71A46DEE7D000002030B5314C29
:10193C00054683B02080002839D04FF4C022002304
:10194C00E260B4F92020E3809A42C8BF2384A361EB
:10195C002361A382B4F924304FF480317F2BC4BFB0
:10196C007F23A384B4F922302348002BBCBF00236F
:10197C006384B4F92630E1613E2BD8BF3F231F4965
:10198C00C4F80200A1604FF480624FF000011C48C3
:10199C00D8BFE38410F024F99DB1402280210023AC
:1019AC002184A284E3846384E38303B030BD3C20B0
:1019BC0001F090FD28461F22124901F091FD258867
:1019CC00BBE7114B062293E803000090ADF804101E
:1019DC002846694601F084FD4FF480624020084996
:1019EC0001F094FD0028E0D1B4F90210B4F9042000
:1019FC00D5E700BFD000002080004000DD0F0008BC
:101A0C00F800002050210108A41D010810B504465F
:101A1C00022980EAE070A0EBE47068D15AB9002C7E
:101A2C00ACBF7F233F239842A8BF1846002C01DA95
:101A3C0040F0400010BD012A1AD1632805DC40009B
:101A4C00002CF7DA40F48070F4E740F2F54398424A
:101A5C000CDCFEF73DFC5749FEF792FC0EF002FF42
:101A6C00FEF790FE400040F00100E9E7FF20E7E7B9
:101A7C00022A40F09C80632805DC8000002CD9DA17
:101A8C0040F40070D6E7B0F57A7F0CDAFEF720FC54
:101A9C004849FEF775FC0EF0E5FEFEF773FE80007C
:101AAC0040F00100EAE742F20F7398420CD8FEF7BF
:101ABC000FFC4149FEF764FC0EF0D4FEFEF762FE0B
:101ACC00800040F00200D9E73C4B98420CD8FEF75E
:101ADC00FFFB3B49FEF754FC0EF0C4FEFEF752FE32
:101AEC00800040F00300C9E740F2FF10C6E703296D
:101AFC005DD1012A1BD1B0F57A7F05DA4000002CAC
:101B0C0098DA40F4006095E7B0F5205F0CDAFEF748
:101B1C00DFFB2849FEF734FC0EF0A4FEFEF732FE84
:101B2C00400040F00100EAE740F2FF70E7E7022ACC
:101B3C003DD1B0F57A7F06DA8000002CBFF67AAF83
:101B4C0040F4805076E742F20F7398420CDCFEF7BB
:101B5C00BFFB1849FEF714FC0EF084FEFEF712FED4
:101B6C00800040F00100E8E7164B98420CD8FEF7D5
:101B7C00AFFB1149FEF704FC0EF074FEFEF702FEFB
:101B8C00800040F00200D8E7B0F57A2F0CD2FEF7B7
:101B9C009FFB0B49FEF7F4FB0EF064FEFEF7F2FD23
:101BAC00800040F00300C8E740F6FF70C5E7002056
:101BBC0040E700BFCDCCCC3D0AD7233C17F0010049
:101BCC006F12833A9F860100002303607047000068
:101BDC00092928BF092138B5064B04461B780D4648
:101BEC008B4202D10023036038BD03F0E9F8257164
:101BFC002060F9E7F8040020036810B504460BB91F
:101C0C00002010BD03F0DCF82368C01A40F2EE236C
:101C1C009842F5D90023054A2360127823799A4219
:101C2C00EED0034A0120D377EBE700BFF804002085
:101C3C0030050020FF234371002301718371038160
:101C4C008372704738B5037904460D465BB1417910
:101C5C00A94208D041B101290AD000236571A371B2
:101C6C0055B1012D0FD038BD03689B689847F4E738
:101C7C00036800219B68F9E7012123689B682046D3
:101C8C009847A071EFE7236829469B68F7E72DE991
:101C9C00F04F077CC37BBF000C4647EA931703F059
:101CAC003F01437C857C03F00102C67C47EA822716
:101CBC0005F00F02D20142EA530206F07F031B012A
:101CCC0043EA1513057D90F815E06D0089B045EADF
:101CDC00D6150EF00306059345EA4623867D009340
:101CEC0006F01F05AD0145EA9E03C57D90F819E08D
:101CFC00ED00019345EA5613057E0EF0070602939C
:101D0C0045EA0623857E039305F03F06760146EAF5
:101D1C00DE03C67E90F81CE0B60046EA95160EF07F
:101D2C00010546EA8526457F90F8208005F00F0BCB
:101D3C004FEACB1B4BEA5E0B90F81EE090F80EC0FE
:101D4C000EF07F0A4FEA0A1A4AEA151AC57F4901B2
:101D5C006D0045EADE1508F0030E45EA4E2590F8B5
:101D6C0021E041EADC010EF01F094FEA891949EA2A
:101D7C00980990F82280407B0CF0070C40EA0C206C
:101D8C004FEAC80848EA5E18049306920791FEF7DA
:101D9C00A4FD079920800846FEF79FFD6080384619
:101DAC00FEF79BFD069AA0801046FEF796FD059B5C
:101DBC00E0801846FEF791FD20810098FEF78DFD1E
:101DCC0060810198FEF789FDA0810298FEF785FDE0
:101DDC00E0810398FEF781FD20820498FEF77DFDDB
:101DEC0060823046FEF779FDA0825846FEF775FDFD
:101DFC00E0825046FEF771FD20832846FEF76DFD0C
:101E0C0060834846FEF769FDA0834046FEF765FDFA
:101E1C004FF48063E0832384638409B0BDE8F08FC2
:101E2C002DE9F04104460F4603F0FEF84FF001088F
:101E3C000546236820461B6898470646F0B1236880
:101E4C0020465B689847A37AA3B90F2814D1A4F84D
:101E5C000A80E37AE2180133DBB2182B1073E372B9
:101E6C000AD939462046FFF712FF0023A3723046E9
:101E7C00BDE8F081012BECD02581DAE7A37A012BA8
:101E8C00F5D140F6C41320892D1A9D42C8BFA67205
:101E9C00EDE7827922B14379012B01D8FFF7C0BF5E
:101EAC00002070477047704770477047002070479C
:101EBC00002070477047002070470000054B82B02F
:101ECC00DA690243DA61DB6918400190019B02B0C8
:101EDC00704700BF00100240054B82B09A69024364
:101EEC009A619B6918400190019B02B0704700BF3A
:101EFC000010024000F10C0353E8003F43F02003B4
:101F0C0000F10C0141E80032002AF3D1704700F1D6
:101F1C000C0353E8003F43F0800300F10C0141E84F
:101F2C000032002AF3D1704700F10C0353E8003F54
:101F3C0023F0200300F10C0141E80032002AF3D118
:101F4C00704700F10C0353E8003F23F0400300F10D
:101F5C000C0141E80032002AF3D1704700F10C0368
:101F6C0053E8003F23F0800300F10C0141E80032FC
:101F7C00002AF3D1704770470288044B5140C9B214
:101F8C0033F8113083EA1223038070479459010807
:101F9C009AB110B4B0F800C0084C0A4411F8013BD7
:101FAC0083EA0C03DBB234F81330914283EA1C2C25
:101FBC00A0F800C0F2D110BC7047704794590108CA
:101FCC004FF6FF7337B50446ADF806304518AC42F2
:101FDC0006D014F8011B0DF10600FFF7CDFFF6E754
:101FEC00BDF8060003B030BD6421D0E90123D31A3B
:101FFC00C3604B430349498D8260B3FBF1F3037417
:10200C00704700BFF8040020D0E90123D31AC0E9BF
:10201C0002237047044B1888044B80B21B889BB278
:10202C00C01A18BF01207047123100201031002057
:10203C000023044A1380044A1380044A1380044A80
:10204C00138070471031002012310020143300200F
:10205C001633002070470023A0F87032A0F86E32BF
:10206C0070470023A0F85C32A0F85A327047000089
:10207C002D4B5A6A037A92B263B18389D31A9BB2FD
:10208C00B3F5FA7F84BF00230372837A4F2B84BF8E
:10209C0000230372037A8281082B0FD8DFE803F048
:1020AC00050E0E0E0E0E0F172200EE2901D0C829B8
:1020BC0004D1012383720623417503727047837A1E
:1020CC005A1C03448272597507234172F5E7827AD0
:1020DC00531CDBB2024483725175427A9A42EDD2A0
:1020EC000823EAE7837A5A1C034482725975C37D2C
:1020FC00162B04D1012380F865300923DDE74369F1
:10210C000A4A03F0FF2393424FF0010309D1428B9B
:10211C00B2F5A26F05D180F86730037F80F8683084
:10212C00EBE780F86630E8E70004004000C80032B6
:10213C00044B1888044B80B21B889BB2C01A18BF82
:10214C00012070471A350020183500207047000018
:10215C00044B1B78022B06BF034B93F87200002034
:10216C00704700BF71080020EC060020B0F8682012
:10217C0010B5B0F86C40531C2340B0F86A409C4238
:10218C001EBF121882F86E10A0F8683010BDA0F1B6
:10219C001400EBE7B0F87032B0F86E22D21A93B29A
:1021AC00120441BFB0F8720201301B189BB2181E0A
:1021BC0018BF01207047A0F11400EBE70346B0F8FC
:1021CC007022B0F86E1291421FBF811891F8740200
:1021DC00B3F8721201321ABF0A40A3F87022002021
:1021EC007047A0F11400E9E71E2208B5002103484E
:1021FC000FF0F6FC0022024B1A7008BD900F002065
:10220C008407002038B54A780D46352A044601F17A
:10221C000C010AD80FF0BCFC68780021C0F1360222
:10222C002044BDE838400FF0DBBC403551F8043B8E
:10223C00A94240F8043BF9D10B88038038BD38B56E
:10224C004A780C461B2A054601F10C010AD80FF0FE
:10225C009FFC60780021C0F11C022844BDE8384086
:10226C000FF0BEBC283451F8043BA14245F8043BA6
:10227C00F9D138BD38B54A780D46082A044601F123
:10228C000C010AD80FF084FC68780021C0F1090217
:10229C002044BDE838400FF0A3BCEB6803604B68EA
:1022AC0043600B7A037238BD38B54A780C46072A5E
:1022BC00054601F10C010AD80FF06AFC6078002188
:1022CC00C0F108022844BDE838400FF089BCE3682F
:1022DC0003604B68436038BD2DE9F0411378154617
:1022EC00037092F80180FD2B04460F46826880F83B
:1022FC00018052D10A26AB788370EB78C3702B79AE
:10230C0003716B794371AB7983716B7A297A1B04F6
:10231C0003EB0123E9790B4463F317028260424615
:10232C00A91904F10C000FF033FC7A7B904507D20D
:10233C0008F10C000021A2EB080220440FF050FC25
:10234C0063781E44731C9BB2EA5CAB5D03EB022307
:10235C00A4F80C31A378DB070ED50236B6B235449F
:10236C0004F5887305F10C0255F8041B954243F8EB
:10237C00041BF9D12A781A70BB7A84F82131FB7AC4
:10238C0084F822313B7B84F823317B7B84F8243125
:10239C003B7884F82031BDE8F08100234380AB7892
:1023AC0006260371EB7843712B798371697961F39C
:1023BC0017028260B3E770B50B78054603704B7853
:1023CC000C4643700B78FD2B38D10A268B78837022
:1023DC00CB78C3700B7903714B7943718B79837113
:1023EC008B68C3718B68C3F30F2303728B7A4372B0
:1023FC00627804F10C01A8190FF0CAFB6378B4F8E9
:10240C000C213344EA54B4F80C115A1C92B2090A48
:10241C00A954A278981CD20780B20ED504F5887204
:10242C00054404F58E7452F8041BA24245F8041BB3
:10243C00F9D112780F332A7098B270BD00238B70CB
:10244C000B79062683704B79C3708B7903718B687B
:10245C004371CDE72DE9F74F0C4651880546B1F590
:10246C008C7F0FD300211170D91CC9B2012995BFE3
:10247C0001210023518053809CBF237011700020D8
:10248C00287097E0107802281ED00FD80028EBD0C7
:10249C00481C5080635421789BB2FD290ED10C331B
:1024AC000A21D380022391801370E8E70E2813D001
:1024BC000020107050809080D080E1E70621083316
:1024CC009180D3800E23EFE7481C5080D8076354CB
:1024DC00F8D5D3880D33F4E7481C508063545388E7
:1024EC00D1888B425FD30023538013700223698001
:1024FC002B702378FD2B60D163792B72A3796B72CF
:10250C00637A227A1B0403EB0223E27913446B6097
:10251C00637803F10C026A80A278D10701D51933D4
:10252C006B8000264FF4B3720C206968DFF8F480DE
:10253C006E81B31801335B0800FB03F758F8077082
:10254C00B94243D25A1EB242F3D80C27774358F8FB
:10255C00073099423DD123782046FD2B0CBF4FF01C
:10256C000A094FF0060910F801BF4744CB440BF1A0
:10257C00FF3189B2FFF724FD97F804A0ADF80600EF
:10258C0051460DF10600FFF7F7FC0BF10103E25C7D
:10259C0014F80B3003EB0223BDF806209BB29A42D1
:1025AC001FD0052016E092889A423FF668AF0123AF
:1025BC0000202B7003B0BDE8F08FE3782B722379E9
:1025CC006B7263796B6063780833A9E71E46BCD9DC
:1025DC00B9E703202870023801288CBF00200120A5
:1025EC00E8E7BB79DA0707D56178FA79914282BFBF
:1025FC0004EB09018A5CAA729B0709D50C2303FB27
:10260C00068362781B7A9A4282BF4C44E35CEB727D
:10261C000C2303FB06867379022085F80CA06B73E0
:10262C00D8E700BF903801086FF020030248036020
:10263C004368FFF75FBC00BF0044004008B5FFF7DC
:10264C00F3FF0022014B1A7208BD00BF00190020D5
:10265C0008B5FFF7E9FF0022014B1A7208BD00BF55
:10266C00780800206FF02003024803604368FFF7EE
:10267C0041BC00BF00480040064B1B78022B06D122
:10268C00054B93F84C00012838BF012070470020FF
:10269C00704700BF71080020402500204FF0320C1D
:1026AC000A4B0B491A680B4BA1FB0212920C0CFB48
:1026BC0002F202F5FA72A3FB02320749920948684A
:1026CC004B681B1A9A42FBD8704700BF3C00002095
:1026DC0083DE1B43D34D6210001000E008B5FFF7FA
:1026EC00DDFF1022014B1A6108BD00BF000801403C
:1026FC001022024B5A61FFF7D1BF00BF0008014006
:10270C00028810B58488531C234044889C421EBF09
:10271C0012189171038010BD0368DB68184770476D
:10272C0038B504464D1E15F8011F21B1236820460B
:10273C00DB689847F7E738BD08B5FFF7F1FF08BD30
:10274C000120FFF7C9BB00000D4B984202D10420B9
:10275C00FFF7C2BB0B4B984205D003F58063984240
:10276C0003D11020F4E70820F2E7074B984201D17F
:10277C002020EDE7054B984200D070474020E7E75A
:10278C0000080140000C01400014014000180140F9
:10279C000B4B984203D14FF40060FFF79DBBB0F197
:1027AC00804F04D0074B984204D1022000E0012056
:1027BC00FFF784BB044B984201D10420F8E7704723
:1027CC00002C01400004004000080040064B9842D9
:1027DC0003D14FF40070FFF77FBB044B984202D13A
:1027EC004FF48060F7E77047002401400028014057
:1027FC002DE9F0410C46154686B007461022002103
:10280C0002A81E469DF834800FF0EAF901940B2DB6
:10281C0007D8DFE805F00E0E070A14141416161666
:10282C001B1DFEE70823029303E0082302930123F8
:10283C000593032E0ED8DFE806F00E1E200E0123A2
:10284C00F1E70123029304230493F2E70923EAE757
:10285C000923F7E7FEE703230393B8F1000F02D037
:10286C003846FFF771FF053D042D0BD8DFE805F066
:10287C0007110A0711000223EEE70123ECE7C4F36A
:10288C000F247C61384601A90DF0E6F806B0BDE8CE
:10289C00F081C4F30F243C61F4E713B54FF0010C45
:1028AC000024CDE9004CFFF7A3FF02B010BD0000DF
:1028BC0070B50446164686B00D461422002101A8B8
:1028CC000FF08EF92046FFF763FF042E04D8DFE8E3
:1028DC0006F02A2E04323B00FEE71C4B1C4A1B68F8
:1028EC00B3FBF2F39BB20022013B204601A9ADF8E9
:1028FC000430CDE90225049205920DF0E5F9236828
:10290C0023F080032360A36823F4804323F00703A0
:10291C00A360636823F070036360A36823F08003F3
:10292C00A36006B070BD094B0A4A1B68D8E7074B79
:10293C00094A1B68D4E7054B064A1B68B3FBF2F344
:10294C0003EB83035B00CDE70123CCE73C000020C5
:10295C0080A8120140420F0000127A0010B5044604
:10296C00FFF7A6FF236843F00103236010BD00228C
:10297C004FF0FF31FFF7F2BF1A4B10B55B681A4CE2
:10298C0023600AF0AFFF19480DF016F818480DF047
:10299C0013F818480DF010F817480DF095FA174871
:1029AC000DF092FA0DF0DCF84FF0E02200231361E9
:1029BC005361936172B64FF0FF319A0002F160429D
:1029CC00013302F56142082BC2F88010C2F8801165
:1029DC00F3D162B6034B1B6883F3088823689847CE
:1029EC00FEE700BF00F0FF1F800700200008014039
:1029FC00000C014000100140003801400044004030
:102A0C0030B50024054689B01422214603A8CDE92F
:102A1C0001440FF0E5F801A928460CF095FF694632
:102A2C00084800940CF072FF4FF46023CDE9033496
:102A3C000223284603A9CDE9063405940CF099FF2E
:102A4C0009B030BD00240140F0B4044601F44075D7
:102A5C00184604F12C064FF4407393FAA3F3B3FA1F
:102A6C0083F31F27DD4056F8253001F01F018F40FE
:102A7C0023EA070302F01F0707FA01F1194346F88E
:102A8C0025104FF000730C3402F0007693FAA3F388
:102A9C00B3FA83F3DE404FF0F87154F8263002F0AD
:102AAC00F87291FAA1F1B1FA81F1072522FA01F13C
:102ABC0005FA01F123EA01014FF0F87393FAA3F33D
:102ACC00B3FA83F3DA4095400D4344F82650049949
:102ADC000023F0BC0122FFF7E0BE014608B5FFF76A
:102AEC002FFEBDE808400846FFF770BE064B0748AE
:102AFC00C01AEFF30883C2431A44013B984288BFC3
:102B0C000022AA210FF06CB8000400000050002035
:102B1C0010B5114C0323204606221049FFF7BDFEC9
:102B2C002046032302220E49FFF7B7FE032320465B
:102B3C001A460C49FFF7B1FE20460323052240F24A
:102B4C000221FFF7AAFE2046BDE810400323052210
:102B5C0040F20111FFF7A1BE000801400100010481
:102B6C000800080410001004024B9868C0F30030F1
:102B7C00704700BF0008014008B5FFF7F5FF08B12A
:102B8C0000BFFAE708BD00000122024B5A61022285
:102B9C001A617047000801400222024B5A6101225F
:102BAC001A61704700080140104A4FF470411369D4
:102BBC0023F4704391FAA1F113610D4B5A6822F47E
:102BCC0000625A601A6822F400621A60DA6822F411
:102BDC000062DA609A6842F400629A60D022054B77
:102BEC0083F828234FF480725A607047000001402C
:102BFC000004014000E100E04FF40062034B5A6115
:102C0C001A6842F400621A60704700BF0004014069
:102C1C0010B50A4C0023052220460949FFF73DFE5A
:102C2C000023052220460749FFF737FE4FF40043E7
:102C3C0063614FF48043636110BD00BF001001401D
:102C4C0080008004400040040549CB681A04DB4333
:102C5C0002F0004203F4004313430B61704700BFC2
:102C6C00001001400549CB681A04DB4302F0804296
:102C7C0003F4804313430B61704700BF0010014005
:102C8C000F4BDB6C9BB2A3F2CF62C62A10D9A3F612
:102C9C00EB22C62A0ED9A3F61C12C62A0CD9A3F60F
:102CAC003D22C62A0AD9C82B34BF102000207047F9
:102CBC00012070470220704704207047082070479D
:102CCC000024014010B5054C002305222046044980
:102CDC00FFF7E3FD4FF40053636110BD001001409A
:102CEC00200020044FF40052024B1628CCBF1A616E
:102CFC005A617047001001400C4BD3F8FC2022F0B5
:102D0C008072C3F8FC20D3F8FC2042F08072C3F828
:102D1C00FC20A3F55D431A6822F001021A601A68C0
:102D2C0042F001021A6000225A60704700ED00E088
:102D3C00064B074A1B680749B3FBF2F3434310B534
:102D4C004C684A68121B9A42FBD310BD3C00002011
:102D5C0040420F00001000E010B504466420FFF75D
:102D6C00E7FFA36843F00403A360A3685B07FCD4EC
:102D7C0010BD826842F001028260FFF7EDBF0000D7
:102D8C0013B50E4C2046FFF7A8FE2046FFF738FE81
:102D9C0040F201134FF40071094A20460093094B8D
:102DAC00FFF752FE2046FFF7E4FF6420FFF7C0FF59
:102DBC00A36843F4A003A36002B010BD002401403B
:102DCC0008008003000C01402DE9F04180464CF2D4
:102DDC0050300D4616461C460AF0BAFF68BBB8F1D7
:102DEC00010F06D0B8F1020F0CBF4FF002084FF0E4
:102DFC0004080027124A136943F0010313613801D8
:102E0C00C0F12002A0F1200304FA02F226FA00F02D
:102E1C00104324FA03F3184380B225F817004CF240
:102E2C0050300AF095FF18B90137FBB24345E6D391
:102E3C00034A136923F001031361BDE8F08100BF5D
:102E4C00002002407FB501230022CDE9040301A933
:102E5C0002A8CDE902230AF0B7FF00280CBF04201A
:102E6C00052007B05DF804FB0A4608B501460023AF
:102E7C000220FFF7A9FF00280CBF0420052008BD85
:102E8C0008B5FFF7DFFF031F5842584108BD08B5CE
:102E9C00FFF7EAFF031F5842584108BD2DE9F047E0
:102EAC00254B264D01280FBF7D267C26AA461D46A4
:102EBC000F4614462249234A06BF89469A46914634
:102ECC000AF02AFF31462846FFF7DAFF10B3002F2D
:102EDC0008BF4FF478744FF000080334A40805F1D0
:102EEC001006AAEB050A1FFA88F39C4218D93FB9C1
:102EFC005AF806104B1C06D108F101080436F2E70B
:102F0C0057F82810F6E74E4513D23046FFF7BFFFAF
:102F1C000028F1D100240AF011FF2046BDE8F0870B
:102F2C004FF011312846FFF7B2FF0028F2D00424ED
:102F3C00F1E70324EFE700BF00F0010800F40108FB
:102F4C00FFF70108FFF3010810B50AF0E5FE7C213C
:102F5C000748FFF795FF20B17D210648FFF790FF4A
:102F6C0020B900240AF0EAFE204610BD0424F9E73B
:102F7C0000F0010800F40108002330B5074A084DA1
:102F8C009CB2A14206D99C18AC4205D09C5CC4549E
:102F9C000133F5E7042030BD0320FCE710F00108F5
:102FAC00FFF3010838B504460D4672B60A460146D1
:102FBC000020FFF773FF62B6042806D172B6012019
:102FCC002A462146FFF76AFF62B638BD38B5124B68
:102FDC001C68D3F80054B4F1113F09D1B5F1113F7D
:102FEC0017D0002201201146BDE83840FFF756BF2C
:102FFC00B5F1113F03D1002211461046F4E7FFF75B
:10300C00A3FF042804D12C4001340CBF0220012062
:10301C0038BD0420FCE700BF00F00108034B187317
:10302C009A68D207FCD5187B704700BF003001406E
:10303C0010B508781446FFF7F1FF207010BD0000A2
:10304C00F0B50625012610278DB0274C282200212B
:10305C0002A80EF0C5FDFFF773FB4FF48050FEF78E
:10306C003BFF41F21001204603230622FFF715FC1B
:10307C002046276103230A2242F22001CDE90056A3
:10308C00FFF7B6FB204603230A2248F28001CDE964
:10309C000056FFF7ADFB032320461A4644F24001CD
:1030AC00CDE90056FFF7A4FB00234FF48272CDE963
:1030BC000533CDE909330293039204934FF4007264
:1030CC00072304F52054204602A90B930897079276
:1030DC000CF0CEFD236843F040032360A3689B07EC
:1030EC00FCD5237B0DB0F0BD000801401C4B10B487
:1030FC001A68940611D5D96888060ED5194C1A4849
:10310C005968238800880133C3F30A0380B29842BC
:10311C001FBF1648C9B2C1542380110744BF104BBE
:10312C005B68120616D50E48C3681B0612D5104BE9
:10313C00104A1988138889B29BB299420CD0138813
:10314C000133C3F30803138013880B4A9BB2D35C7F
:10315C00DBB2436010BC704710BCFEF7FFBE00BF73
:10316C0000380140123100201031002010290020BD
:10317C001633002014330020143100200A490B4A66
:10318C0008B50B8812880133C3F3080392B29A4234
:10319C0007D0074AD05407480B80FEF7B8FE012031
:1031AC0008BD0020FCE700BF1633002014330020BC
:1031BC0014310020003801400846FFF7DFBF000043
:1031CC00054B064A1B8812889B1A98B21B0444BFF5
:1031DC0000F5006080B270471231002010310020E1
:1031EC00FFF7EEBF0848094A0188138889B29BB2E1
:1031FC009942F9D013880133C3F30A03138013885F
:10320C00034A9BB2D05C7047123100201031002071
:10321C0010290020FFF7E6BF002300B5002989B074
:10322C00CDE9063318BF4FF48053CDE902320C239D
:10323C0001900491034801A905930CF077FE09B0A5
:10324C005DF804FB0038014010B5064CE36823F42C
:10325C000053E360FFF7E0FFE36843F40053E360DF
:10326C0010BD00BF00380140002208461146FFF790
:10327C00EBBF0000F7B5082601272E4C2E4DE36856
:10328C002E4923F40053E360FFF75AFA4FF48040C1
:10329C00FEF722FE284603230A22CDE90067FFF73A
:1032AC00A7FA032328461A46CDE900672449FFF7FD
:1032BC009FFA00224FF4E1301146FFF7ADFFB02228
:1032CC00236923F490432361636923F02A03636128
:1032DC001C4B83F8252320225A602046FEF73EFE25
:1032EC00FEF72FFE6FF0400323600024164B1C806A
:1032FC00164B1C80FEF718FE6FF020030360144B76
:10330C001C80144B1C80036923F400630361436924
:10331C0023F008034361036923F480430361436989
:10332C0023F022034361C36843F40053C36003B02A
:10333C00F0BD00BF0038014000080140020002044B
:10334C000400040400E100E01433002016330020D4
:10335C00103100201231002008B5FFF78BFF6FF001
:10336C002003034803604368BDE80840FEF7C2BD74
:10337C0000380140FFF7F0BF7FB500240125064659
:10338C0044F24001FFF7DCF902230B222648CDE979
:10339C000045FFF72DFA022348F280010B22CDE9FC
:1033AC0000452148FFF724FA3168204B99420AD195
:1033BC0003F5DE33DA6942F40012DA61DB6903F4F7
:1033CC0000130293029B002380221020184D194CED
:1033DC00C5E90133C5E90323C5E90533C4E9010394
:1033EC00C4E90323C4E90533EB61E3610F4B994254
:1033FC0018D103F5DE335A69284642F001025A61AE
:10340C005B6903F001030393039B0B4B2B600AF0E6
:10341C000DFB0A4B2046B5636E6223600AF006FB77
:10342C007463666204B070BD000C0140005400402F
:10343C00B00F0020F40F0020800002406C0002400E
:10344C0008B51448144B4FF4804203600023C0E9C4
:10345C000332124AC0E90533C0E90733C0E901233E
:10346C000AF04EFEA0B9F0220D4B83F81F234FF04B
:10347C000041196083F820230121596083F810233F
:10348C004FF48031196083F811234FF400321A6025
:10349C0008BD00BF3810002000540040801A060000
:1034AC0000E100E001480BF0E5BA00BF3810002045
:1034BC0001480BF01BBF00BF3810002001480AF078
:1034CC006BBB00BFF40F002001480AF065BB00BFC6
:1034DC00B00F0020014B1870704700BF8C100020FB
:1034EC001FB5084B1C784FF0FF33CDE901230123A6
:1034FC0002460091044804FA03F10AF0A9FE04B054
:10350C0010BD00BF8C1000203810002013B5064BE6
:10351C001C780123CDE90012024604FA03F103489A
:10352C000AF026FF02B010BD8C10002038100020CD
:10353C00044B0A22197804484FF0FF3349000AF073
:10354C00DDBF00BF8C1000203810002008B5FFF73D
:10355C0077FF0022014B1A7008BD00BF8C100020B1
:10356C0070B51B4C90220021201D0EF039FB01235D
:10357C0023800F234FF6FF75164E052231466380CC
:10358C00A380A01D2C23FDF713FB134A134B3146CC
:10359C00C4E90D2304F13E002C230522A587FDF779
:1035AC0007FB0223E36600230D4904F17A0084F83B
:1035BC0072306367A4F87830A4F870500EF034FBC6
:1035CC007F2384F88F30052384F8903070BD00BFC2
:1035DC00EC060020A830010802000F0003000500D3
:1035EC009E21010870B5094E05460C46415C3046DB
:1035FC000EF00DFB034628B1831B0133DBB2282BE5
:10360C0028BF0023F35C2B5570BD00BF6437010845
:10361C0070B50D461146044616460EF005FB2DB34B
:10362C00013D082D08D8DFE805F005111315171911
:10363C001B1D1F0035236371627973799A4215D172
:10364C002046BDE870400521FFF7CCBF6123F2E7AF
:10365C006623F0E76B23EEE77023ECE77523EAE7CC
:10366C007A23E8E73123E6E73223E4E770BD000074
:10367C0073B5054605F111061B4C01461B4A6846FD
:10368C003601FFF7C5FFB01C694620440EF0CCFA9A
:10369C0014200023012100FB054004EB05122644F5
:1036AC007372A2F81A310222C1640321A0F84A20D5
:1036BC0080F85010A0F852304FF4807180F85430DC
:1036CC0084F83030C4F83A30C4F83E30C4F8423094
:1036DC0040F20113E284064AA4F84630C4E90A1207
:1036EC00A4F8483002B070BD300500206F210108ED
:1036FC0003010100F7B5054605F111060146A94A7B
:10370C00A94C68463701FFF783FFB81C6946204473
:10371C002744FDF761F97B7A04EB0610052B84BF77
:10372C0000237B72A14B427A198841FA02F212F003
:10373C0001020DD1427259B111F0010208D141FAC6
:10374C0002F7FF07D0B240F1DE8104EB0612507293
:10375C0004EB051191F81A012A01032802D9002063
:10376C0081F81A01A718588897F81A1140FA01F134
:10377C00C90711D4022187F81A1168B14707C0F3A1
:10378C00800109D440FA01FC1CF0010FCFB200F00B
:10379C00BF81A11881F81A71A11891F81B01032897
:1037AC0002D9002081F81B01A718988897F81B11E3
:1037BC0040FA01F111F001010FD187F81B1160B132
:1037CC0010F0010109D140FA01FC1CF0010FCFB23D
:1037DC0000F0A381A11881F81B7104EB0616717A15
:1037EC00012905D904291EBF0021121982F81B11C9
:1037FC00142202FB054191F84A00042802D9022048
:10380C0081F84A0002FB054292F84B10042902D9B8
:10381C00002182F84B10142202FB0542998E92F87B
:10382C004B0041FA00F0C00712D4012082F84B0083
:10383C0071B18F07C1F340020AD441FA02F6F607C0
:10384C00D0B240F16F81142202FB054282F84B008A
:10385C00142202FB054292F84C10032902D90121D3
:10386C0082F84C10142000FB0540D98E90F84C20A7
:10387C0041FA02F212F0010210D180F84C2069B129
:10388C0011F001020AD141FA02F6F707D0B240F169
:10389C004E81142202FB054282F84C00142202FBDA
:1038AC00054292F84E10012902D9002182F84E10DF
:1038BC00142000FB0540198F90F84E2041FA02F2BB
:1038CC0012F0010210D180F84E2069B111F0010202
:1038DC000AD141FA02F6F607D0B240F12D8114223A
:1038EC0002FB054282F84E00142202FB054292F8BC
:1038FC004F10022902D9002182F84F10142000FB2E
:10390C000540598F90F84F2041FA02F212F0010253
:10391C0010D180F84F2069B111F001020AD141FA9F
:10392C0002F6F707D0B240F10C81142202FB0542DB
:10393C0082F84F00142202FB054191F84D00022839
:10394C0002D9002081F84D0002FB054292F850107C
:10395C00052902D9032182F85010142202FB0541DB
:10396C0091F85200012802D9002081F8520002FB84
:10397C00054292F85310022902D9002182F8531003
:10398C00142000FB0540998F90F8532041FA02F265
:10399C0012F0010217D180F85320A1B111F00102ED
:1039AC0011D105E06F21010830050020EC06002044
:1039BC0041FA02F6F607D0B240F1C880142202FB9D
:1039CC00054282F85300142202FB054191F8540081
:1039DC00022802D9002081F8540002FB054292F81B
:1039EC004C10012906D192F84F10022904BF002176
:1039FC0082F84F1094F82620042A02D9022284F867
:103A0C00262094F82720042A02D9002284F82720A3
:103A1C00B3F86C1094F8272041FA02F2D6070FD4B1
:103A2C00012284F8272059B18807C1F3400207D43A
:103A3C0041FA02F6F707D0B240F18D8084F82700E6
:103A4C0094F82820022A02D9002284F8282094F81D
:103A5C002920022A02D9012284F82920B3F86E10F9
:103A6C0094F8293041FA03F313F00102674B0CD19F
:103A7C0084F8292049B111F0010206D141FA02F66D
:103A8C00F607D0B26CD583F8290094F82A200C2ABA
:103A9C0002D9002284F82A2094F832200C2A02D968
:103AAC00002284F8322093F82B20042A02D9002219
:103ABC0083F82B2093F82F20012A02D9002283F8B7
:103ACC002F20534AB2F8701093F82F2041FA02F2CB
:103ADC0012F001020CD183F82F2049B111F0010230
:103AEC0006D141FA02F4E707D0B23DD583F82F0096
:103AFC0000221046474911F9014B14F1780F37DABF
:103B0C0001F8010C36E00132102A7FF418AE1FE6E2
:103B1C00013110297FF436AE3EE6013110297FF4D5
:103B2C0052AE5AE60132102A7FF487AE90E601328B
:103B3C00102A7FF4A8AEB1E60132102A7FF4C9AE88
:103B4C00D2E60132102A7FF4EAAEF3E60132102AF3
:103B5C007FF42EAF37E70132102A7FF469AF6FE79D
:103B6C000132102A8AD190E70132102AB9D1BFE76D
:103B7C00782CC5DC0132D2B20C2ABCD10022012037
:103B8C00254911F8014B0132022CD2B288BF01F841
:103B9C00010C042AF5D193F82C20052A02D9032212
:103BAC0083F82C2093F82D20022A02D9012283F8C5
:103BBC002D2093F82E20022A02D9012283F82E20E0
:103BCC0093F83020022A02D9002283F830201421E5
:103BDC00FF226943581883F8312080F851204FF6A2
:103BEC00FF744FF0FF32553103EB051558181A626C
:103BFC009A84C5F81C21A5F820415A5042600472E1
:103C0C0083F833205A631A8703B0F0BD30050020C7
:103C1C00EC0600206A05002076050020124B9870F7
:103C2C00032803D8DFE800F0030E141AFEE70F4A4E
:103C3C009A6200221A710A22033818BF01201A74E2
:103C4C00987370470A4A9A6201221A710F22F3E79D
:103C5C00084A9A6202221A711922EDE7064A9A6200
:103C6C0000221A710722E7E7F80400201400320042
:103C7C0020001F003500130009006F002DE9F341EF
:103C8C0000F11107694E3F0107F10208B0440546E7
:103C9C004046FCF7BDFE042101900DEB0100FEF740
:103CAC008FF9634C019B0021A360142303FB056374
:103CBC0093F84A205F4B374413F822306082237309
:103CCC005D4B84F8341023637B7A2F01637006EB11
:103CDC00051393F81A01FFF7A1FF6378628A6373E7
:103CEC002377A261A1771BB94046FCF7B1FEA07700
:103CFC00374497F81B21627762B1618A02EB021399
:103D0C0003EB03230B444FF011316382A36801FBD7
:103D1C000233A360237F052B04D8DFE803F00432C1
:103D2C003436383EFEE7A378032B03D8DFE803F0E4
:103D3C0003252703FEE71823237540F2E243207D79
:103D4C00A385FCF7C9FA4FF07F51FCF719FBFCF780
:103D5C0019FD4FF47A73228DC0B2B3FBF2F32384B6
:103D6C00142303FB056393F85030E085052B3FD8F3
:103D7C00DFE803F01535383B3E411223DCE70C231A
:103D8C00DAE71923D8E70623D6E70223D4E7A3788A
:103D9C00012BF2D0022BF2D0FEE70323CCE74FF439
:103DAC00165314206362002300FB056584F835303C
:103DBC00E38695F84C30032B03D095F84F20022A5C
:103DCC0002D1012284F83520012B08BF84F836304B
:103DDC0094F8353093B194F836207AB1FEE74FF46D
:103DEC009643DEE74FF41643DBE74FF46143D8E725
:103DFC004FF4E133D5E74FF46133D2E71421227845
:103E0C0001FB026696F84C20022A07D1012284F8A5
:103E1C00372023B194F837302BB1FEE71BB994F857
:103E2C003630002BF6D102B0BDE8F0813005002011
:103E3C00F8040020A8300108010100014FF4DE72E3
:103E4C00FF2101480DF0CCBE300500204FF4DE718F
:103E5C000148FFF7A7B800BF300500204FF4DE7112
:103E6C000148FFF789B800BF3005002008B5FFF7FF
:103E7C00F5FF034B1878BDE80840FFF73BBC00BFCB
:103E8C00F804002070B5FFF7D9FFFFF79FF804285E
:103E9C000CD0FFF7D3FFFFF799F8042803D1FFF7F5
:103EAC00DDFF042806D0FFF7C9FF03E0FFF7D6FFBC
:103EBC000428EED140F24F12524CA38A934267D0A1
:103ECC00B3F5A47F36D80125062204F1160104F5BA
:103EDC008970FCF7FCFE637F84F81931A37F84F8AA
:103EEC001A3128460135EDB2FFF7C2FB0A2DF8D185
:103EFC000023E37740F24F130125A38242F21373A0
:103F0C00226941499A423F484FF010021CBF0125DB
:103F1C0023610DF091FE00283CD010223A4939481B
:103F2C00FCF7C4FE082239493948FCF7BFFEFFF7FD
:103F3C008DFF31E0B3F5A77F22D82346002203255D
:103F4C000121022693F84C0001280DD003280ED035
:103F5C0093F84F0001280DD002280ED001320A2A06
:103F6C0003F11403EED1C5E783F84C50F0E783F866
:103F7C004C10EDE783F84F60F0E783F84F10EDE756
:103F8C000025E8B20135FFF773FB0A2DF9D1AFE735
:103F9C000025B3E7002DCAD1E37F092B84BF002392
:103FAC00E3771423E17F03FB014393F84C2002F0E9
:103FBC00FD02012A17D10022124993F84C0001325C
:103FCC000A2A81F84C0001F11401F6D1114DE37F5E
:103FDC002B70FFF7C5FA2878FFF78CFB2878BDE823
:103FEC007040FFF74BBE49B10B4903F14A025E33F7
:103FFC0052F8040B9A4241F8040BF9D10023E377F1
:10400C00E4E700BF30050020762101088721010874
:10401C00E2060020F80400207A05002010B5C01A32
:10402C009DF80840123080F30500A042C8BF20B2B2
:10403C00C0B2123B08701844107010BD07B508468A
:10404C0011461A46122300931B23FFF7E7FF03B018
:10405C005DF804FB0229F7B5054600D9FEE70B4EC7
:10406C000F0106EB0114A3786278F15D84600CF00B
:10407C0017FAE37928460193A37922790093E17822
:10408C0063790CF036FA03B0F0BD00BFA85B0108F1
:10409C00024638B5044652F8143B5D6900F115032D
:1040AC00A8472046217D2022BDE838400CF085BA77
:1040BC0070B58D7A044686B0016175B301210CF0A0
:1040CC00C5F9012120460CF0DEFA012120460CF046
:1040DC00F4FA2369204693F90810FFF7D9FF2369F6
:1040EC0020461978FFF7B6FF0022204611460CF047
:1040FC00CAF9002344F20302204600934FF6FF71E5
:10410C000CF013FA20464FF6FF710CF03CFA2046E7
:10411C0006B0BDE870400CF0C2BA03210CF096F961
:10412C00204601210CF0AFFA204601210CF0C5FA13
:10413C002369204693F90810FFF7AAFF23692A4642
:10414C005E680B4B2046E360862110230CF0DAFAF4
:10415C0046F6E823CDE902535B230422CDE9005354
:10416C00702110232046CDE904650CF0DAFABBE788
:10417C00945B010810B504460CF091FA2046BDE89A
:10418C0010404FF6FF710CF0FEB9000038B5044634
:10419C00036801695D6900F1140200F1150391F9DE
:1041AC000810A84723699A7A42B11A78022A00D9D2
:1041BC00FEE7044B03EB0213A36038BD024BE36034
:1041CC00FBE700BFA85B0108945B010810B5094C24
:1041DC00A36823B9E36813B92046FFF7D7FF236917
:1041EC009B7A23B1A3689868A0F57A7010BDE36838
:1041FC00D868F9E7C8250020836810B504461BB9B8
:10420C00C3680BB9FFF7C2FF23699B7A1BB1A36884
:10421C00B3F90C0010BDE368B3F91000FAE783683A
:10422C0010B504461BB9C3680BB9FFF7AFFF94F97F
:10423C00150010BD012230B5A1F12103C1F12104FB
:10424C0022FA04F44D1E02FA03F32343AA404FF062
:10425C00FF344FF0FF35C0E90223C0E90445C0E943
:10426C000623017080F8201030BD00220123114676
:10427C00F0B5D0E90276D0E904549F4276EB020CFB
:10428C000BD303EA050C02EA040E5CEA0E0C1CBF0D
:10429C00013189B2DB185241EFE7D0E90632DB1865
:1042AC0052419F4280F8201076EB02010AD3C0E9FC
:1042BC000632D0E9062325EA020524EA0304C0E904
:1042CC000454F0BD01220023C0E90623F1E70000ED
:1042DC0090F8D8305BB190F8D930074A180102EB4E
:1042EC0003139B681978135853F821007047037D0A
:1042FC000E3350F823007047483001082DE9F34184
:10430C000446164688469DF824705B22402F4FF0D9
:10431C0000011D4628BF40270DF062FC8E4B5B8AC6
:10432C0023803278A37862F30203A3707378DB00E6
:10433C0003F0080343EA0811A37803F007031943B9
:10434C00A1707279E37862F30003E370B279637958
:10435C0062F38613637196F90200FCF783FAE37833
:10436C0060F34703E370F278237962F30603237159
:10437C00337903F00102237903F07F0343EAC2137C
:10438C0023713379C3F34502637923F03F0313435D
:10439C006371A37967F34703A3712B78AA78E37150
:1043AC006B7802F01F0203F0070343EAC203237287
:1043BC006B88C3F34512637A23F03F031343637294
:1043CC002B7903F00302637A03F03F0343EA821371
:1043DC006372AB88C3F38703A3726B79C3F3800258
:1043EC00E37A23F001031343E372AB7903F07F020A
:1043FC00E37A03F0010343EA4203E372EB88C3F36D
:10440C00C312237B23F00F03134323732B7AAA7A53
:10441C00E3736B7A02F01F0203F0070343EAC20353
:10442C0023746B89C3F34512637C23F03F0313435E
:10443C0063742B7B03F00302637C03F03F0343EABA
:10444C0082136374AB89C3F38703A3746B7BC3F3CD
:10445C008002E37C23F001031343E374AB7B03F092
:10446C007F02E37C03F0010343EA4203E374EB892C
:10447C00C3F3C312237D23F00F03134323752B8A3D
:10448C00DB0863756B8ADB08A375AB8ADB08E37505
:10449C00EB8ADB0823762B8BB3F5C06F3AD2B3F5DE
:1044AC00007F94BF00230123227B63F30512227348
:1044BC006B8BB3F5C06F2FD2B3F5007F94BF002385
:1044CC000123227B63F387122273AB8BB3F5C06F8E
:1044DC0024D2B3F5007F94BF00230123227D63F324
:1044EC0005122275EB8BB3F5C06F19D2B3F5007FB3
:1044FC0094BF00230123227D63F38712089B22754E
:10450C001F4404F11902BB420CD013F8011B02F832
:10451C00011BF8E70223C7E70223D2E70223DDE7FA
:10452C000223E8E74FF6FF7321460DF106000D223A
:10453C00ADF80630FDF72CFD2146BDF806304C22B7
:10454C0021F80D3FFDF724FDBDF80630A4F85930D5
:10455C0002B0BDE8F08100BFF804002013B59DF84F
:10456C001040CDE9003413460A460021FFF7C6FE81
:10457C0002B010BD13B5144B02885B8A04469A42F4
:10458C001DD1837803F0F003102B01D0202B18D110
:10459C00A379A52B15D84FF6FF730DF10600592200
:1045AC002146ADF80630FDF7F3FCB4F85900BDF820
:1045BC000630984214BF0420002002B010BD012028
:1045CC00FBE70220F9E700BFF804002030B5334BBD
:1045DC00027893F8261000F1170461F303020270BD
:1045EC0093F8271061F30712027093F828104278A1
:1045FC0061F30302427093F8291061F307124270C1
:10460C0093F82A10827861F30302827093F83210C7
:10461C00827961F30302827193F82B10827861F333
:10462C000712827093F82C10C27861F30302C270E7
:10463C0093F82D1061F30712C27093F82E100279C3
:10464C0061F30302027193F82F1061F307120271E8
:10465C0093F83010427961F30302427103F13A018D
:10466C0000F10B0211F9015B02F8015BA242F9D1D6
:10467C0093F84610C27D61F30102C27593F847109E
:10468C0061F38302C27593F8481061F30512C27589
:10469C0093F8493063F38712C27530BD30050020A2
:1046AC0002782F4BC2F3030230B583F82620027830
:1046BC0003F13A01C2F3031283F82720427800F188
:1046CC001704C2F3030283F828204278C2F30312C2
:1046DC0083F829208278C2F3030283F82A20827996
:1046EC00C2F3030283F832208278C2F3031283F8F8
:1046FC002B20C278C2F3030283F82C20C278C2F3B9
:10470C00031283F82D200279C2F3030283F82E20C2
:10471C000279C2F3031283F82F204279C2F3030209
:10472C0083F8302000F10B0212F9015BA24201F870
:10473C00015BF9D1C27DC2F3010283F84620C27D30
:10474C00C2F3810283F84720C27DC2F3011283F8C1
:10475C004820C27DC2F3811283F8492030BD00BFCE
:10476C00300500201FB58DF80C300123019303ABED
:10477C00009313460A460221FFF7C0FD05B05DF811
:10478C0004FB00000123F0B5204D044685F872307F
:10479C0085B0B0F80900FCF730FA6E466867B4F8DB
:1047AC000B30142204F10D0105F17A00A5F87830D4
:1047BC00FCF78DFA94F9213004F1230085F88F3041
:1047CC0094F8223004F1510785F89030FFF768FF18
:1047DC0004F14103324618685968083303C2BB42DE
:1047EC001646F7D12C23082269460948FCF762F9D2
:1047FC0094F85130A5F86C3094F85230A5F86E301E
:10480C0094F85330A5F8703005B0F0BDEC060020DC
:10481C002A0700202DE9F0474FF0400A92B00DF125
:10482C00080906460F4690460021524648460DF0B0
:10483C00D7F92223194C1A4D21780DF10A0005EBFA
:10484C000111062201F589718DF80830FCF72EFA5A
:10485C00237805A805EB031205EB031595F8194110
:10486C0092F81B119DF8113092F81A2104F00F04E4
:10487C0044EA021461F303038DF811308DF81040F3
:10488C00FFF7A4FE43463A4602213046CDE9009A92
:10489C00FFF734FD12B0BDE8F08700BFF80400202C
:1048AC003005002010B50446FDF79EFB04F1140002
:1048BC00FDF79AFB04F12800FDF796FB04F13C0090
:1048CC00FDF792FB04F15000FDF79EFB04F1640030
:1048DC00FDF79AFB10BD000000230A4A8380126882
:1048EC0083718260084A838103841368036153686F
:1048FC00064A4361136883615368C3614EF66023B3
:10490C0003607047283500208D210108962101088D
:10491C0010B5104C0220FFF781F92046FFF72AFC56
:10492C0020466FF07F01FFF7B3FB002120460BF010
:10493C0076FD4FF47A70FEF7FBF9204601210BF05F
:10494C0085FD236920461978FFF784FB2046FFF785
:10495C0011FC10BDC82500201B4B1A6890F82030A4
:10496C001BB980F82130826019E090F82130013BAE
:10497C005BB2002B80F821300ADC002380F8203059
:10498C00F1E7012303711CE04379002BF9D1704747
:10499C008368D21AB2F57A6F01D901234371037976
:1049AC00002BF1D0094B427B1B781AB1022B1CBF98
:1049BC00032202739A1E534253414373837913B1FA
:1049CC0003230373704770472835002071080020BB
:1049DC000346007B821E012A4FF0000202D893F896
:1049EC00201009B91A737047104670470A4A38B537
:1049FC001388044601339BB2502B0D4601D813800B
:104A0C0038BD002305491380FDF78AFE2946204650
:104A1C00FDF786FEF4E700BF800D00209822010808
:104A2C002DE9F74F16460546884600277049FDF7D5
:104A3C0077FE31462846FDF773FE6E4BB8F1010F39
:104A4C006D4C1F8011D14FF400434FF480476361CC
:104A5C0046F2A8102761FEF76BF96761FEF768F95B
:104A6C0031462846FFF7C2FFF2E7B8F1020F11D129
:104A7C004FF480434FF40047636146F2A81027615E
:104A8C00FEF756F96761FEF753F931462846FFF7F2
:104A9C00ADFFF2E7B8F1030F11D14FF400434FF41F
:104AAC008047236146F2A8102761FEF741F9676140
:104ABC00FEF73EF931462846FFF798FFF2E7B8F1CA
:104ACC00040F11D14FF480434FF40047236146F299
:104ADC00A8102761FEF72CF96761FEF729F931461A
:104AEC002846FFF783FFF2E7B8F1050F14D14FF416
:104AFC0080484FF4004746F2A810C4F81080276194
:104B0C00FEF716F9C4F814806761FEF711F9314607
:104B1C002846FFF76BFFEEE7B8F1060F14D14FF400
:104B2C0080484FF4004746F2A810C4F81080676123
:104B3C00FEF7FEF8C4F814802761FEF7F9F8314649
:104B4C002846FFF753FFEEE7A8F10A03042B40D8E1
:104B5C004FF4004B4FF48049A8F1090A5FFA8AFA26
:104B6C000423574538BFC4F810B0019346F2A8107F
:104B7C00C4F81090FEF7DCF8C4F81490FEF7D8F8DF
:104B8C0031462846FFF732FF019B013B13F0FF0330
:104B9C00EBD10423C4F814B0019346F2A810C4F866
:104BAC001090FEF7C5F8C4F81490FEF7C1F8314622
:104BBC002846FFF71BFF019B013B13F0FF03EBD1D2
:104BCC000137A8F10803FFB2DBB2BB4238BF0027A4
:104BDC00C6E74FF4804323614FF4004323614CF24A
:104BEC005030FEF7A5F831462846FFF7FFFEF6E7F2
:104BFC0098220108800D0020001001406FF0010286
:104C0C00094B0A491A610A88013A92B20A800A8849
:104C1C0092B23AB9DA6822F00102DA601A6822F02C
:104C2C0001021A60704700BF00040040C207002058
:104C3C006FF00102054B1A61DA6822F00102DA60AA
:104C4C001A6822F001021A60704700BF000400408D
:104C5C0010B5194C88B0FFF7EBFF40F2022101238D
:104C6C000A221648FDF719FE204600224FF47A71ED
:104C7C00FDF71EFE0023CDE90133039360230222CE
:104C8C0000934FF480730492CDE905234FF48051C7
:104C9C006A46204607930BF04FF8094A536823F4F1
:104CAC0080635360E022074B83F81D234FF00052C2
:104CBC001A6008B010BD00BF00040040000C014099
:104CCC001804004000E100E0074BB3FBF1F1074B87
:104CDC00D962490819641A6842F001021A601A6A0A
:104CEC0042F480521A62704740420F0000040040A8
:104CFC000D480E4BB0FBF1F051434FF47A72B1FBFF
:104D0C00F2F10B4AD86289B24008186411801A6813
:104D1C0042F001021A601A6A42F480521A62DA688E
:104D2C0042F00102DA60704740420F00000400407C
:104D3C00C207002019B94FF4FA71FFF7C5BF182943
:104D4C0005D84FF4FA724FF4FA71FFF7D1BF4A2924
:104D5C0001D8FA22F7E7632901D83222F3E7FFF7EB
:104D6C0067BF0000044B1B68DB0704D428224FF4F8
:104D7C00FA71FFF7BDBF70470004004010B5044640
:104D8C0094F9013008468B4201D1237823B90123D1
:104D9C002370FDF7A7FF607010BD0000054A064B9D
:104DAC0011681B780B441360044A136801331360B9
:104DBC00704700BF28350020400000207C0D0020EB
:104DCC00014B1868704700BF2835002037B50C46DA
:104DDC001D4668B907480DF106020DF107010BF0ED
:104DEC0042FC2B4622469DF8061002480BF0F2FAC4
:104DFC0003B030BDC825002070B50D4616461C46C4
:104E0C000146B0B9FDF7C0FE0C4833462A460BF0FC
:104E1C00BBFA4FF6FF7109480BF0B5FB22010748AE
:104E2C00012192B20BF0D9FBBDE870407D20FDF75B
:104E3C007FBF0248FFF79EF970BD00BFC825002058
:104E4C002DE9F0414FF05B0805461E4C0E464246DC
:104E5C00002120460CF0C4FE2B691B4F23606B69AC
:104E6C0039786360194B1A4D1B7805EB01119A1EAA
:104E7C0053425341627A04F10A0063F300026272F6
:104E8C0001F589710622FBF711FF3B78592105EBDF
:104E9C00031595F81A21237C204662F3071323741B
:104EAC0095F81B21637C62F303036374FDF788F8A8
:104EBC004246A4F85900214630463B7CBDE8F041FF
:104ECC00FFF79ABFF5250020F80400207108002098
:104EDC003005002037B50C46A8B9124803699D7AF5
:104EEC009DB101F17A020DF106010BF0A0FBBDF9A9
:104EFC000630002B10DB4FF6FF73ADF80630BDF813
:104F0C00063084F8783003B030BD0DF106010BF09B
:104F1C0063FC84F87A50EAE77F33F0DA4FF681735A
:104F2C00EBE700BFC825002070B50D460646114CB6
:104F3C005B23224621462846FFF748FFD6E9061395
:104F4C00206862689A4208BF884211D120465921D4
:104F5C00FDF736F8B4F85940231A5C425C412846F8
:104F6C000549FFF7B7FF002C0CBF0120022070BDD4
:104F7C000024F4E728240020402500200A4608B528
:104F8C0001460148FFF74CFD24000020164600B5F1
:104F9C0091B0044668461D460CF046FE184968461A
:104FAC000CF026FE30460BF0FDF8014668460CF07E
:104FBC001FFE144968460CF01BFE134B684653F851
:104FCC0025100CF015FE114968460CF011FE104D21
:104FDC009DF84830684655F823100CF009FE0D4931
:104FEC0068460CF005FE9DF84C30684655F82310C9
:104FFC000CF0FEFD6A4621460748FFF711FD00BF85
:10500C009F210108A621010800000020AB21010806
:10501C0010000020B2210108240000200148FDF7F7
:10502C00A6BC00BF00040040014B586A80B2704718
:10503C0000040040F8B505464FF07F301C4B1D4A6C
:10504C000024C3E91E024FF6FF720E46FF27C3E988
:10505C000244C3E90744C3E90C44C3E91144C3E95E
:10506C001644C3E91B445C601C749C6183F82440A7
:10507C00DC6283F838401C6483F84C405C6583F830
:10508C0060409C6683F87440A3F88220A3F88440A7
:10509C0005F1080083F8817083F88640FFF7CAF8A1
:1050AC00314605F13000FFF7C5F82C80AF70F8BD24
:1050BC0040250020FFFF7F0010B504463030FFF77D
:1050CC00D4F804F10800FFF7D0F810BD4FF07F3191
:1050DC00144B154A30B5C3E91E12FF2283F8812008
:1050EC004FF6FF72A3F882200022A3F8842083F8E5
:1050FC0086204FF0FF32D0E90E454FF0FF3390F889
:10510C003010C0E91023C0E90623D0E90423C0E91C
:10511C000823037AC0E9124580F8501080F8283033
:10512C0030BD00BF40250020FFFF7F00D0E90623E3
:10513C0010B5D0E9084122430B43C0E90623024ACB
:10514C0053680133536010BD40250020D0E9102373
:10515C0010B5D0E9124122430B43C0E91023024A97
:10516C0093690133936110BD402500202822074B21
:10517C0002FB00339B681A78542A05D15878A0F1A9
:10518C00780358425841704700207047D4300108CA
:10519C002822074B02FB00339B681A78522A05D150
:1051AC005878A0F178035842584170470020704756
:1051BC00D43001082822074B02FB00339B681A7875
:1051CC00542A04D15878783818BF01207047012030
:1051DC00704700BFD4300108282343430A4A10B556
:1051EC00D1580446FFF7D4FF40B92046FFF7BEFF65
:1051FC00064B1B7820B1142202FB0311084610BD8C
:10520C0001EB0311FAE700BFD4300108F8040020C9
:10521C00292838B505460C4631D82822194B02FBF3
:10522C0000331B79042B07D84BB3023B022B05D858
:10523C00DFE803F011171F00FE2B20D12846FFF7E3
:10524C00CBFF0378E4B2A34219D004702846BDE822
:10525C003840FFF7AFBFFFF7BFFF64B290F90030E3
:10526C00F1E7FFF7B9FF0288A3B29A4207D0048096
:10527C00ECE7FFF7B1FF23B2B0F90020F5E700200F
:10528C0038BD00BFD4300108292838B504460D4676
:10529C0019D828220D4B02FB00331B79FF2B12D19E
:1052AC00FFF79AFF06222946FBF723FD58B9204643
:1052BC00FFF792FF29460622FBF709FD2046BDE8C1
:1052CC003840FFF777BF002038BD00BFD43001084D
:1052DC002DE9F043154628224A4307463448012B52
:1052EC0000EB0204246A87B027D1324B8258022982
:1052FC0008BF1C46304B9A4230D03049243B9A426E
:10530C0008BF0C46FF234FF0000801268DF8003033
:10531C002046FAF71FFF5FFA88F9484522D914F89E
:10532C0009302C2B06D106F118036B44013603F817
:10533C00188CF6B208F10108EAE7022BE2D1204BF7
:10534C008258022908BF1C461B4B9A4208D0A3F175
:10535C0024018A4204D01B491E3BD0E7174CD1E7ED
:10536C00194CCFE706F118036B44AE4203F8188CC6
:10537C0004D80020387007B0BDE8F08305F118039D
:10538C000DEB0305002315F8181C15F9175C0131FA
:10539C00C9B25A18D2B2AA4207EB030004DAA25CD3
:1053AC000133DBB20270F4E7002303700120E2E763
:1053BC00D4300108B92101087B0500201F22010807
:1053CC00F22101087D220108532201082822054BF5
:1053DC0002FB00335B6A0BB1188870474FF6FF7005
:1053EC00704700BFD430010828220B4B70B502FB6C
:1053FC0000331E6A3046FAF7ADFE00220446114611
:10540C00D5B24B1CAC42D8B205D9735D01322C2BF2
:10541C0008BF0146F4E770BDD430010828220F4BB9
:10542C00014602FB00331B7910B5FE2B13D1FFF79D
:10543C00CDFF04460846FFF7D7FF00220146104671
:10544C00D3B2994208D944FA02F3DB0744BF431C98
:10545C00D8B20132F4E7FF2010BD00BFD4300108F0
:10546C002DE9F04F002405460F46A0461D4E93B083
:10547C004FF0000AD6F808905FFA84FB5FFA8AF1C5
:10548C0048460191FAF766FE019901F148038842FA
:10549C006B4411D919F8010001930CF067FCC0B2F0
:1054AC00202808BF5F22019B0AF1010A14BF03F8F0
:1054BC00400C03F8402CE1E7394603F8408C02A875
:1054CC00FAF73EFE28B9012085F800B013B0BDE80C
:1054DC00F08F01342A2C06F12806C9D1002085F85A
:1054EC000080F3E7D430010828232DE9F0411D4E4C
:1054FC00044603FB016633790D46FE2B174618D084
:10550C00FF2B21D0022B28D10846FFF765FE214640
:10551C0090F900000AF0F2FD35692B783BB1124985
:10552C0020460CF065FB294620460CF061FB01205F
:10553C0015E00846FFF750FE3B4629460278204608
:10554C00BDE8F041FFF7C4BE0846FFF745FE062252
:10555C0001462046FBF7BBFBE9E700202070BDE8C5
:10556C00F08100BFD4300108B5220108F8B5164609
:10557C0028220024174B074602FB06331A790D46E6
:10558C00022A047003D0FE2A13D02046F8BD93F9EA
:10559C0018208A42F9DC93F91C309942F5DC4FF063
:1055AC000001304665F30701FFF732FE0124387025
:1055BC00EBE70029E9DB3046FFF716FFA842E4DDF4
:1055CC003046FFF703FF40FA05F313F00100E6D174
:1055DC000446DAE7D43001082DE9F84300231746D6
:1055EC0028220370114B064602FB07331B790C462D
:1055FC00FF2B03D000252846BDE8F8830846FAF7B0
:10560C00A9FD0628F6D104F1FF3804F1050918F8B4
:10561C00010FFBF7C9F905460028EBD0C845F6D1B8
:10562C0021463846FFF730FE3070E4E7D4300108ED
:10563C004FF0280CF8B500270F4B04460CFB023337
:10564C001B790E46FE2B1546077004D0FF2B0CD091
:10565C00013B032B0DD830460CF064FA2A46014668
:10566C002046BDE8F840FFF781BFBDE8F840FFF7E2
:10567C00B3BF3846F8BD00BFD430010838B5054675
:10568C00044655F8050BFDF74BF829462068FDF745
:10569C0047F838BD38B50025044601600571074947
:1056AC0005300CF0C1FA84F889506572C4F88C503E
:1056BC0084F8905084F8985038BD00BF95220108AA
:1056CC0003798B420DD00129017106D0022906D035
:1056DC0039B9044905300CF0A7BA0349FAE7034974
:1056EC00F8E77047952201089822010897220108D3
:1056FC0090F88930642B08D8C2180133DBB2517290
:10570C0080F88930184400234372704708B509307B
:10571C00FAF716FDB0FA80F0400908BD2DE9F04308
:10572C00064691B0084688461546FAF713FD06F171
:10573C00090904464846FAF70DFDE4B2631CC7B2EA
:10574C00BB4203DB002011B0BDE8F083224641468A
:10575C0048460CF071FA0028F4D1224604F10903F2
:10576C001E44BA4203460CD216F8011B202905D060
:10577C00403301306B44C0B203F8401C0132D2B24A
:10578C00EFE7002200F140036B44022803F8402CA1
:10579C00D8D19DF800303D2BD4D19DF80130303B51
:1057AC00DAB2092ACED801202B60CCE710B504461A
:1057BC0007490068FCF7C0FF064B206819783031A8
:1057CC00C9B2FCF7A9FF20460349FFF757FF10BDEC
:1057DC009A220108F80400209E2101082DE9F047C7
:1057EC00437A8046702B0F46164690B072D1837A5E
:1057FC00202B6FD1C07A0CF0C3F9002842D00025C1
:10580C004FF002092C4608F1090A5046FAF7A2FC9F
:10581C00814515D208EB09035B7A3D2B0ED0202B6A
:10582C0007D005F140016A1C0DEB010505F8403C61
:10583C00D5B209F101035FFA83F9E6E72C46F0E7EC
:10584C0005F140030DEB0305002305F8403CE4B9DA
:10585C006846FAF77FFCE5B2A84207EB050304F1B2
:10586C00010408D905F140036B4413F8400C0CF00B
:10587C007DFA7855ECE70022304617491A700CF087
:10588C00D3F9012010B0BDE8F087E8461D4618F8A2
:10589C00010B0CF06BFA78550135EBB2A342F6D341
:1058AC0000253D550134E4B26846FAF753FC6719FC
:1058BC00FFB2874206EB050309D207F140020DEB5C
:1058CC00020717F8402C0135EDB21A70ECE70022F4
:1058DC001A70D6E70020D5E7922801082DE9FF477A
:1058EC0028232C4E044603FB016633790D46FE2B10
:1058FC0022D0FF2B4BD0022B1BD196F918502649E6
:10590C000068FCF719FF284669460AF0F7FB694660
:10591C002046FFF7B3FE96F91C5020492068FCF78F
:10592C000BFF694628460AF0E9FB69462046FFF75B
:10593C00A5FE04B0BDE8F0870846FFF747FD00263A
:10594C008046DFF85C90DFF85CA0F7B201233A46A2
:10595C0029466846FFF7BCFC0028EAD0B3B248FAE7
:10596C0003F3DB0711D549462068FCF7E5FE07F188
:10597C0030012068C9B2FCF7CFFE51462068FCF715
:10598C00DBFE69462046FFF779FE0136DDE7064966
:10599C00CDE700BFD4300108A4220108AC220108D5
:1059AC00B4220108B7220108BB220108F0B5044655
:1059BC0089B008460D46FFF731FD2E490646206892
:1059CC00FCF7BAFE28232C4F206803FB0577B96837
:1059DC00FCF7B2FE29492068FCF7AEFE2EB9204632
:1059EC002749FFF74BFE09B0F0BD01222946684656
:1059FC00FFF77AFD69462068FCF79EFE3B79FE2B8B
:105A0C0006D0FF2B1DD02068611DFCF795FEEAE740
:105A1C002846FFF7E1FB05781A492068FCF78CFE55
:105A2C0005F130012068C9B2FCF776FE16492068F2
:105A3C00FCF782FE012EE6D114492068FCF77CFEAF
:105A4C00E1E7134B5B78002BDDD16846FBF700F8E0
:105A5C000428D8D8DFE800F0030507090B000D492E
:105A6C00EBE70D49E9E70D49E7E70D49E5E70D4996
:105A7C00E3E700BFB4220108D4300108B7220108C3
:105A8C00CA220108DA220108C8220108DD22010815
:105A9C00F8040020EC220108F1220108F62201088A
:105AAC00FB220108012301080129F8B506460D4621
:105ABC0001D9032907D11B4B1B78022B03D030468D
:105ACC001949FFF7DBFD0024164F012D08D12046A4
