:020000040800F2
:1000000000500020B9B80008A1B80008A3B8000843
:10001000A5B80008A7B80008A9B8000800000000AB
:10002000000000000000000000000000ABB8000865
:10003000ADB8000800000000AFB80008B1B8000873
:1000400001B9000801B9000801B9000801B90008A8
:1000500001B9000801B9000801B9000801B9000898
:1000600001B9000801B9000801B9000801B9000888
:1000700001B9000801B9000801B9000801B9000878
:1000800001B9000801B9000801B9000801B9000868
:1000900001B9000801B9000801B9000869A6000803
:1000A00001B9000801B9000801B9000801B9000848
:1000B000A53D000801B9000801B9000801B9000810
:1000C00001B9000801B9000801B9000801B9000828
:1000D00001B90008F92400087122000885530008BE
:1000E00001B9000801B9000801B9000800000000CA
:1000F0000000000000000000000000000000000000
:0C01000000000000000000005FF808F1A3
:10010C0010B5054C237833B9044B13B10448AFF345
:10011C0000800123237010BDB000002000000000FF
:10012C0078E4000808B5034B1BB103490348AFF34F
:10013C00008008BD00000000B400002078E4000836
:10014C0010F8012B11F8013B012A28BF9A42F7D075
:10015C00D01A7047034613F8012B002AFBD1181A4A
:10016C000138704780F0004002E000BF81F0004190
:10017C0042001FBF5FEA410392EA030F7FEA226C41
:10018C007FEA236C6AD04FEA1262D2EB1363C1BFD1
:10019C00D218414048404140B8BF5B42192B88BF40
:1001AC00704710F0004F40F4000020F07F4018BF63
:1001BC00404211F0004F41F4000121F07F4118BF83
:1001CC00494292EA030F3FD0A2F1010241FA03FC2B
:1001DC0010EB0C00C3F1200301FA03F100F0004313
:1001EC0002D5494260EB4000B0F5000F13D3B0F1DB
:1001FC00807F06D340084FEA310102F10102FE2A4A
:10020C0051D2B1F1004F40EBC25008BF20F00100B9
:10021C0040EA03007047490040EB0000013A28BF58
:10022C00B0F5000FEDD2B0FA80FCACF1080CB2EBDB
:10023C000C0200FA0CF0AABF00EBC2505242184359
:10024C00BCBFD0401843704792F0000F81F40001FE
:10025C0006BF80F400000132013BB5E74FEA4103D1
:10026C007FEA226C18BF7FEA236C21D092EA030F3D
:10027C0004D092F0000F08BF0846704790EA010FB7
:10028C001CBF0020704712F07F4F04D1400028BFE4
:10029C0040F00040704712F100723CBF00F50000C6
:1002AC00704700F0004343F0FE4040F400007047FC
:1002BC007FEA226216BF08467FEA236301464202A8
:1002CC0006BF5FEA412390EA010F40F480007047BB
:1002DC004FF0000304E000BF10F0004348BF404261
:1002EC005FEA000C08BF704743F0964301464FF09D
:1002FC0000001CE050EA010208BF70474FF00003F9
:10030C000AE000BF50EA010208BF704711F0004339
:10031C0002D5404261EB41015FEA010C02BF844609
:10032C000146002043F0B64308BFA3F18053A3F568
:10033C000003BCFA8CF2083AA3EBC25310DB01FAAF
:10034C0002FC634400FA02FCC2F12002BCF1004F33
:10035C0020FA02F243EB020008BF20F001007047C4
:10036C0002F1200201FA02FCC2F1200250EA4C0018
:10037C0021FA02F243EB020008BF20EADC7070475E
:10038C004FF0FF0C1CEAD0521EBF1CEAD15392EA6C
:10039C000C0F93EA0C0F6FD01A4480EA010C400248
:1003AC0018BF5FEA41211ED04FF0006343EA5010A2
:1003BC0043EA5111A0FB01310CF00040B1F5000FE4
:1003CC003EBF490041EAD3715B0040EA010062F193
:1003DC007F02FD2A1DD8B3F1004F40EBC25008BF7D
:1003EC0020F00100704790F0000F0CF0004C08BF9B
:1003FC0049024CEA502040EA51207F3AC2BFD2F168
:10040C00FF0340EAC250704740F400004FF0000375
:10041C00013A5DDC12F1190FDCBF00F000407047AF
:10042C00C2F10002410021FA02F1C2F1200200FAED
:10043C0002FC5FEA310040F1000053EA4C0308BFB4
:10044C0020EADC70704792F0000F00F0004C02BF05
:10045C00400010F4000F013AF9D040EA0C0093F080
:10046C00000F01F0004C02BF490011F4000F013BDA
:10047C00F9D041EA0C018FE70CEAD15392EA0C0F48
:10048C0018BF93EA0C0F0AD030F0004C18BF31F0B3
:10049C00004CD8D180EA010000F00040704790F089
:1004AC00000F17BF90F0004F084691F0000F91F02D
:1004BC00004F14D092EA0C0F01D142020FD193EAF3
:1004CC000C0F03D14B0218BF084608D180EA01007B
:1004DC0000F0004040F0FE4040F40000704740F057
:1004EC00FE4040F4400070474FF0FF0C1CEAD05225
:1004FC001EBF1CEAD15392EA0C0F93EA0C0F69D081
:10050C00A2EB030280EA010C49024FEA402037D0EB
:10051C004FF0805343EA111143EA10130CF00040E2
:10052C008B4238BF5B0042F17D024FF4000C8B42D2
:10053C0024BF5B1A40EA0C00B3EB510F24BFA3EBB2
:10054C00510340EA5C00B3EB910F24BFA3EB910382
:10055C0040EA9C00B3EBD10F24BFA3EBD10340EADC
:10056C00DC001B0118BF5FEA1C1CE0D1FD2A3FF622
:10057C0050AF8B4240EBC25008BF20F001007047D7
:10058C000CF0004C4CEA50207F32C2BFD2F1FF037A
:10059C0040EAC250704740F400004FF00003013AAB
:1005AC0037E792F0000F00F0004C02BF400010F44F
:1005BC00000F013AF9D040EA0C0093F0000F01F063
:1005CC00004C02BF490011F4000F013BF9D041EA85
:1005DC000C0195E70CEAD15392EA0C0F08D14202B8
:1005EC007FF47DAF93EA0C0F7FF470AF084676E78B
:1005FC0093EA0C0F04D14B023FF44CAF08466EE764
:10060C0030F0004C18BF31F0004CCAD130F0004231
:10061C007FF45CAF31F000437FF43CAF5FE700BF89
:10062C004FF0FF3C06E000BF4FF0010C02E000BFB2
:10063C004FF0010C4DF804CD4FEA40024FEA410354
:10064C007FEA226C18BF7FEA236C11D001B052EA0A
:10065C00530C18BF90EA010F58BFB2EB030088BFD0
:10066C00C81738BF6FEAE17018BF40F0010070473F
:10067C007FEA226C02D15FEA402C05D17FEA236C21
:10068C00E4D15FEA412CE1D05DF8040B704700BF68
:10069C00844608466146FFE70FB5FFF7C9FF0028FF
:1006AC0048BF10F1000F0FBD4DF808EDFFF7F4FF38
:1006BC000CBF012000205DF808FB00BF4DF808EDD1
:1006CC00FFF7EAFF34BF012000205DF808FB00BFF4
:1006DC004DF808EDFFF7E0FF94BF012000205DF816
:1006EC0008FB00BF4DF808EDFFF7D2FF94BF0120C7
:1006FC0000205DF808FB00BF4DF808EDFFF7C8FFC0
:10070C0034BF012000205DF808FB00BF4FEA400217
:10071C004FEA41037FEA226C02D15FEA402C08D1F8
:10072C007FEA236C02D15FEA412C02D14FF000002A
:10073C0070474FF0010070474FEA4002B2F1FE4F94
:10074C000FD34FF09E03B3EB12620DD94FEA002387
:10075C0043F0004310F0004F23FA02F018BF404260
:10076C0070474FF00000704712F1610F01D1420247
:10077C0005D110F0004008BF6FF0004070474FF0FB
:10078C000000704742000ED2B2F1FE4F0BD34FF077
:10079C009E03B3EB126209D44FEA002343F00043EB
:1007AC0023FA02F070474FF00000704712F1610F0E
:1007BC0001D1420202D14FF0FF3070474FF00000E0
:1007CC00704700BF0022427082700122C270022268
:1007DC00B1FA81F10271032249090170427170472B
:1007EC0043788B421FD0012941700AD0022910D0C6
:1007FC00C1B90123C37002238170037103234371B8
:10080C007047037843B1012383700223C370002324
:10081C00F3E70378002BF6D0022383700023C37018
:10082C000123EAE7FEE770470B8882B0ADF8003091
:10083C004B880239ADF80230CB88ADF804300B8907
:10084C00ADF80630831C063013F8012B0DF1080CA3
:10085C000CEB420232F8082C834221F8022FF3D120
:10086C0002B070477F2807D0002807DA10F1800FFC
:10087C0006D04042C0B2704700207047012070473C
:10088C007F20704710B1404240B270477F207047C4
:10089C007F280FD010F1310F0EDA10F1780F0DDB2D
:1008AC00FE23783040B2584346232330B0FBF3F09C
:1008BC00C0B27047FF207047FE2070470020704781
:1008CC00012805DD40F2FE73984203DC80B27047CC
:1008DC000120704740F2FF70704740F2AE73A0F5F4
:1008EC007870C0EBC02090FBF3F000F58060FFF750
:1008FC00E7BFFFF7F2BF032812DD0C2812DD0F282B
:10090C0012DD122812DD162812DD192812DD1C2822
:10091C0012DD1F2812DD2128CCBFFF2006207047D6
:10092C000020704701207047022070470820704754
:10093C00032070470720704704207047052070473C
:10094C00022807D0012807D040B1032814BFFF208C
:10095C006F207047132070471F207047012070478D
:10096C0002280AD0012805D030B1032814BFFF207B
:10097C000B20704703207047052070477F2808BF65
:10098C000020C0B27047000052B110B4054C0A44AC
:10099C0011F8013B58408A42205CF9D110BC7047D9
:1009AC00704700BFC8E40008A0F16103192B0FD9F0
:1009BC005F280DD02338C3B2162B97BF05480120F2
:1009CC00D840C04398BF00F0010080F00100704790
:1009DC000120704701EC7F00F8B5024600245F2728
:1009EC00451E461D15F8010FFF2804BF0134E4B263
:1009FC00FFF7DAFF00B92F70AE42F3D1062C04D109
:100A0C0019B10B6813608B88938000239371F8BD28
:100A1C002DE9F843012500264FF02808DFF82C902B
:100A2C00471E441D17F8011F08480DF066FC10B155
:100A3C00A0EB0900C0B2A0FB05038619A742A5FBD9
:100A4C000853EFD13046BDE8F88300BFC8E5000875
:100A5C0010B54179A1F13000C3B2092B07D8052399
:100A6C00B0FBF3F303EB8303C01AC0B210BD044C0C
:100A7C0020460DF042FC0028F1D0001BC0B2EEE77E
:100A8C00C8E5000870B50446FFF764FB002382B28A
:100A9C00561E98B2B04204EB000103DA255C013318
:100AAC00302DF6D0121A01322046BDE870400DF000
:100ABC00F3BB00002DE9F04F0D4699B0164600210E
:100ACC001A461F4680460DF001FC00212A2201A87F
:100ADC0000910DF0FBFBDFF8CC90DFF8CCA0DFF839
:100AEC00CCB005EB4606AE424AD047F6FF7335F95B
:100AFC00020B984244D0002812DC59460CA80DF089
:100B0C0009FC6846FFF726FB04460CA8FFF722FBFE
:100B1C000444A742E7D368460CA90DF0DFFBE2E7DB
:100B2C00B0F57A7F0BDA0CA980B20BF034FE0CA86E
:100B3C00FFF7A8FF51460CA80DF0D0FBE1E76424A9
:100B4C003230B0FBF4F00CA980B20BF024FE0CA8F0
:100B5C00FFF798FF0CA8FFF7FDFA00F15F036B4459
:100B6C0013F8302C00F160010DEB010000F8302C73
:100B7C002E2203F8302C0023494600F82F3CDAE7EC
:100B8C006846FFF7E7FA30B100F160030DEB0300A4
:100B9C00002300F8613C694640460DF0BBFB19B0E0
:100BAC00BDE8F08FC2E40008BDE40008B8E400081A
:100BBC00F0B589B06D4600242F468E1CE1B28A42F6
:100BCC0005D936F82410013425F8021BF6E739460E
:100BDC00FFF770FF09B0F0BD42F21073B0FBF3F2F7
:100BEC00642103FB1200B0FBF1F301FB130000EBDB
:100BFC00023000EB831080B2704742F21071020B8E
:100C0C0000F03F0301FB02336422C0F3851002FBAA
:100C1C00003070472DE9F04142F21074B1FBF4F64C
:100C2C00642704FB161488B01E4905460DF072FBB0
:100C3C006946F0B20BF08EFD6846FFF723FFB4FB5C
:100C4C00F7F6DFF86480694628460DF047FB41460D
:100C5C0028460DF043FB07FB16446946F0B20BF037
:100C6C0079FD6846FFF70EFF694628460DF036FB06
:100C7C00414628460DF032FB6946E0B20BF06AFDA6
:100C8C009DF8013069468DF800309DF802302846F9
:100C9C008DF8013000238DF802300DF01FFB08B0E9
:100CAC00BDE8F08108F10008C6E4000870B50D46F7
:100CBC000021044616460DF009FB00239AB2964219
:100CCC0004D9EA5C12B1E2540133F7E770BD70B598
:100CDC000E4614460021013205460DF0F7FA0023AA
:100CEC009AB2944204D9F25C12B1EA540133F7E798
:100CFC0070BD30B50023044698B290420ED2E55C2C
:100D0C00C85C1DB9B0FA80F0400930BD0028FCD099
:100D1C00854203F10103EFD00020F6E70120F4E750
:100D2C007D23438043F23903C360002309B2018061
:100D3C008180C3800372704702680449044B01FB35
:100D4C00023323F000430360180C7047FD4303008B
:100D5C00C39E2600F0B5002597B00160858004463F
:100D6C005622294668460DF0B1FA0126627DAA4248
:100D7C004BD92046FFF7E0FFE77900217B1B90FB66
:100D8C00F3F2EC4602FB13000A46C0B2CBB29F4210
:100D9C000AD91CF801EBBEF1000F03D1824204D03A
:100DAC000132D2B20131F1E7002300221146277B38
:100DBC00D0B2874206D92069805C0132984208BFC4
:100DCC000121F5E70029D1D1A2796119033A012A51
:100DDC0005D925B191F9152082B9012BC6D98B758E
:100DEC00A26852F82310583305F10E026B440135FA
:100DFC0044F8221003F8586CEDB2B7E7501E83424A
:100E0C00EDDB01329342EADCB0E70023802104F1F0
:100E1C00B800237517B0BDE8F0400DF057BA2DE9B6
:100E2C00F047154696B0013D0160027104464371CE
:100E3C00EDB25622002168460DF048FA022D98BFFB
:100E4C004FF003094FF0000794F807808ABF4FF06A
:100E5C000109B8FBF9F800253E464FF0010A627D06
:100E6C00B24250D92046FFF767FFA8EB060390FB70
:100E7C00F3F2002102FB1300EC460A46C0B2CBB2DF
:100E8C0043450AD21CF801EBBEF1000F03D182429C
:100E9C0003D00132D2B20131F1E70020434528BF23
:100EAC004346844609FB035194F80CE0C9B2C2B224
:100EBC00964507D92269125C01308A4208BF4FF06F
:100ECC00010CF4E7BCF1000FC9D116B19FB9012B8D
:100EDC00C5D9A2199175A2681F4652F8211006F1C6
:100EEC000E0244F8221003F158026A44013602F84B
:100EFC0058ACF6B2B3E77A1E9342EADB7A1CD2B254
:100F0C009342E6DCABE70023802104F1B8002375A3
:100F1C0016B0BDE8F0470DF0D9B90023C0E9013394
:100F2C0070470A2310B50446838003F043F9236805
:100F3C00E0809B6820469847A06010BD836870B520
:100F4C00002B04461ADD838843B1013B9BB283809E
:100F5C00A3B903681B68BDE87040184703689B6819
:100F6C009847054603F026F9E388C01A281A00288A
:100F7C00A06003DD236820465B68ECE770BD0000D1
:100F8C0010B50446022980EAE070A0EBE47068D149
:100F9C005AB9002CACBF7F233F239842A8BF1846F8
:100FAC00002C01DA40F0400010BD012A1AD1632850
:100FBC0005DC4000002CF7DA40F48070F4E740F2D6
:100FCC00F54398420CDCFFF783F95749FFF7D8F942
:100FDC000BF0BEFFFFF7D6FB400040F00100E9E745
:100FEC00FF20E7E7022A40F09C80632805DC8000A4
:100FFC00002CD9DA40F40070D6E7B0F57A7F0CDA21
:10100C00FFF766F94849FFF7BBF90BF0A1FFFFF7B3
:10101C00B9FB800040F00100EAE742F20F739842FE
:10102C000CD8FFF755F94149FFF7AAF90BF090FFDF
:10103C00FFF7A8FB800040F00200D9E73C4B984238
:10104C000CD8FFF745F93B49FFF79AF90BF080FFF5
:10105C00FFF798FB800040F00300C9E740F2FF1057
:10106C00C6E703295DD1012A1BD1B0F57A7F05DAD9
:10107C004000002C98DA40F4006095E7B0F5205F52
:10108C000CDAFFF725F92849FFF77AF90BF060FF26
:10109C00FFF778FB400040F00100EAE740F2FF70F8
:1010AC00E7E7022A3DD1B0F57A7F06DA8000002C02
:1010BC00BFF67AAF40F4805076E742F20F73984255
:1010CC000CDCFFF705F91849FFF75AF90BF040FF54
:1010DC00FFF758FB800040F00100E8E7164B984200
:1010EC000CD8FFF7F5F81149FFF74AF90BF030FF70
:1010FC00FFF748FB800040F00200D8E7B0F57A2FEC
:10110C000CD2FFF7E5F80B49FFF73AF90BF020FF8B
:10111C00FFF738FB800040F00300C8E740F6FF7093
:10112C00C5E7002040E700BFCDCCCC3D0AD7233C1F
:10113C0017F001006F12833A9F86010000230360B1
:10114C0070470000092928BF092138B5064B044611
:10115C001B780D468B4202D10023036038BD02F090
:10116C00F5FE25712060F9E7CC000020036810B56E
:10117C0004460BB9002010BD02F0E8FE2368C01A2B
:10118C0040F2EE239842F5D90023054A23601278E9
:10119C0023799A42EED0034A0120D377EBE700BFC4
:1011AC00CC00002004010020FF23437100230171B7
:1011BC00837103818372704738B5037904460D46F9
:1011CC005BB14179A94208D041B101290AD0002371
:1011DC006571A37155B1012D0FD038BD03689B68A3
:1011EC009847F4E7036800219B68F9E7012123681D
:1011FC009B6820469847A071EFE7236829469B68B7
:10120C00F7E7704770477047704700207047002021
:10121C007047704700207047054B82B0DA69024373
:10122C00DA61DB6918400190019B02B0704700BF86
:10123C0000100240054B82B09A6902439A619B6987
:10124C0018400190019B02B0704700BF0010024093
:10125C0000F10C0353E8003F43F0200300F10C01B4
:10126C0041E80032002AF3D1704700F10C0353E837
:10127C00003F43F0800300F10C0141E80032002AEA
:10128C00F3D1704700F10C0353E8003F23F0200327
:10129C0000F10C0141E80032002AF3D1704700F153
:1012AC000C0353E8003F23F0400300F10C0141E82C
:1012BC000032002AF3D1704700F10C0353E8003FD1
:1012CC0023F0800300F10C0141E80032002AF3D135
:1012DC00704770470288044B5140C9B233F8113043
:1012EC0083EA122303807047700E01089AB110B480
:1012FC00B0F800C0084C0A4411F8013B83EA0C0317
:10130C00DBB234F81330914283EA1C2CA0F800C0F5
:10131C00F2D110BC70477047700E01084FF6FF7386
:10132C0037B50446ADF806304518AC4206D014F873
:10133C00011B0DF10600FFF7CDFFF6E7BDF8060027
:10134C0003B030BD6421D0E90123D31AC3604B43F1
:10135C000349498D8260B3FBF1F30374704700BFFE
:10136C00CC000020D0E90123D31AC0E90223704736
:10137C00044B1888044B80B21B889BB2C01A18BF50
:10138C0001207047E22A0020E02A00200023044AB2
:10139C001380044A1380044A1380044A1380704754
:1013AC00E02A0020E22A0020E42C0020E62C002079
:1013BC00044B1888044B80B21B889BB2C01A18BF10
:1013CC0001207047EA2E0020E82E002070470023F1
:1013DC00A0F87032A0F86E3270470023A0F85C328F
:1013EC00A0F85A32704700002D4B5A6A037A92B219
:1013FC0063B18389D31A9BB2B3F5FA7F84BF002300
:10140C000372837A4F2B84BF00230372037A828189
:10141C00082B0FD8DFE803F0050E0E0E0E0E0F177B
:10142C002200EE2901D0C82904D10123837206239E
:10143C00417503727047837A5A1C03448272597542
:10144C0007234172F5E7827A531CDBB202448372A4
:10145C005175427A9A42EDD20823EAE7837A5A1CF4
:10146C00034482725975C37D162B04D1012380F875
:10147C0065300923DDE743690A4A03F0FF239342F1
:10148C004FF0010309D1428BB2F5A26F05D180F860
:10149C006730037F80F86830EBE780F86630E8E768
:1014AC000004004000C80032002070470020704744
:1014BC00002070470020704770470000044B1B78D9
:1014CC00022B06BF034B93F872000020704700BF3D
:1014DC0039040020C0020020B0F8682010B5B0F824
:1014EC006C40531C2340B0F86A409C421EBF12183B
:1014FC0082F86E10A0F8683010BDA0F11400EBE774
:10150C00B0F87032B0F86E22D21A93B2120441BF06
:10151C00B0F8720201301B189BB2181E18BF0120C4
:10152C007047A0F11400EBE70346B0F87022B0F856
:10153C006E1291421FBF811891F87402B3F87212A7
:10154C0001321ABF0A40A3F8702200207047A0F1A4
:10155C001400E9E71E2208B5002103480CF0B6FE82
:10156C000022024B1A7008BD400A002058030020CC
:10157C0038B54A780D46352A044601F10C010AD8D3
:10158C000CF07CFE68780021C0F136022044BDE8E6
:10159C0038400CF09BBE403551F8043BA94240F852
:1015AC00043BF9D10B88038038BD38B54A780C461A
:1015BC001B2A054601F10C010AD80CF05FFE60787D
:1015CC000021C0F11C022844BDE838400CF07EBE5E
:1015DC00283451F8043BA14245F8043BF9D138BDFD
:1015EC0038B54A780D46082A044601F10C010AD890
:1015FC000CF044FE68780021C0F109022044BDE8DB
:10160C0038400CF063BEEB6803604B6843600B7AA8
:10161C00037238BD38B54A780C46072A054601F1E5
:10162C000C010AD80CF02AFE60780021C0F10802E7
:10163C002844BDE838400CF049BEE36803604B68B1
:10164C00436038BD2DE9F04113781546037092F8CC
:10165C000180FD2B04460F46826880F8018052D130
:10166C000A26AB788370EB78C3702B7903716B7996
:10167C004371AB7983716B7A297A1B0403EB0123D9
:10168C00E9790B4463F3170282604246A91904F10D
:10169C000C000CF0F3FD7A7B904507D208F10C009E
:1016AC000021A2EB080220440CF010FE63781E44CB
:1016BC00731C9BB2EA5CAB5D03EB0223A4F80C3108
:1016CC00A378DB070ED50236B6B2354404F5887321
:1016DC0005F10C0255F8041B954243F8041BF9D193
:1016EC002A781A70BB7A84F82131FB7A84F822317B
:1016FC003B7B84F823317B7B84F824313B7884F862
:10170C002031BDE8F08100234380AB7806260371BD
:10171C00EB7843712B798371697961F317028260DD
:10172C00B3E770B50B78054603704B780C464370E5
:10173C000B78FD2B38D10A268B788370CB78C3704D
:10174C000B7903714B7943718B7983718B68C371FE
:10175C008B68C3F30F2303728B7A4372627804F1A4
:10176C000C01A8190CF08AFD6378B4F80C213344F1
:10177C00EA54B4F80C115A1C92B2090AA954A27872
:10178C00981CD20780B20ED504F58872054404F576
:10179C008E7452F8041BA24245F8041BF9D112783E
:1017AC000F332A7098B270BD00238B700B7906260C
:1017BC0083704B79C3708B7903718B684371CDE760
:1017CC002DE9F74F0C4651880546B1F58C7F0FD3A8
:1017DC0000211170D91CC9B2012995BF0121002328
:1017EC00518053809CBF237011700020287097E0AB
:1017FC00107802281ED00FD80028EBD0481C50803F
:10180C00635421789BB2FD290ED10C330A21D3806D
:10181C00022391801370E8E70E2813D0002010707B
:10182C0050809080D080E1E7062108339180D380EE
:10183C000E23EFE7481C5080D8076354F8D5D388A3
:10184C000D33F4E7481C508063545388D1888B4285
:10185C005FD3002353801370022369802B7023788D
:10186C00FD2B60D163792B72A3796B72637A227A28
:10187C001B0403EB0223E27913446B60637803F1DE
:10188C000C026A80A278D10701D519336B8000262F
:10189C004FF4B3720C206968DFF8F4806E81B318D2
:1018AC0001335B0800FB03F758F80770B94243D2C9
:1018BC005A1EB242F3D80C27774358F80730994296
:1018CC003DD123782046FD2B0CBF4FF00A094FF079
:1018DC00060910F801BF4744CB440BF1FF3189B224
:1018EC00FFF71CFD97F804A0ADF8060051460DF16A
:1018FC000600FFF7EFFC0BF10103E25C14F80B3070
:10190C0003EB0223BDF806209BB29A421FD00520A0
:10191C0016E092889A423FF668AF012300202B70A4
:10192C0003B0BDE8F08FE3782B7223796B72637987
:10193C006B6063780833A9E71E46BCD9B9E703206E
:10194C002870023801288CBF00200120E8E7BB7901
:10195C00DA0707D56178FA79914282BF04EB090165
:10196C008A5CAA729B0709D50C2303FB0683627859
:10197C001B7A9A4282BF4C44E35CEB720C2303FB50
:10198C0006867379022085F80CA06B73D8E700BF2C
:10199C005CFC00086FF02003024803604368FFF70B
:1019AC0057BC00BF0048004008B5FFF7F3FF00220A
:1019BC00014B1A7208BD00BFD012002008B5FFF70A
:1019CC00E9FF0022014B1A7208BD00BF4004002041
:1019DC004FF0320C0A4B0B491A680B4BA1FB02124D
:1019EC00920C0CFB02F202F5FA72A3FB02320749CD
:1019FC00920948684B681B1A9A42FBD8704700BF83
:101A0C003C00002083DE1B43D34D6210001000E02D
:101A1C0008B5FFF7DDFF1022014B1A6108BD00BFAE
:101A2C00000801401022024B5A61FFF7D1BF00BFE2
:101A3C0000080140028810B58488531C2340448858
:101A4C009C421EBF12189171038010BD0368DB68A5
:101A5C001847704738B504464D1E15F8011F21B1C3
:101A6C0023682046DB689847F7E738BD08B5FFF7D1
:101A7C00F1FF08BD0120FFF7DDBB00000D4B9842C4
:101A8C0002D10420FFF7D6BB0B4B984205D003F5CF
:101A9C008063984203D11020F4E70820F2E7074B4B
:101AAC00984201D12020EDE7054B984200D07047B9
:101ABC004020E7E700080140000C01400014014001
:101ACC00001801400B4B984203D14FF40060FFF714
:101ADC00B1BBB0F1804F04D0074B984204D1022027
:101AEC0000E00120FFF798BB044B984201D1042081
:101AFC00F8E77047002C014000040040000800404B
:101B0C002DE9F0410C46154686B0074610220021FF
:101B1C0002A81E469DF834800CF0D8FB01940B2DC6
:101B2C0007D8DFE805F00E0E070A14141416161663
:101B3C001B1DFEE70823029303E0082302930123F5
:101B4C000593032E0ED8DFE806F00E1E200E01239F
:101B5C00F1E70123029304230493F2E70923EAE754
:101B6C000923F7E7FEE703230393B8F1000F02D034
:101B7C003846FFF783FF053D042D0BD8DFE805F051
:101B8C0007110A0711000223EEE70123ECE7C4F367
:101B9C000F247C61384601A90AF0D4FA06B0BDE8DE
:101BAC00F081C4F30F243C61F4E713B54FF0010C42
:101BBC000024CDE9004CFFF7A3FF02B010BD0000DC
:101BCC0070B50446164686B00D461422002101A8B5
:101BDC000CF07CFB2046FFF775FF042E04D8DFE8E1
:101BEC0006F02A2E04323B00FEE71C4B1C4A1B68F5
:101BFC00B3FBF2F39BB20022013B204601A9ADF8E6
:101C0C000430CDE90225049205920AF0D3FB236837
:101C1C0023F080032360A36823F4804323F007039D
:101C2C00A360636823F070036360A36823F08003F0
:101C3C00A36006B070BD094B0A4A1B68D8E7074B76
:101C4C00094A1B68D4E7054B064A1B68B3FBF2F341
:101C5C0003EB83035B00CDE70123CCE73C000020C2
:101C6C0080A8120140420F0000127A0010B5044601
:101C7C00FFF7A6FF236843F00103236010BD002289
:101C8C004FF0FF31FFF7F2BF1A4B10B55B681A4CDF
:101C9C00236009F031FE19480AF004FA18480AF0DA
:101CAC0001FA18480AF0FEF917480AF083FC1748A5
:101CBC000AF080FC0AF0CAFA4FF0E022002313610C
:101CCC005361936172B64FF0FF319A0002F160429A
:101CDC00013302F56142082BC2F88010C2F8801162
:101CEC00F3D162B6034B1B6883F3088823689847CB
:101CFC00FEE700BF00F0FF1F540300200008014066
:101D0C00000C01400010014000380140004400402C
:101D1C00064B0748C01AEFF30883C2431A44013B31
:101D2C00984288BF0022AA210CF0D0BA000400000F
:101D3C000050002010B5124C03232046062240F61A
:101D4C000801FFF732FF2046032302220D49FFF75B
:101D5C002CFF032320461A460B49FFF726FF20468B
:101D6C000323052240F20221FFF71FFF2046BDE8A6
:101D7C0010400323052240F20111FFF716BF00BFEC
:101D8C00000C01400100010402000204024B98689F
:101D9C00C0F34020704700BF000C014008B5FFF7AE
:101DAC00F5FF08B100BFFAE708BD00000122024BA5
:101DBC005A6102221A617047000C01400222024B48
:101DCC005A6101221A617047000C014012480F231E
:101DDC00016921F00F0193FAA3F3B3FA83F2012303
:101DEC0093400B4303610D4B5A6822F480725A6086
:101DFC001A6822F480721A60DA6822F48072DA604F
:101E0C009A6842F480729A60D022054B83F81723AB
:101E1C004FF400021A6070470000014000040140BA
:101E2C0000E100E04FF48072034B5A611A6842F4EF
:101E3C0080721A60704700BF0004014010B50A4C54
:101E4C000023052220460949FFF7AFFE0023052297
:101E5C0020460749FFF7A9FE4FF4004363614FF496
:101E6C008043636110BD00BF0010014080008004FE
:101E7C00400040040549CB681A04DB4302F00042E1
:101E8C0003F4004313430B61704700BF0010014083
:101E9C000549CB681A04DB4302F0804203F480430B
:101EAC0013430B61704700BF0010014010B5054C87
:101EBC000023052220460449FFF777FE4FF4805398
:101ECC00636110BD00080140100010044FF48052F3
:101EDC00024B1628CCBF1A615A61704700080140AA
:101EEC000C4BD3F8FC2022F08072C3F8FC20D3F802
:101EFC00FC2042F08072C3F8FC20A3F55D431A6805
:101F0C0022F001021A601A6842F001021A600022E3
:101F1C005A60704700ED00E0064B074A1B68074902
:101F2C00B3FBF2F3434310B54C684A68121B9A4258
:101F3C00FBD310BD3C00002040420F00001000E01D
:101F4C002DE9F04180464CF250300D4616461C46A9
:101F5C0009F0BAFD68BBB8F1010F06D0B8F1020F59
:101F6C000CBF4FF002084FF004080027124A136907
:101F7C0043F0010313613801C0F12002A0F12003EA
:101F8C0004FA02F226FA00F0104324FA03F3184381
:101F9C0080B225F817004CF2503009F095FD18B9B5
:101FAC000137FBB24345E6D3034A136923F001031F
:101FBC001361BDE8F08100BF002002407FB5012312
:101FCC000022CDE9040301A902A8CDE9022309F0FE
:101FDC00B7FD00280CBF0420052007B05DF804FBFA
:101FEC000A4608B5014600230220FFF7A9FF002886
:101FFC000CBF0420052008BD08B5FFF7DFFF031F49
:10200C005842584108BD08B5FFF7EAFF031F584274
:10201C00584108BD2DE9F047254B264D01280FBF2F
:10202C007D267C26AA461D460F4614462249234A85
:10203C0006BF89469A46914609F02AFD3146284644
:10204C00FFF7DAFF10B3002F08BF4FF478744FF08E
:10205C0000080334A40805F11006AAEB050A1FFAC0
:10206C0088F39C4218D93FB95AF806104B1C06D17C
:10207C0008F101080436F2E757F82810F6E74E4548
:10208C0013D23046FFF7BFFF0028F1D1002409F02E
:10209C0011FD2046BDE8F0874FF011312846FFF7BF
:1020AC00B2FF0028F2D00424F1E70324EFE700BFCD
:1020BC0000F0010800F40108FFF70108FFF3010824
:1020CC0010B509F0E5FC7C210748FFF795FF20B11E
:1020DC007D210648FFF790FF20B9002409F0EAFCA7
:1020EC00204610BD0424F9E700F0010800F40108B3
:1020FC00002330B5074A084D9CB2A14206D99C1862
:10210C00AC4205D09C5CC4540133F5E7042030BDCF
:10211C000320FCE710F00108FFF3010838B5044672
:10212C000D4672B60A4601460020FFF773FF62B6F1
:10213C00042806D172B601202A462146FFF76AFF11
:10214C0062B638BD38B5124B1C68D3F80054B4F1E4
:10215C00113F09D1B5F1113F17D0002201201146D2
:10216C00BDE83840FFF756BFB5F1113F03D100224F
:10217C0011461046F4E7FFF7A3FF042804D12C40C6
:10218C0001340CBF0220012038BD0420FCE700BF45
:10219C0000F00108034B18739A68D207FCD5187B22
:1021AC00704700BF0030014010B508781446FFF7A7
:1021BC00F1FF207010BD0000F0B506250126102798
:1021CC008DB0274C2822002102A80CF07FF8FFF7D5
:1021DC0051FC4FF48050FFF72DF841F210012046CE
:1021EC0003230622FFF7E1FC2046276103230A2282
:1021FC0042F22001CDE90056FFF782FC2046032372
:10220C000A2248F28001CDE90056FFF779FC03233E
:10221C0020461A4644F24001CDE90056FFF770FC07
:10222C0000234FF48272CDE90533CDE909330293D3
:10223C00039204934FF40072072304F520542046B4
:10224C0002A90B93089707920AF088F8236843F0C9
:10225C0040032360A3689B07FCD5237B0DB0F0BD26
:10226C00000801401C4B10B41A68940611D5D968AB
:10227C0088060ED5194C1A485968238800880133F2
:10228C00C3F30A0380B298421FBF1648C9B2C154A7
:10229C002380110744BF104B5B68120616D50E48FD
:1022AC00C3681B0612D5104B104A1988138889B2C3
:1022BC009BB299420CD013880133C3F308031380EB
:1022CC0013880B4A9BB2D35CDBB2436010BC7047E3
:1022DC0010BCFEF7F1BF00BF00440040E22A002012
:1022EC00E02A0020E0220020E62C0020E42C002034
:1022FC00E42A00200A490B4A08B50B8812880133DE
:10230C00C3F3080392B29A4207D0074AD054074845
:10231C000B80FEF7AAFF012008BD0020FCE700BFE0
:10232C00E62C0020E42C0020E42A0020004400408D
:10233C000846FFF7DFBF0000054B064A1B881288D2
:10234C009B1A98B21B0444BF00F5006080B2704722
:10235C00E22A0020E02A0020FFF7EEBF0848094AD5
:10236C000188138889B29BB29942F9D01388013342
:10237C00C3F30A0313801388034A9BB2D05C7047E3
:10238C00E22A0020E02A0020E0220020FFF7E6BF2E
:10239C00002300B5002989B0CDE9063318BF4FF4EE
:1023AC008053CDE902320C2301900491034801A91A
:1023BC0005930AF031F909B05DF804FB00440040C4
:1023CC0010B5064CE36823F40053E360FFF7E0FF1D
:1023DC00E36843F40053E36010BD00BF00440040C9
:1023EC00002208461146FFF7EBBF0000F7B50826A0
:1023FC0001272F4C2F4DE36840F2044123F4005386
:10240C00E360FFF737FB4FF40030FEF705FF28467B
:10241C0003230A22CDE90067FFF772FB032328464A
:10242C001A4640F60801CDE90067FFF769FB002268
:10243C004FF4E1301146FFF7ABFFB022236923F4D0
:10244C0090432361636923F02A0363611A4B83F879
:10245C00262340225A602046FEF72EFFFEF71FFF70
:10246C006FF0400323600024144B1C80144B1C8021
:10247C00FEF708FF6FF020030360124B1C80124B19
:10248C001C80036923F400630361436923F0080390
:10249C004361036923F480430361436923F02203FE
:1024AC004361C36843F40053C36003B0F0BD00BF85
:1024BC00004400400008014000E100E0E42C002052
:1024CC00E62C0020E02A0020E22A002008B5FFF7C5
:1024DC008DFF6FF02003034803604368BDE808409C
:1024EC00FEF7B6BE00440040FFF7F0BF1C4B10B423
:1024FC001A68940611D5D96888060ED5194C1A4855
:10250C005968238800880133C3F3080380B29842CA
:10251C001FBF1648C9B2C1542380110744BF104BCA
:10252C005B68120616D50E48C3681B0612D5104BF5
:10253C00104A1988138889B29BB299420CD013881F
:10254C000133C3F30903138013880B4A9BB2D35C8A
:10255C00DBB2436010BC704710BCFEF7ADBE00BFD1
:10256C0000380140EA2E0020E82E0020E82C002044
:10257C00EE320020EC320020EC2E00200A490B4AEF
:10258C0008B50B8812880133C3F3090392B29A423F
:10259C0007D0074AD05407480B80FEF766FE01208F
:1025AC0008BD0020FCE700BFEE320020EC3200201A
:1025BC00EC2E0020003801400846FFF7DFBF00007A
:1025CC000848094A0188138889B29BB29942F9D00C
:1025DC0013880133C3F3080313801388034A9BB297
:1025EC00D05C7047EA2E0020E82E0020E82C00205A
:1025FC00FFF7E6BF002300B5002989B0CDE906330B
:10260C0018BF4FF48053CDE902320C230190049192
:10261C00034801A9059309F0FFFF09B05DF804FB1D
:10262C0000380140F7B5082601272E4C2E4DE368E3
:10263C002E4923F40053E360FFF71CFA4FF480405B
:10264C00FEF7F8FD284603230A22CDE90067FFF7C1
:10265C0057FA032328461A46CDE900672449FFF7A9
:10266C004FFA00224FF4E1301146FFF7C3FFB022BE
:10267C00236923F490432361636923F02A03636184
:10268C001C4B83F8252320225A602046FEF714FEAB
:10269C00FEF705FE6FF0400323600024164B1C80F0
:1026AC00164B1C80FEF7EEFD6FF020030360144BFD
:1026BC001C80144B1C80036923F400630361436981
:1026CC0023F008034361036923F4804303614369E6
:1026DC0023F022034361C36843F40053C36003B087
:1026EC00F0BD00BF003801400008014002000204A8
:1026FC000400040400E100E0EC320020EE32002083
:10270C00E82E0020EA2E002008B5FFF78BFF6FF0B3
:10271C002003034803604368BDE80840FEF798BDFA
:10272C0000380140FFF7F0BF70B51B4C9022002120
:10273C00201D0BF0CBFD012323800F23174E052208
:10274C0031466380A380A01D2C23FEF731FA4FF491
:10275C00A0234FF6FF75124A3146C4E90D2304F14C
:10276C003E002C230522A587FEF722FA0223E366FE
:10277C0000230C4904F17A0084F872306367A4F8E2
:10278C007830A4F870500BF0C5FD7F2384F88F309F
:10279C00052384F8903070BDC00200208CF4000832
:1027AC0002000B0028E6000870B5094E05460C46E1
:1027BC00415C30460BF0A1FD034628B1831B01336D
:1027CC00DBB2282B28BF0023F35C2B5570BD00BF58
:1027DC0030FB000870B50D461146044616460BF04A
:1027EC0099FD2DB3013D082D08D8DFE805F0051142
:1027FC00131517191B1D1F0035236371627973792B
:10280C009A4215D12046BDE870400521FFF7CCBF98
:10281C006123F2E76623F0E76B23EEE77023ECE726
:10282C007523EAE77A23E8E73123E6E73223E4E786
:10283C0070BD000073B5054605F111061B4C014631
:10284C001B4A68463601FFF7C5FFB01C6946204499
:10285C000BF060FD14200023012100FB054004EB6C
:10286C00051226447372A2F81A310222C1640321A4
:10287C00A0F84A2080F85010A0F852304FF4807124
:10288C0080F8543084F83030C4F83A30C4F83E3014
:10289C00C4F8423040F20113E284064AA4F84630F0
:1028AC00C4E90A12A4F8483002B070BD040100203B
:1028BC00F9E5000803010100F7B5054605F111061D
:1028CC000146A94AA94C68463701FFF783FFB81C9B
:1028DC00694620442744FEF77FF87B7A04EB061008
:1028EC00052B84BF00237B72A14B427A198841FAD5
:1028FC0002F212F001020DD1427259B111F0010233
:10290C0008D141FA02F7FF07D0B240F1DE8104EBA7
:10291C000612507204EB051191F81A012A010328D2
:10292C0002D9002081F81A01A718588897F81A11B3
:10293C0040FA01F1C90711D4022187F81A1168B1C4
:10294C004707C0F3800109D440FA01FC1CF0010FC9
:10295C00CFB200F0BF81A11881F81A71A11891F8BB
:10296C001B01032802D9002081F81B01A7189888A5
:10297C0097F81B1140FA01F111F001010FD187F802
:10298C001B1160B110F0010109D140FA01FC1CF0DF
:10299C00010FCFB200F0A381A11881F81B7104EBD9
:1029AC000616717A012905D904291EBF00211219B6
:1029BC0082F81B11142202FB054191F84A000428ED
:1029CC0002D9022081F84A0002FB054292F84B1012
:1029DC00042902D9002182F84B10142202FB054273
:1029EC00998E92F84B0041FA00F0C00712D40120E6
:1029FC0082F84B0071B18F07C1F340020AD441FA3F
:102A0C0002F6F607D0B240F16F81142202FB0542A8
:102A1C0082F84B00142202FB054292F84C10032959
:102A2C0002D9012182F84C10142000FB0540D98EEC
:102A3C0090F84C2041FA02F212F0010210D180F809
:102A4C004C2069B111F001020AD141FA02F6F707E4
:102A5C00D0B240F14E81142202FB054282F84C00A8
:102A6C00142202FB054292F84E10012902D90021D2
:102A7C0082F84E10142000FB0540198F90F84E2060
:102A8C0041FA02F212F0010210D180F84E2069B125
:102A9C0011F001020AD141FA02F6F607D0B240F168
:102AAC002D81142202FB054282F84E00142202FBF7
:102ABC00054292F84F10022902D9002182F84F10DA
:102ACC00142000FB0540598F90F84F2041FA02F278
:102ADC0012F0010210D180F84F2069B111F00102FF
:102AEC000AD141FA02F6F707D0B240F10C81142258
:102AFC0002FB054282F84F00142202FB054191F8BB
:102B0C004D00022802D9002081F84D0002FB05423D
:102B1C0092F85010052902D9032182F85010142282
:102B2C0002FB054191F85200012802D9002081F8DE
:102B3C00520002FB054292F85310022902D90021DF
:102B4C0082F85310142000FB0540998F90F8532005
:102B5C0041FA02F212F0010217D180F85320A1B110
:102B6C0011F0010211D105E0F9E500080401002083
:102B7C00C002002041FA02F6F607D0B240F1C8803C
:102B8C00142202FB054282F85300142202FB054179
:102B9C0091F85400022802D9002081F8540002FB5D
:102BAC00054292F84C10012906D192F84F100229D7
:102BBC0004BF002182F84F1094F82620042A02D971
:102BCC00022284F8262094F82720042A02D9002215
:102BDC0084F82720B3F86C1094F8272041FA02F2FD
:102BEC00D6070FD4012284F8272059B18807C1F3E6
:102BFC00400207D441FA02F6F707D0B240F18D80BB
:102C0C0084F8270094F82820022A02D9002284F89C
:102C1C00282094F82920022A02D9012284F829209C
:102C2C00B3F86E1094F8293041FA03F313F0010253
:102C3C00674B0CD184F8292049B111F0010206D15F
:102C4C0041FA02F6F607D0B26CD583F8290094F855
:102C5C002A200C2A02D9002284F82A2094F8322047
:102C6C000C2A02D9002284F8322093F82B20042A53
:102C7C0002D9002283F82B2093F82F20012A02D9A5
:102C8C00002283F82F20534AB2F8701093F82F20AB
:102C9C0041FA02F212F001020CD183F82F2049B153
:102CAC0011F0010206D141FA02F4E707D0B23DD58A
:102CBC0083F82F0000221046474911F9014B14F1FB
:102CCC00780F37DA01F8010C36E00132102A7FF464
:102CDC0018AE1FE6013110297FF436AE3EE6013105
:102CEC0010297FF452AE5AE60132102A7FF487AED7
:102CFC0090E60132102A7FF4A8AEB1E60132102A18
:102D0C007FF4C9AED2E60132102A7FF4EAAEF3E6C4
:102D1C000132102A7FF42EAF37E70132102A7FF4EC
:102D2C0069AF6FE70132102A8AD190E70132102A7D
:102D3C00B9D1BFE7782CC5DC0132D2B20C2ABCD198
:102D4C0000220120254911F8014B0132022CD2B28C
:102D5C0088BF01F8010C042AF5D193F82C20052A20
:102D6C0002D9032283F82C2093F82D20022A02D9B1
:102D7C00012283F82D2093F82E20022A02D9012259
:102D8C0083F82E2093F83020022A02D9002283F8EF
:102D9C0030201421FF226943581883F8312080F821
:102DAC0051204FF6FF744FF0FF32553103EB0515F0
:102DBC0058181A629A84C5F81C21A5F820415A505B
:102DCC004260047283F833205A631A8703B0F0BD53
:102DDC0004010020C00200203E0100204A01002016
:102DEC00124B9870032803D8DFE800F0030E141A76
:102DFC00FEE70F4A9A6200221A710A22033818BFA2
:102E0C0001201A74987370470A4A9A6201221A7147
:102E1C000F22F3E7084A9A6202221A711922EDE78F
:102E2C00064A9A6200221A710722E7E7CC000020BA
:102E3C001400320020001F003500130009006F0041
:102E4C002DE9F34100F111075F4D3F0107F1020835
:102E5C00A84406464046FDF7DBFD042101900DEB2E
:102E6C000100FEF75BFA594C019B0021A36014236F
:102E7C0003FB065393F84A20554B2F4413F822308A
:102E8C0060822373534B84F8341023637B7A3701AD
:102E9C00637005EB061393F81A01FFF7A1FF637833
:102EAC00628A63732377A261A1771BB94046FDF751
:102EBC00CFFDA0772F4497F81B21627762B1618A0E
:102ECC0002EB021303EB03230B444FF0113163822B
:102EDC00A36801FB0233A360237F052B04D8DFE832
:102EEC0003F004323436383EFEE7A378032B03D8C4
:102EFC00DFE803F003252703FEE71823237540F2D0
:102F0C00E243207DA385FDF7E7F94FF07F51FDF7F4
:102F1C0037FAFDF737FC4FF47A73228DC0B2B3FB4E
:102F2C00F2F32384142303FB065393F85030E0850B
:102F3C00052B3FD8DFE803F01535383B3E41122313
:102F4C00DCE70C23DAE71923D8E70623D6E70223BC
:102F5C00D4E7A378012BF2D0022BF2D0FEE70323A7
:102F6C00CCE74FF4165314206362002300FB065584
:102F7C0084F83530E38695F84C30032B03D095F864
:102F8C004F20022A02D1012284F83520012B08BFE0
:102F9C0084F8363094F8353093B194F836307BB1F0
:102FAC00FEE74FF49643DEE74FF41643DBE74FF4AE
:102FBC006143D8E74FF4E133D5E74FF46133D2E7FF
:102FCC0002B0BDE8F08100BF04010020CC0000205D
:102FDC008CF40008010100014FF4DE72FF2101485E
:102FEC000BF074B9040100204FF4DE710148FFF7B7
:102FFC0095B800BF040100204FF4DE710148FFF7C3
:10300C0077B800BF0401002008B5FFF7F5FF034BAC
:10301C001878BDE80840FFF74FBC00BFCC0000207B
:10302C0070B5FFF7D9FFFFF78DF804280CD0FFF728
:10303C00D3FFFFF787F8042803D1FFF7DDFF04283F
:10304C0006D0FFF7C9FF03E0FFF7D6FF0428EED147
:10305C0040F24F12524CA38A934267D0B3F5A47F2F
:10306C0036D80125062204F1160104F58970FDF706
:10307C002EFE637F84F81931A37F84F81A31284619
:10308C000135EDB2FFF7D6FB0A2DF8D10023E3771B
:10309C0040F24F130125A38242F213732269414976
:1030AC009A423F484FF010021CBF012523610BF0E0
:1030BC0039F900283CD010223A493948FDF7F6FD81
:1030CC00082239493948FDF7F1FDFFF78DFF31E052
:1030DC00B3F5A77F22D8234600220325012102261F
:1030EC0093F84C0001280DD003280ED093F84F0014
:1030FC0001280DD002280ED001320A2A03F1140344
:10310C00EED1C5E783F84C50F0E783F84C10EDE7AF
:10311C0083F84F60F0E783F84F10EDE70025E8B235
:10312C000135FFF787FB0A2DF9D1AFE70025B3E78F
:10313C00002DCAD1E37F092B84BF0023E37714232E
:10314C00E17F03FB014393F84C2002F0FD02012ABE
:10315C0017D10022124993F84C0001320A2A81F847
:10316C004C0001F11401F6D1114DE37F2B70FFF7E8
:10317C00DBFA2878FFF7A0FB2878BDE87040FFF752
:10318C005FBE49B10B4903F14A025E3352F8040B9E
:10319C009A4241F8040BF9D10023E377E4E700BF2E
:1031AC000401002000E6000811E60008B602002029
:1031BC00CC0000204E01002010B5C01A9DF808402C
:1031CC00123080F30500A042C8BF20B2C0B2123B3F
:1031DC0008701844107010BD07B5084611461A4601
:1031EC00122300931B23FFF7E7FF03B05DF804FBEA
:1031FC000229F7B5054600D9FEE70B4E0F0106EB89
:10320C000114A3786278F15D846009F0BFFCE37966
:10321C0028460193A37922790093E178637909F028
:10322C00DEFC03B0F0BD00BF84100108024638B5C7
:10323C00044652F8143B5D6900F11503A84720467B
:10324C00217D2022BDE8384009F02DBD70B58D7A66
:10325C00044686B0016175B3012109F06DFC0121B2
:10326C00204609F086FD0121204609F09CFD2369CA
:10327C00204693F90810FFF7D9FF236920461978E7
:10328C00FFF7B6FF00222046114609F072FC00231E
:10329C0044F20302204600934FF6FF7109F0BBFC89
:1032AC0020464FF6FF7109F0E4FC204606B0BDE85D
:1032BC00704009F06ABD032109F03EFC2046012153
:1032CC0009F057FD2046012109F06DFD23692046C8
:1032DC0093F90810FFF7AAFF23692A465E680B4B87
:1032EC002046E3608621102309F082FD46F6E82390
:1032FC00CDE902535B230422CDE900537021102346
:10330C002046CDE9046509F082FDBBE77010010889
:10331C0010B5044609F039FD2046BDE810404FF6C3
:10332C00FF7109F0A6BC000038B5044603680169BA
:10333C005D6900F1140200F1150391F90810A8471A
:10334C0023699A7A42B11A78022A00D9FEE7044B13
:10335C0003EB0213A36038BD024BE360FBE700BF35
:10336C00841001087010010810B5094CA36823B92A
:10337C00E36813B92046FFF7D7FF23699B7A23B183
:10338C00A3689868A0F57A7010BDE368D868F9E76F
:10339C00981F0020836810B504461BB9C3680BB98D
:1033AC00FFF7C2FF23699B7A1BB1A368B3F90C002A
:1033BC0010BDE368B3F91000FAE7836810B5044652
:1033CC001BB9C3680BB9FFF7AFFF94F9150010BD1B
:1033DC00012230B5A1F12103C1F1210422FA04F438
:1033EC004D1E02FA03F32343AA404FF0FF344FF073
:1033FC00FF35C0E90223C0E90445C0E9062301708A
:10340C0080F8201030BD002201231146F0B5D0E920
:10341C000276D0E904549F4276EB020C0BD303EAFC
:10342C00050C02EA040E5CEA0E0C1CBF013189B2D9
:10343C00DB185241EFE7D0E90632DB1852419F42CC
:10344C0080F8201076EB02010AD3C0E90632D0E9ED
:10345C00062325EA020524EA0304C0E90454F0BD5E
:10346C0001220023C0E90623F1E7000090F8D830D0
:10347C005BB190F8D930074A180102EB03139B6833
:10348C001978135853F821007047037D0E3350F808
:10349C00230070472CF400082DE9F341044616462E
:1034AC0088469DF824705B22402F4FF000011D468A
:1034BC0028BF40270AF00AFF8E4B5B8A23803278A4
:1034CC00A37862F30203A3707378DB0003F00803A4
:1034DC0043EA0811A37803F007031943A17072792A
:1034EC00E37862F30003E370B279637962F38613D5
:1034FC00637196F90200FDF7B5F9E37860F34703C1
:10350C00E370F278237962F306032371337903F0C5
:10351C000102237903F07F0343EAC2132371337949
:10352C00C3F34502637923F03F0313436371A3791B
:10353C0067F34703A3712B78AA78E3716B7802F0D9
:10354C001F0203F0070343EAC20323726B88C3F321
:10355C004512637A23F03F03134363722B7903F014
:10356C000302637A03F03F0343EA82136372AB886E
:10357C00C3F38703A3726B79C3F38002E37A23F05E
:10358C0001031343E372AB7903F07F02E37A03F098
:10359C00010343EA4203E372EB88C3F3C312237BB8
:1035AC0023F00F03134323732B7AAA7AE3736B7AFA
:1035BC0002F01F0203F0070343EAC20323746B8972
:1035CC00C3F34512637C23F03F03134363742B7BDB
:1035DC0003F00302637C03F03F0343EA821363743A
:1035EC00AB89C3F38703A3746B7BC3F38002E37CC7
:1035FC0023F001031343E374AB7B03F07F02E37C02
:10360C0003F0010343EA4203E374EB89C3F3C312EF
:10361C00237D23F00F03134323752B8ADB0863757B
:10362C006B8ADB08A375AB8ADB08E375EB8ADB08D6
:10363C0023762B8BB3F5C06F3AD2B3F5007F94BFD2
:10364C0000230123227B63F3051222736B8BB3F5EA
:10365C00C06F2FD2B3F5007F94BF00230123227BD0
:10366C0063F387122273AB8BB3F5C06F24D2B3F51F
:10367C00007F94BF00230123227D63F30512227582
:10368C00EB8BB3F5C06F19D2B3F5007F94BF002359
:10369C000123227D63F38712089B22751F4404F1DA
:1036AC001902BB420CD013F8011B02F8011BF8E7FE
:1036BC000223C7E70223D2E70223DDE70223E8E770
:1036CC004FF6FF7321460DF106000D22ADF80630C2
:1036DC00FDF70CFE2146BDF806304C2221F80D3FBB
:1036EC00FDF704FEBDF80630A4F8593002B0BDE871
:1036FC00F08100BFCC00002013B59DF81040CDE93F
:10370C00003413460A460021FFF7C6FE02B010BD76
:10371C0013B5144B02885B8A04469A421DD18378F8
:10372C0003F0F003102B01D0202B18D1A379A52B7B
:10373C0015D84FF6FF730DF1060059222146ADF84E
:10374C000630FDF7D3FDB4F85900BDF806309842A9
:10375C0014BF0420002002B010BD0120FBE70220A2
:10376C00F9E700BFCC00002030B5334B027893F85A
:10377C00261000F1170461F30302027093F827106E
:10378C0061F30712027093F82810427861F3030278
:10379C00427093F8291061F30712427093F82A10C3
:1037AC00827861F30302827093F83210827961F3AC
:1037BC000302827193F82B10827861F307128270E6
:1037CC0093F82C10C27861F30302C27093F82D1099
:1037DC0061F30712C27093F82E10027961F30302A1
:1037EC00027193F82F1061F30712027193F83010E5
:1037FC00427961F30302427103F13A0100F10B02C9
:10380C0011F9015B02F8015BA242F9D193F8461061
:10381C00C27D61F30102C27593F8471061F3830214
:10382C00C27593F8481061F30512C27593F84930CC
:10383C0063F38712C27530BD0401002002782F4B50
:10384C00C2F3030230B583F82620027803F13A0163
:10385C00C2F3031283F82720427800F11704C2F355
:10386C00030283F828204278C2F3031283F829203C
:10387C008278C2F3030283F82A208279C2F303020E
:10388C0083F832208278C2F3031283F82B20C2789B
:10389C00C2F3030283F82C20C278C2F3031283F81C
:1038AC002D200279C2F3030283F82E200279C2F391
:1038BC00031283F82F204279C2F3030283F83020DD
:1038CC0000F10B0212F9015BA24201F8015BF9D184
:1038DC00C27DC2F3010283F84620C27DC2F381028D
:1038EC0083F84720C27DC2F3011283F84820C27DC1
:1038FC00C2F3811283F8492030BD00BF04010020BF
:10390C001FB58DF80C300123019303AB00931346C4
:10391C000A460221FFF7C0FD05B05DF804FB00006C
:10392C000123F0B5204D044685F8723085B0B0F80F
:10393C000900FDF762F96E466867B4F80B30142283
:10394C0004F10D0105F17A00A5F87830FDF7BFF907
:10395C0094F9213004F1230085F88F3094F822304B
:10396C0004F1510785F89030FFF768FF04F141032B
:10397C00324618685968083303C2BB421646F7D161
:10398C002C23082269460948FDF794F894F8513025
:10399C00A5F86C3094F85230A5F86E3094F853308A
:1039AC00A5F8703005B0F0BDC0020020FE0200206A
:1039BC002DE9F0474FF0400A92B00DF10809064688
:1039CC000F4690460021524648460AF07FFC2223BF
:1039DC00194C1A4D21780DF10A0005EB0111062244
:1039EC0001F589718DF80830FDF760F9237805A889
:1039FC0005EB031205EB031595F8194192F81B1111
:103A0C009DF8113092F81A2104F00F0444EA0214C4
:103A1C0061F303038DF811308DF81040FFF7A4FE0D
:103A2C0043463A4602213046CDE9009AFFF734FD71
:103A3C0012B0BDE8F08700BFCC00002004010020CC
:103A4C0010B50446FDF77EFC04F11400FDF77AFC7A
:103A5C0004F12800FDF776FC04F13C00FDF772FC44
:103A6C0004F15000FDF77EFC04F16400FDF77AFCD4
:103A7C0010BD000000230A4A8380126883718260A3
:103A8C00084A83810384136803615368064A4361BF
:103A9C00136883615368C3614EF6602303607047FB
:103AAC00FC32002017E6000820E6000810B5104C88
:103ABC000220FFF795F92046FFF72AFC20466FF00D
:103ACC007F01FFF7B3FB0021204609F01EF84FF4ED
:103ADC007A70FEF721FA2046012109F02DF82369AE
:103AEC0020461978FFF784FB2046FFF711FC10BD28
:103AFC00981F00201B4B1A6890F820301BB980F8D7
:103B0C002130826019E090F82130013B5BB2002B30
:103B1C0080F821300ADC002380F82030F1E7012303
:103B2C0003711CE04379002BF9D170478368D21ADA
:103B3C00B2F57A6F01D9012343710379002BF1D0CF
:103B4C00094B427B1B781AB1022B1CBF0322027358
:103B5C009A1E534253414373837913B10323037366
:103B6C0070477047FC320020390400200346007B6C
:103B7C00821E012A4FF0000202D893F8201009B9D6
:103B8C001A737047104670470A4A38B513880446B2
:103B9C0001339BB2502B0D4601D8138038BD002346
:103BAC0005491380FDF756FF29462046FDF752FFC5
:103BBC00F4E700BF3008002022E700082DE9F74F9A
:103BCC0016460546884600277049FDF743FF3146E7
:103BDC002846FDF73FFF6E4BB8F1010F6D4C1F806F
:103BEC0011D14FF400434FF48047636146F2A810A3
:103BFC002761FEF791F96761FEF78EF93146284689
:103C0C00FFF7C2FFF2E7B8F1020F11D14FF4804376
:103C1C004FF40047636146F2A8102761FEF77CF968
:103C2C006761FEF779F931462846FFF7ADFFF2E7F9
:103C3C00B8F1030F11D14FF400434FF480472361C7
:103C4C0046F2A8102761FEF767F96761FEF764F981
:103C5C0031462846FFF798FFF2E7B8F1040F11D16F
:103C6C004FF480434FF40047236146F2A8102761BC
:103C7C00FEF752F96761FEF74FF931462846FFF718
:103C8C0083FFF2E7B8F1050F14D14FF480484FF4DD
:103C9C00004746F2A810C4F810802761FEF73CF9E3
:103CAC00C4F814806761FEF737F931462846FFF7F0
:103CBC006BFFEEE7B8F1060F14D14FF480484FF4C8
:103CCC00004746F2A810C4F810806761FEF724F98B
:103CDC00C4F814802761FEF71FF931462846FFF718
:103CEC0053FFEEE7A8F10A03042B40D84FF4004B26
:103CFC004FF48049A8F1090A5FFA8AFA0423574560
:103D0C0038BFC4F810B0019346F2A810C4F8109054
:103D1C00FEF702F9C4F81490FEF7FEF83146284677
:103D2C00FFF732FF019B013B13F0FF03EBD10423A0
:103D3C00C4F814B0019346F2A810C4F81090FEF722
:103D4C00EBF8C4F81490FEF7E7F831462846FFF775
:103D5C001BFF019B013B13F0FF03EBD10137A8F1D3
:103D6C000803FFB2DBB2BB4238BF0027C6E74FF4F3
:103D7C00804323614FF4004323614CF25030FEF733
:103D8C00CBF831462846FFF7FFFEF6E722E700089E
:103D9C0030080020001001406FF001024FF080430A
:103DAC0008491A610A88013A92B20A800A8892B2CA
:103DBC003AB9DA6822F00102DA601A6822F00102DC
:103DCC001A6070478A0300204FF080436FF00102A5
:103DDC001A61DA6822F00102DA601A6822F0010234
:103DEC001A60704700B589B0FFF7EEFF40F2022170
:103DFC0001230A221648FDF7D8FE00224FF47A71EF
:103E0C004FF08040FDF7DCFE0023CDE90133039336
:103E1C006023022200934FF480730492CDE90523B2
:103E2C0010216A464FF08040079308F0FBFA4FF0E0
:103E3C008042936923F480639361E022054B83F8FD
:103E4C001C234FF080521A6009B05DF804FB00BFD0
:103E5C000008014000E100E0084BB3FBF1F14FF02A
:103E6C008043D962490899631A6842F001021A60CA
:103E7C001A6A42F010021A62704700BF40420F00EB
:103E8C000E484FF08043B0FBF1F051434FF47A727F
:103E9C00B1FBF2F10A4AD86289B2400898631180EA
:103EAC001A6842F001021A601A6A42F010021A6291
:103EBC00DA6842F00102DA60704700BF40420F003E
:103ECC008A03002019B94FF4FA71FFF7C5BF1829FE
:103EDC0005D84FF4FA724FF4FA71FFF7D1BF4A29A3
:103EEC0001D8FA22F7E7632901D83222F3E7FFF76A
:103EFC006BBF4FF080431B68DB0704D428224FF4C0
:103F0C00FA71FFF7BDBF704710B5044694F9013044
:103F1C0008468B4201D1237823B901232370FDF786
:103F2C00D5FF607010BD0000054A064B11681B7868
:103F3C000B441360044A136801331360704700BFCD
:103F4C00FC320020400000202C080020014B186897
:103F5C00704700BFFC32002037B50C461D4668B9CF
:103F6C0007480DF106020DF1070108F0F2FE2B4691
:103F7C0022469DF80610024808F0A2FD03B030BDA1
:103F8C00981F002070B50D4616461C460146B0B968
:103F9C00FDF70CFF0C4833462A4608F06BFD4FF634
:103FAC00FF71094808F065FE22010748012192B211
:103FBC0008F089FEBDE870407D20FDF7ADBF0248DA
:103FCC00FFF7A6F970BD00BF981F00202DE9F04146
:103FDC004FF05B0805461E4C0E464246002120461B
:103FEC000AF074F92B691B4F23606B693978636095
:103FFC00194B1A4D1B7805EB01119A1E5342534174
:10400C00627A04F10A0063F30002627201F58971AD
:10401C000622FCF74BFE3B78592105EB031595F86E
:10402C001A21237C204662F30713237495F81B2175
:10403C00637C62F303036374FDF770F94246A4F8E2
:10404C005900214630463B7CBDE8F041FFF79ABF52
:10405C00C51F0020CC0000203904002004010020E2
:10406C0037B50C46A8B9124803699D7A9DB101F188
:10407C007A020DF1060108F050FEBDF90630002B56
:10408C0010DB4FF6FF73ADF80630BDF8063084F840
:10409C00783003B030BD0DF1060108F013FF84F841
:1040AC007A50EAE77F33F0DA4FF68173EBE700BF23
:1040BC00981F002070B50D460646114C5B23224616
:1040CC0021462846FFF748FFD6E9061320686268A8
:1040DC009A4208BF884211D120465921FDF71EF99A
:1040EC00B4F85940231A5C425C4128460549FFF755
:1040FC00B7FF002C0CBF0120022070BD0024F4E798
:10410C00F81D0020101F00200A4608B50146014882
:10411C00FFF754FD24000020164600B591B004466C
:10412C0068461D460AF0F6F8184968460AF0D6F8B3
:10413C00304608F0ADFB014668460AF0CFF814494A
:10414C0068460AF0CBF8134B684653F825100AF072
:10415C00C5F8114968460AF0C1F8104D9DF8483071
:10416C00684655F823100AF0B9F80D4968460AF06C
:10417C00B5F89DF84C30684655F823100AF0AEF8A7
:10418C006A4621460748FFF719FD00BF29E60008DB
:10419C0030E600080000002035E600081000002082
:1041AC003CE60008240000200148FDF768BD00BF74
:1041BC0000040040014B586A80B270470004004074
:1041CC00F8B505464FF07F301C4B1D4A0024C3E95F
:1041DC001E024FF6FF720E46FF27C3E90244C3E9E5
:1041EC000744C3E90C44C3E91144C3E91644C3E9C9
:1041FC001B445C601C749C6183F82440DC6283F873
:10420C0038401C6483F84C405C6583F860409C66C5
:10421C0083F87440A3F88220A3F8844005F10800C9
:10422C0083F8817083F88640FFF7D2F8314605F1A8
:10423C003000FFF7CDF82C80AF70F8BD101F0020B8
:10424C00FFFF7F0010B504463030FFF7DCF804F1B7
:10425C000800FFF7D8F810BD4FF07F31144B154A0A
:10426C0030B5C3E91E12FF2283F881204FF6FF728E
:10427C00A3F882200022A3F8842083F886204FF034
:10428C00FF32D0E90E454FF0FF3390F83010C0E903
:10429C001023C0E90623D0E90423C0E90823037ADC
:1042AC00C0E9124580F8501080F8283030BD00BFAE
:1042BC00101F0020FFFF7F00D0E9062310B5D0E9C6
:1042CC00084122430B43C0E90623024A53680133D9
:1042DC00536010BD101F0020D0E9102310B5D0E999
:1042EC00124122430B43C0E91023024A9369013364
:1042FC00936110BD101F0020064B1B78022B06D1BA
:10430C00054B93F84C00012838BF01207047002062
:10431C00704700BF39040020101F00202822074BD3
:10432C0002FB00339B681A78542A05D15878A0F107
:10433C00780358425841704700207047A0F4000899
:10434C002822074B02FB00339B681A78522A05D1AE
:10435C005878A0F1780358425841704700207047B4
:10436C00A0F400082822074B02FB00339B681A7844
:10437C00542A04D15878783818BF0120704701208E
:10438C00704700BFA0F40008282343430A4A10B525
:10439C00D1580446FFF7D4FF40B92046FFF7BEFFC3
:1043AC00064B1B7820B1142202FB0311084610BDEA
:1043BC0001EB0311FAE700BFA0F40008CC000020C9
:1043CC00292838B505460C4631D82822194B02FB52
:1043DC0000331B79042B07D84BB3023B022B05D8B7
:1043EC00DFE803F011171F00FE2B20D12846FFF742
:1043FC00CBFF0378E4B2A34219D004702846BDE881
:10440C003840FFF7AFBFFFF7BFFF64B290F9003041
:10441C00F1E7FFF7B9FF0288A3B29A4207D00480F4
:10442C00ECE7FFF7B1FF23B2B0F90020F5E700206D
:10443C0038BD00BFA0F40008292838B504460D4645
:10444C0019D828220D4B02FB00331B79FF2B12D1FC
:10445C00FFF79AFF06222946FCF74BFC58B9204679
:10446C00FFF792FF29460622FCF731FC2046BDE8F7
:10447C003840FFF777BF002038BD00BFA0F400081C
:10448C002DE9F043154628224A4307463448012BB0
:10449C0000EB0204246A87B027D1324B82580229E0
:1044AC0008BF1C46304B9A4230D03049243B9A42CC
:1044BC0008BF0C46FF234FF0000801268DF8003092
:1044CC002046FBF747FE5FFA88F9484522D914F8D5
:1044DC0009302C2B06D106F118036B44013603F876
:1044EC00188CF6B208F10108EAE7022BE2D1204B56
:1044FC008258022908BF1C461B4B9A4208D0A3F1D4
:10450C0024018A4204D01B491E3BD0E7174CD1E74B
:10451C00194CCFE706F118036B44AE4203F8188C24
:10452C0004D80020387007B0BDE8F08305F11803FB
:10453C000DEB0305002315F8181C15F9175C013158
:10454C00C9B25A18D2B2AA4207EB030004DAA25C31
:10455C000133DBB20270F4E7002303700120E2E7C1
:10456C00A0F4000843E600084F010020A9E600086B
:10457C007CE6000807E70008DDE600082822054B6A
:10458C0002FB00335B6A0BB1188870474FF6FF7063
:10459C00704700BFA0F4000828220B4B70B502FB3B
:1045AC0000331E6A3046FBF7D5FD00220446114647
:1045BC00D5B24B1CAC42D8B205D9735D01322C2B51
:1045CC0008BF0146F4E770BDA0F4000828220F4B89
:1045DC00014602FB00331B7910B5FE2B13D1FFF7FC
:1045EC00CDFF04460846FFF7D7FF002201461046D0
:1045FC00D3B2994208D944FA02F3DB0744BF431CF7
:10460C00D8B20132F4E7FF2010BD00BFA0F40008BF
:10461C002DE9F04F002405460F46A0461D4E93B0E1
:10462C004FF0000AD6F808905FFA84FB5FFA8AF123
:10463C0048460191FBF78EFD019901F14803884230
:10464C006B4411D919F80100019309F005FFC0B2B0
:10465C00202808BF5F22019B0AF1010A14BF03F84E
:10466C00400C03F8402CE1E7394603F8408C02A8D3
:10467C00FBF766FD28B9012085F800B013B0BDE842
:10468C00F08F01342A2C06F12806C9D1002085F8B8
:10469C000080F3E7A0F4000828232DE9F0411D4E1B
:1046AC00044603FB016633790D46FE2B174618D0E2
:1046BC00FF2B21D0022B28D10846FFF765FE21469F
:1046CC0090F9000008F090F835692B783BB112494D
:1046DC00204609F003FE2946204609F0FFFD012083
:1046EC0015E00846FFF750FE3B4629460278204667
:1046FC00BDE8F041FFF7C4BE0846FFF745FE0622B1
:10470C0001462046FCF7E3FAE9E700202070BDE8FB
:10471C00F08100BFA0F4000841E70008F8B5164688
:10472C0028220024174B074602FB06331A790D4644
:10473C00022A047003D0FE2A13D02046F8BD93F948
:10474C0018208A42F9DC93F91C309942F5DC4FF0C1
:10475C000001304665F30701FFF732FE0124387083
:10476C00EBE70029E9DB3046FFF716FFA842E4DD52
:10477C003046FFF703FF40FA05F313F00100E6D1D2
:10478C000446DAE7A0F400082DE9F84300231746A5
:10479C0028220370114B064602FB07331B790C468B
:1047AC00FF2B03D000252846BDE8F8830846FBF70D
:1047BC00D1FC0628F6D104F1FF3804F1050918F8EC
:1047CC00010FFCF7F1F805460028EBD0C845F6D1EF
:1047DC0021463846FFF730FE3070E4E7A0F40008BD
:1047EC004FF0280CF8B500270F4B04460CFB023396
:1047FC001B790E46FE2B1546077004D0FF2B0CD0F0
:10480C00013B032B0DD8304609F002FD2A46014628
:10481C002046BDE8F840FFF781BFBDE8F840FFF740
:10482C00B3BF3846F8BD00BFA0F4000838B5054644
:10483C00044655F8050BFDF70DF929462068FDF7E0
:10484C0009F938BD38B500250446016005710749E2
:10485C00053009F05FFD84F889506572C4F88C50FE
:10486C0084F8905084F8985038BD00BF1FE70008BA
:10487C0003798B420DD00129017106D0022906D093
:10488C0039B90449053009F045BD0349FAE7034934
:10489C00F8E770471FE7000822E7000821E7000847
:1048AC0090F88930642B08D8C2180133DBB25172EE
:1048BC0080F88930184400234372704708B50930DA
:1048CC00FBF73EFCB0FA80F0400908BD2DE9F0433F
:1048DC00064691B0084688461546FBF73BFC06F1A8
:1048EC00090904464846FBF735FCE4B2631CC7B221
:1048FC00BB4203DB002011B0BDE8F08322464146E9
:10490C00484609F00FFD0028F4D1224604F10903B2
:10491C001E44BA4203460CD216F8011B202905D0BE
:10492C00403301306B44C0B203F8401C0132D2B2A8
:10493C00EFE7002200F140036B44022803F8402CFF
:10494C00D8D19DF800303D2BD4D19DF80130303BAF
:10495C00DAB2092ACED801202B60CCE710B5044678
:10496C0007490068FDF782F8064B2068197830314A
:10497C00C9B2FDF76BF820460349FFF757FF10BD8E
:10498C0024E70008CC00002028E600082DE9F047B9
:10499C00437A8046702B0F46164690B072D1837ABC
:1049AC00202B6FD1C07A09F061FC002842D0002581
:1049BC004FF002092C4608F1090A5046FBF7CAFBD6
:1049CC00814515D208EB09035B7A3D2B0ED0202BC9
:1049DC0007D005F140016A1C0DEB010505F8403CC0
:1049EC00D5B209F101035FFA83F9E6E72C46F0E74B
:1049FC0005F140030DEB0305002305F8403CE4B939
:104A0C006846FBF7A7FBE5B2A84207EB050304F1E8
:104A1C00010408D905F140036B4413F8400C09F06C
:104A2C001BFD7855ECE70022304617491A7009F047
:104A3C0071FC012010B0BDE8F087E8461D4618F85F
:104A4C00010B09F009FD78550135EBB2A342F6D301
:104A5C0000253D550134E4B26846FBF77BFB671932
:104A6C00FFB2874206EB050309D207F140020DEBBA
:104A7C00020717F8402C0135EDB21A70ECE7002252
:104A8C001A70D6E70020D5E72EE700082DE9FF477E
:104A9C0028232C4E044603FB016633790D46FE2B6E
:104AAC0022D0FF2B4BD0022B1BD196F91850264944
:104ABC000068FCF7DBFF2846694607F095FE69465F
:104ACC002046FFF7B3FE96F91C5020492068FCF7EE
:104ADC00CDFF6946284607F087FE69462046FFF75A
:104AEC00A5FE04B0BDE8F0870846FFF747FD002699
:104AFC008046DFF85C90DFF85CA0F7B201233A4601
:104B0C0029466846FFF7BCFC0028EAD0B3B248FA45
:104B1C0003F3DB0711D549462068FCF7A7FF07F123
:104B2C0030012068C9B2FCF791FF51462068FCF7B0
:104B3C009DFF69462046FFF779FE0136DDE7064901
:104B4C00CDE700BFA0F4000830E7000838E7000804
:104B5C0040E7000843E7000847E70008F0B50446C3
:104B6C0089B008460D46FFF731FD2E4906462068F0
:104B7C00FCF77CFF28232C4F206803FB0577B968D2
:104B8C00FCF774FF29492068FCF770FF2EB920460A
:104B9C002749FFF74BFE09B0F0BD012229466846B4
:104BAC00FFF77AFD69462068FCF760FF3B79FE2B26
:104BBC0006D0FF2B1DD02068611DFCF757FFEAE7DC
:104BCC002846FFF7E1FB05781A492068FCF74EFFF1
:104BDC0005F130012068C9B2FCF738FF164920688E
:104BEC00FCF744FF012EE6D114492068FCF73EFF88
:104BFC00E1E7134B5B78002BDDD16846FBF728FF10
:104C0C000428D8D8DFE800F0030507090B000D498C
:104C1C00EBE70D49E9E70D49E7E70D49E5E70D49F4
:104C2C00E3E700BF40E70008A0F4000843E70008F2
:104C3C0056E7000866E7000854E7000869E7000833
:104C4C00CC00002078E700087DE7000882E7000828
:104C5C0087E700088DE700080129F8B506460D46E0
:104C6C0001D9032907D11B4B1B78022B03D03046EB
:104C7C001949FFF7DBFD0024164F012D08D1204602
:104C8C00FFF74CFB50B92046FFF75AFBA8B105E0E3
:104C9C00022D08D12046FFF741FB70B90134E4B274
:104CAC002A2CEAD1F8BD032D10D12046FFF748FB82
:104CBC000028F3D03B78022BE5D130462146FFF794
:104CCC004DFF42F21070FDF727F9E7E7002DF1D008
:104CDC00F3E700BF3904002093E7000838B5394BDF
:104CEC0004461A6890F89830012B69D1D0F88C30B2
:104CFC00D31AB3F5FA7F63D3C0F88C203248FFF790
:104D0C00FBFA07F0A7FD314D01462068FCF7AEFE1B
:104D1C002F492068FCF7AAFE95F8240007F09AFDAD
:104D2C0001462068FCF7A2FE2A492068FCF79EFE8B
:104D3C0095F87F0007F08EFD01462068FCF796FE83
:104D4C0025492068FCF792FE95F9780007F08CFD58
:104D5C0001462068FCF78AFE20492068FCF786FE95
:104D6C0095F97E0007F080FD01462068FCF77EFE79
:104D7C0019492068FCF77AFE95F97A0007F074FD62
:104D8C0001462068FCF772FE15492068FCF76EFEA0
:104D9C00B5F85C0007F072FD01462068FCF766FE72
:104DAC000D492068FCF762FEB5F8700007F066FD4F
:104DBC0001462068FCF75AFE20460A49FFF736FDEB
:104DCC0038BD00BFFC32002080200020101F0020C6
:104DDC00B0E70008B2E70008B5E70008B3E7000841
:104DEC00B8E70008BBE7000830B50446134989B0A2
:104DFC00FFF71CFD12492068FCF738FE114B1B789D
:104E0C00022B18D1104D95F8723093B1206805F132
:104E1C007A01FCF72BFE0D492068FCF727FE696F21
:104E2C006846FBF7F7FE69462046FFF7FFFC09B022
:104E3C0030BD0749F8E70749F6E700BFBDE70008B2
:104E4C00DCE7000839040020C0020020B5E70008A8
:104E5C00E3E7000899E7000810B504462349FFF77B
:104E6C00E5FC20462249FFF7E1FC20462149FFF7EB
:104E7C00DDFC20462049FFF7D9FC20461F49FFF7EF
:104E8C00D5FC20461E49FFF7D1FC42F21070FDF70D
:104E9C0043F820461B49FFF7C9FC20461A49FFF787
:104EAC00C5FC20461949FFF7C1FC20461849FFF7FD
:104EBC00BDFC42F21070FDF72FF820461549FFF7A4
:104ECC00B5FC20461449FFF7B1FC20461349FFF707
:104EDC00ADFC42F21070FDF71FF820461049FFF7A9
:104EEC00A5FC20460F49FFF7A1FC10BDF8E7000810
:104EFC0018E8000842E8000867E800088FE8000896
:104F0C00B3E80008D7E8000800E9000829E9000820
:104F1C006DE900088FE90008AEE90008DDE900083A
:104F2C000AEA000834EA00082DE9F0410D4604466F
:104F3C00002837D0002935D04FF4804200261A4B78
:104F4C00B0465A614FF40042184F1A613B684BB19E
:104F5C00C7F8008026B3013EB6B21EB9FCF78AFF33
:104F6C00FCF796FF236820461B69984740B12368DD
:104F7C0020465B6998472B680146DB6828469847B2
:104F8C002B6828461B6998470028DFD02B682846D9
:104F9C005B69984723680146DB6820469847D5E74C
:104FAC006326DFE7BDE8F081001001402C080020EB
:104FBC002DE9F0430368044693B043B3A54B1E6838
:104FCC0090F8893083B1D0F88C30F31AB3F5FA6FBE
:104FDC000AD9A149FFF72AFC2046A049FFF726FC75
:104FEC00002384F88930637294F89830ABB1206850
:104FFC0003681B69984768B1206803685B69984728
:10500C0000232046964984F89830FFF70FFC13B024
:10501C00BDE8F0832046FFF761FE8F4FDFF8448236
:10502C00DFF84492206803681B6998470028EED08B
:10503C00206803685B6998470A280546C4F88C60A9
:10504C000ED00D280CD02C280AD03B2808D00146B5
:10505C002068FCF7FBFC29462046FFF721FCE1E722
:10506C0039462046FFF7E2FB41462046FFF726FC77
:10507C0038B12046FFF7F0FE002384F889306372C4
:10508C00D0E749462046FFF719FC0028F1D120460D
:10509C007649FFF713FC0028EBD120467449FFF743
:1050AC000DFC054618B12046FFF79EFEE4E72046AE
:1050BC007049FFF703FC38B12046FFF74FFC294637
:1050CC002046FFF7C9FDD7E720466B49FFF7F6FBF3
:1050DC0020B12046FFF742FC0121F1E72046674949
:1050EC00FFF7ECFB20B12046FFF738FC0221E7E785
:1050FC0020466349FFF7E2FB20B12046FFF72EFC68
:10510C000321DDE720460AAA02A9FFF73FFC00288D
:10511C0045D002A90DF10200FFF77AFA20B95949DE
:10512C002046FFF783FBA7E7574B1B78022B06D0D3
:10513C009DF80200FFF704F908B15449F0E79DF817
:10514C0028303F2B0DD12046FFF708FC20469DF858
:10515C000210FFF703FD20469DF80210FFF796FCA6
:10516C008AE70BB94A49DBE79DF802200AA90DF141
:10517C000300FFF735FB08B94649D1E72046FFF796
:10518C00EDFB20469DF80210FFF7E8FC9DF803307C
:10519C00002B3FF471AF012384F890306CE720466C
:1051AC003D49FFF78BFB88B10223204684F89030F1
:1051BC00FFF7D4FB344B1B78022B05D03349204628
:1051CC00FFF734FB3549ABE73549A9E720463549AC
:1051DC00FFF774FB20B10323334984F890309FE729
:1051EC0020463249FFF76AFB88B10423204684F835
:1051FC009030FFF7B3FB244B1B78022B05D02349CF
:10520C002046FFF713FB2A498AE72A4988E72046FC
:10521C00294901AAFFF75AFB002857D02046FFF76F
:10522C009DFB264A019B12789A4201D1244977E7CB
:10523C0007222449206884F89020C4F89430FCF7A5
:10524C0015FC019920683031C9B2FCF7FFFB1E49EF
:10525C0066E700BFFC32002076EA000878EA000816
:10526C0082EA000888F200089CEA00082EE7000891
:10527C0008F10008A1EA0008A4EA0008A9EA00085D
:10528C00AFEA0008B5EA00083904002093E70008EB
:10529C00D1EA0008E9EA0008FCEA000803EB000880
:1052AC001AEB00082EEB000833EB00084AEB000861
:1052BC0051EB00086AEB000880EB0008CC000020E2
:1052CC008CEB0008A1EB000828E6000820461649E4
:1052DC00FFF7F4FA40B101231449204684F89830C2
:1052EC00FFF7A4FA12491BE720461249FFF7E6FA2A
:1052FC0008B1052350E720460F49FFF7DFFA48B104
:10530C004FF4E1310D48FDF76BF80C492068FFF7BD
:10531C000BFEB1E694F88910094A0A4B00290CBF20
:10532C0011461946FCE600BFCAEB0008B7EB0008B3
:10533C00D0EB0008EDEB0008F8EB0008280000208B
:10534C005CEA000868EA0008142110B5074B084C09
:10535C001A78084B204601FB023393F85410FFF7E0
:10536C0087FA2046BDE81040FFF722BECC00002093
:10537C009403002004010020244B10B51C68A106E6
:10538C0007D5DA68920604D55868214BC0B21B6861
:10539C009847230744BF1D4B5B68200616D51B4856
:1053AC00C368190612D51B4B1B4A1988138889B27E
:1053BC009BB299421AD013880133C3F308031380AC
:1053CC001388164A9BB2D35CDBB2436062061CD5D1
:1053DC000E48C3685B0618D5FBF761FFBDE81040AB
:1053EC006FF0400303600E4B1B681847FBF764FF1C
:1053FC006FF040030B4A036052E8003F43F0400358
:10540C0042E800310029F7D1E0E710BD0048004028
:10541C0034000020DE220020DC220020DC200020D2
:10542C00380000200C480040002300B5002989B04A
:10543C00CDE9063318BF4FF48053CDE902320C236B
:10544C0001900491034801A9059307F0E5F809B010
:10545C005DF804FB00480040012808B503D1BDE805
:10546C000840FCF797BA0348FBF70CFF6FF02003DA
:10547C00036008BD00480040F7B5082601272D4CF5
:10548C002D4DE3682D4923F40053E360FCF7F2FA49
:10549C004FF48020FBF7C0FE284603230A22CDE9F7
:1054AC000067FCF72DFB032328461A46CDE900675D
:1054BC002349FCF725FB002222481146FFF7B4FFD5
:1054CC00A022236923F490432361636923F02A0308
:1054DC0063611D4B83F8272380225A602046FBF71B
:1054EC00EBFEFBF7DCFE6FF0400323600024174B50
:1054FC001C80174B1C80FBF7C5FE6FF0200303606C
:10550C00144B1C80144B1C80036923F4006303614F
:10551C00436923F008034361036923F48043036167
:10552C00436923F022034361C36843F40053C3600F
:10553C0003B0F0BD00480040000C0140040004041E
:10554C0008000804801A060000E100E0DC220020BC
:10555C00DE220020D8200020DA2000200649074A4D
:10556C000B8812880133C3F3080392B29A421EBF10
:10557C00034AD0540B807047DE220020DC2200202E
:10558C00DC20002038B5012380F8693090F8BA305F
:10559C00044603F0FF0083B1002594F8BA20EBB267
:1055AC00934206D2234493F86A00FFF7D7FF0135E4
:1055BC00F3E70023012084F8BA3038BD0148FBF72B
:1055CC0054BE00BF0048004008B50023838103711E
:1055DC00C380038183720361FFF74EFFBDE808406F
:1055EC00FCF7D8B910B5044603681B689847237AB2
:1055FC00082B03D9092B02D00023237210BD23687A
:10560C0020465B6898470028F6D00020FFF724FF5F
:10561C000A232372BDE81040FFF7D0BF01460148B2
:10562C00FFF7E0BFD012002001460148FFF7DABFB8
:10563C004004002008B5027A0A4B092A1B6801D8DD
:10564C00036108BD02699B1A142BFAD9002303725B
:10565C00FCF7A0F90448FBF722FE6FF0400303604F
:10566C00EFE700BFFC320020004800400238C0B217
:10567C000F289ABF014B185C00207047F6F3000806
:10568C0002463B4B10B5586A137A80B233B19389FA
:10569C00C31A9BB2FA2B84BF00231372137A908126
:1056AC00052B19D8DFE803F003080E334A564F29AF
:1056BC0012D1012313720FE0572901D10223F9E70C
:1056CC000023F7E70023FF29937206D141F20473FC
:1056DC001381537E002BF3D110BD9F290FD90124C8
:1056EC0001F01F00947282F83200FFF7BFFF507276
:1056FC0018B982F84B400923DCE70523DAE71829AF
:10570C00DED80029F7D0032351721372E1E7B2F807
:10571C006E02B2F87242431C2340B2F870429C42B3
:10572C001EBF801880F87412A2F86E32937A517AE8
:10573C000133DBB299429372DDD9CDE7907A431CE9
:10574C00DBB210449372C176517A9942C4D80123CA
:10575C009376D0E7907A431CDBB21044937280F8B6
:10576C003210517A9942B7D2012382F84B30C2E7FA
:10577C000004004038B50446002594F86620EBB2CE
:10578C009A4206D9234493F84D00FFF7E7FE013502
:10579C00F3E738BD027FC37E02F0070243EA02231F
:1057AC000B80838BC3F3CA034B80C369C3F38A3367
:1057BC008B8090F82030C27F03F00F03DB0143EAAB
:1057CC005203CB80038CC3F30A130B81036AC3F31C
:1057DC00CA334B8190F8243090F8232003F01F0338
:1057EC009B0143EA92038B81838CC3F34A13CB81D5
:1057FC00C38CC3F30A030B8290F8283090F827204F
:10580C0003F03F035B0143EAD2034B82836AC3F389
:10581C008A138B82438DC3F34A03CB8290F82C30CE
:10582C0090F82B2003F07F031B0143EA12130B8328
:10583C00C36AC3F3CA134B83C38DC3F38A038B832D
:10584C0090F8303090F82F20DB0043EA5213CB83D2
:10585C0040F2547390F8312012F0010F14BF1A4625
:10586C00AC220A8490F8312012F0020F08BFAC234E
:10587C004B847047437E70B504460D4673B10023CC
:10588C008E180372B54206D0236820461B6815F8A3
:10589C00011B9847F6E700232372A37670BD0346DD
:1058AC00407E30B568B193F8664004F0FF054CB10A
:1058BC0003F14D040C6093F866101170002283F80C
:1058CC00662030BD2846FCE7017642765AB30123A8
:1058DC00037640F2FF11A0F86C1040F2FF71002328
:1058EC00A0F872127F2180F84C30A0F86A308376D1
:1058FC00A0F8683080F84B30A0F8703280F8663031
:10590C00A0F86E32A0F8763AA0F8743AA0F8781A9B
:10591C0080F8FA3A4AB9054B054A1A60054B064A13
:10592C001A60FFF751BE0029D3D170473400002014
:10593C002956000838000020B5190008F8B5477E34
:10594C0004460D4617B100263046F8BD037E002BE9
:10595C00F9D0FFF76FFEA37E03F0FF06002BF2D009
:10596C0029462046A776FFF715FFEDE7427E034652
:10597C0010B5E2B9007EB8B193F84C4004F0FF00CA
:10598C0094B11C7983F84C200CB11A71DA80DC8844
:10599C009A790134052ADC8007D0092A05D0012A1E
:1059AC004FF0000305D10B7010BD0123FBE7002065
:1059BC00FAE71846F8E70346007E60B193F84B20EF
:1059CC0002F0FF003AB1002283F84B2093F83230FA
:1059DC0003F01F030B707047F8B50D4606461746CB
:1059EC00002119224D3008F071FC2846FFF73EFECD
:1059FC00044605F01F05603D01340246394686F821
:105A0C004D5006F14E00E4B208F038FC86F86640C2
:105A1C00F8BD70B590F8FA4A0346DCB9B0F8746A70
:105A2C00B0F8762AB51AA8B22D0441BFB3F8785A4B
:105A3C000135401980B260B1964208D0981890F8A0
:105A4C007A4AB3F8780A01320240A3F8762A012088
:105A5C000C7070BD0020FCE710B52B4C86B01822E2
:105A6C000021684608F032FC237828488DF806306F
:105A7C00FDF790FCADF800002448FDF79EFC94F86F
:105A8C0030308DF8030022489DF8072003F00F03F7
:105A9C0090F8724063F303029DF80510D2B24CB338
:105AAC0041F001018DF8051090F88F108DF804105D
:105ABC0090F8901061F307128DF807209DF80720DD
:105ACC000B211209032A28BF0322032B28BF03230F
